{
  "contractName": "CarHelper",
  "abi": [
    {
      "anonymous": false,
      "inputs": [
        {
          "indexed": true,
          "internalType": "address",
          "name": "previousOwner",
          "type": "address"
        },
        {
          "indexed": true,
          "internalType": "address",
          "name": "newOwner",
          "type": "address"
        }
      ],
      "name": "OwnershipTransferred",
      "type": "event"
    },
    {
      "anonymous": false,
      "inputs": [
        {
          "indexed": false,
          "internalType": "uint256",
          "name": "id",
          "type": "uint256"
        },
        {
          "indexed": false,
          "internalType": "string",
          "name": "name",
          "type": "string"
        },
        {
          "indexed": false,
          "internalType": "uint256",
          "name": "vin",
          "type": "uint256"
        }
      ],
      "name": "newCar",
      "type": "event"
    },
    {
      "inputs": [
        {
          "internalType": "uint256",
          "name": "",
          "type": "uint256"
        }
      ],
      "name": "carToOwner",
      "outputs": [
        {
          "internalType": "address",
          "name": "",
          "type": "address"
        }
      ],
      "stateMutability": "view",
      "type": "function"
    },
    {
      "inputs": [
        {
          "internalType": "uint256",
          "name": "",
          "type": "uint256"
        }
      ],
      "name": "cars",
      "outputs": [
        {
          "internalType": "string",
          "name": "name",
          "type": "string"
        },
        {
          "internalType": "uint256",
          "name": "vin",
          "type": "uint256"
        },
        {
          "internalType": "uint32",
          "name": "rating",
          "type": "uint32"
        },
        {
          "internalType": "uint32",
          "name": "pitTime",
          "type": "uint32"
        },
        {
          "internalType": "uint16",
          "name": "winCnt",
          "type": "uint16"
        },
        {
          "internalType": "uint16",
          "name": "lossCnt",
          "type": "uint16"
        }
      ],
      "stateMutability": "view",
      "type": "function"
    },
    {
      "inputs": [
        {
          "internalType": "string",
          "name": "_name",
          "type": "string"
        }
      ],
      "name": "createRandCar",
      "outputs": [],
      "stateMutability": "nonpayable",
      "type": "function"
    },
    {
      "inputs": [],
      "name": "isOwner",
      "outputs": [
        {
          "internalType": "bool",
          "name": "",
          "type": "bool"
        }
      ],
      "stateMutability": "view",
      "type": "function"
    },
    {
      "inputs": [
        {
          "internalType": "uint256",
          "name": "_id",
          "type": "uint256"
        },
        {
          "internalType": "uint256",
          "name": "_ckId",
          "type": "uint256"
        }
      ],
      "name": "overtakeCK",
      "outputs": [],
      "stateMutability": "nonpayable",
      "type": "function"
    },
    {
      "inputs": [],
      "name": "owner",
      "outputs": [
        {
          "internalType": "address",
          "name": "",
          "type": "address"
        }
      ],
      "stateMutability": "view",
      "type": "function"
    },
    {
      "inputs": [],
      "name": "renounceOwnership",
      "outputs": [],
      "stateMutability": "nonpayable",
      "type": "function"
    },
    {
      "inputs": [
        {
          "internalType": "address",
          "name": "_address",
          "type": "address"
        }
      ],
      "name": "setCkContractAddress",
      "outputs": [],
      "stateMutability": "nonpayable",
      "type": "function"
    },
    {
      "inputs": [
        {
          "internalType": "address",
          "name": "newOwner",
          "type": "address"
        }
      ],
      "name": "transferOwnership",
      "outputs": [],
      "stateMutability": "nonpayable",
      "type": "function"
    },
    {
      "inputs": [],
      "name": "withdraw",
      "outputs": [],
      "stateMutability": "nonpayable",
      "type": "function"
    },
    {
      "inputs": [
        {
          "internalType": "uint256",
          "name": "_fee",
          "type": "uint256"
        }
      ],
      "name": "setOvertakeFee",
      "outputs": [],
      "stateMutability": "nonpayable",
      "type": "function"
    },
    {
      "inputs": [
        {
          "internalType": "uint256",
          "name": "_id",
          "type": "uint256"
        }
      ],
      "name": "overtake",
      "outputs": [],
      "stateMutability": "payable",
      "type": "function"
    },
    {
      "inputs": [
        {
          "internalType": "uint256",
          "name": "_id",
          "type": "uint256"
        },
        {
          "internalType": "string",
          "name": "_Name",
          "type": "string"
        }
      ],
      "name": "modifyName",
      "outputs": [],
      "stateMutability": "nonpayable",
      "type": "function"
    },
    {
      "inputs": [
        {
          "internalType": "uint256",
          "name": "_id",
          "type": "uint256"
        },
        {
          "internalType": "uint256",
          "name": "_Vin",
          "type": "uint256"
        }
      ],
      "name": "modifyVin",
      "outputs": [],
      "stateMutability": "nonpayable",
      "type": "function"
    },
    {
      "inputs": [
        {
          "internalType": "address",
          "name": "_owner",
          "type": "address"
        }
      ],
      "name": "CarsByOwner",
      "outputs": [
        {
          "internalType": "uint256[]",
          "name": "",
          "type": "uint256[]"
        }
      ],
      "stateMutability": "view",
      "type": "function"
    }
  ],
  "bytecode": "0x60806040526010600155600154600a6200001a91906200028a565b60025561465060035566038d7ea4c680006008553480156200003b57600080fd5b50336000806101000a81548173ffffffffffffffffffffffffffffffffffffffff021916908373ffffffffffffffffffffffffffffffffffffffff16021790555060008054906101000a900473ffffffffffffffffffffffffffffffffffffffff1673ffffffffffffffffffffffffffffffffffffffff16600073ffffffffffffffffffffffffffffffffffffffff167f8be0079c531659141344cd1fd0a4f28419497f9722a3daafe3b4186f6b6457e060405160405180910390a3620002db565b7f4e487b7100000000000000000000000000000000000000000000000000000000600052601160045260246000fd5b60008160011c9050919050565b6000808291508390505b60018511156200018b57808604811115620001635762000162620000fd565b5b6001851615620001735780820291505b808102905062000183856200012c565b945062000143565b94509492505050565b600082620001a6576001905062000279565b81620001b6576000905062000279565b8160018114620001cf5760028114620001da5762000210565b600191505062000279565b60ff841115620001ef57620001ee620000fd565b5b8360020a915084821115620002095762000208620000fd565b5b5062000279565b5060208310610133831016604e8410600b84101617156200024a5782820a905083811115620002445762000243620000fd565b5b62000279565b62000259848484600162000139565b92509050818404811115620002735762000272620000fd565b5b81810290505b9392505050565b6000819050919050565b6000620002978262000280565b9150620002a48362000280565b9250620002d37fffffffffffffffffffffffffffffffffffffffffffffffffffffffffffffffff848462000194565b905092915050565b611c5780620002eb6000396000f3fe6080604052600436106100e85760003560e01c80638da5cb5b1161008a578063ccf502e011610059578063ccf502e0146102ab578063f2fde38b146102d4578063f7746e36146102fd578063f93968b61461033f576100e8565b80638da5cb5b146102105780638f32d59b1461023b578063aa7ac57d14610266578063b300dacb1461028f576100e8565b8063432849c1116100c6578063432849c11461016a578063574eea4c146101935780636a877b75146101d0578063715018a6146101f9576100e8565b8063083896b8146100ed57806333ca504b146101165780633ccfd60b14610153575b600080fd5b3480156100f957600080fd5b50610114600480360381019061010f9190611243565b610368565b005b34801561012257600080fd5b5061013d60048036038101906101389190611283565b610450565b60405161014a91906112f1565b60405180910390f35b34801561015f57600080fd5b50610168610483565b005b34801561017657600080fd5b50610191600480360381019061018c9190611452565b6104ea565b005b34801561019f57600080fd5b506101ba60048036038101906101b591906114c7565b610551565b6040516101c791906115b2565b60405180910390f35b3480156101dc57600080fd5b506101f760048036038101906101f29190611283565b6106a4565b005b34801561020557600080fd5b5061020e6106bf565b005b34801561021c57600080fd5b5061022561078e565b60405161023291906112f1565b60405180910390f35b34801561024757600080fd5b506102506107b7565b60405161025d91906115ef565b60405180910390f35b34801561027257600080fd5b5061028d60048036038101906102889190611243565b61080e565b005b6102a960048036038101906102a49190611283565b6108f6565b005b3480156102b757600080fd5b506102d260048036038101906102cd91906114c7565b61096b565b005b3480156102e057600080fd5b506102fb60048036038101906102f691906114c7565b6109c0565b005b34801561030957600080fd5b50610324600480360381019061031f9190611283565b6109dd565b604051610336969594939291906116dd565b60405180910390f35b34801561034b57600080fd5b50610366600480360381019061036191906117a5565b610aed565b005b6000600760009054906101000a900473ffffffffffffffffffffffffffffffffffffffff1673ffffffffffffffffffffffffffffffffffffffff1663e98b7f4d836040518263ffffffff1660e01b81526004016103c59190611805565b61014060405180830381865afa1580156103e3573d6000803e3d6000fd5b505050506040513d601f19601f820116820180604052508101906104079190611861565b9091929394959697985090919293949596975090919293949596509091929394955090919293945090919293509091925090915090508091505061044b8382610be1565b505050565b60056020528060005260406000206000915054906101000a900473ffffffffffffffffffffffffffffffffffffffff1681565b61048b6107b7565b61049457600080fd5b600061049e61078e565b90508073ffffffffffffffffffffffffffffffffffffffff166108fc479081150290604051600060405180830381858888f193505050501580156104e6573d6000803e3d6000fd5b5050565b6000600660003373ffffffffffffffffffffffffffffffffffffffff1673ffffffffffffffffffffffffffffffffffffffff168152602001908152602001600020541461053657600080fd5b600061054182610d04565b905061054d8282610d49565b5050565b60606000600660008473ffffffffffffffffffffffffffffffffffffffff1673ffffffffffffffffffffffffffffffffffffffff1681526020019081526020016000205467ffffffffffffffff8111156105ae576105ad611327565b5b6040519080825280602002602001820160405280156105dc5781602001602082028036833780820191505090505b5090506000805b600480549050811015610699578473ffffffffffffffffffffffffffffffffffffffff166005600083815260200190815260200160002060009054906101000a900473ffffffffffffffffffffffffffffffffffffffff1673ffffffffffffffffffffffffffffffffffffffff161415610686578083838151811061066b5761066a611940565b5b60200260200101818152505081806106829061199e565b9250505b80806106919061199e565b9150506105e3565b508192505050919050565b6106ac6107b7565b6106b557600080fd5b8060088190555050565b6106c76107b7565b6106d057600080fd5b600073ffffffffffffffffffffffffffffffffffffffff1660008054906101000a900473ffffffffffffffffffffffffffffffffffffffff1673ffffffffffffffffffffffffffffffffffffffff167f8be0079c531659141344cd1fd0a4f28419497f9722a3daafe3b4186f6b6457e060405160405180910390a360008060006101000a81548173ffffffffffffffffffffffffffffffffffffffff021916908373ffffffffffffffffffffffffffffffffffffffff160217905550565b60008060009054906101000a900473ffffffffffffffffffffffffffffffffffffffff16905090565b60008060009054906101000a900473ffffffffffffffffffffffffffffffffffffffff1673ffffffffffffffffffffffffffffffffffffffff163373ffffffffffffffffffffffffffffffffffffffff1614905090565b601482816004828154811061082657610825611940565b5b906000526020600020906003020160020160009054906101000a900463ffffffff1663ffffffff16101561085957600080fd5b836005600082815260200190815260200160002060009054906101000a900473ffffffffffffffffffffffffffffffffffffffff1673ffffffffffffffffffffffffffffffffffffffff163373ffffffffffffffffffffffffffffffffffffffff16146108c557600080fd5b83600486815481106108da576108d9611940565b5b9060005260206000209060030201600101819055505050505050565b600854341461090457600080fd5b6004818154811061091857610917611940565b5b9060005260206000209060030201600201600081819054906101000a900463ffffffff1680929190610949906119e7565b91906101000a81548163ffffffff021916908363ffffffff1602179055505050565b6109736107b7565b61097c57600080fd5b80600760006101000a81548173ffffffffffffffffffffffffffffffffffffffff021916908373ffffffffffffffffffffffffffffffffffffffff16021790555050565b6109c86107b7565b6109d157600080fd5b6109da81610f7f565b50565b600481815481106109ed57600080fd5b9060005260206000209060030201600091509050806000018054610a1090611a43565b80601f0160208091040260200160405190810160405280929190818152602001828054610a3c90611a43565b8015610a895780601f10610a5e57610100808354040283529160200191610a89565b820191906000526020600020905b815481529060010190602001808311610a6c57829003601f168201915b5050505050908060010154908060020160009054906101000a900463ffffffff16908060020160049054906101000a900463ffffffff16908060020160089054906101000a900461ffff169080600201600a9054906101000a900461ffff16905086565b6003838160048281548110610b0557610b04611940565b5b906000526020600020906003020160020160009054906101000a900463ffffffff1663ffffffff161015610b3857600080fd5b846005600082815260200190815260200160002060009054906101000a900473ffffffffffffffffffffffffffffffffffffffff1673ffffffffffffffffffffffffffffffffffffffff163373ffffffffffffffffffffffffffffffffffffffff1614610ba457600080fd5b848460048881548110610bba57610bb9611940565b5b90600052602060002090600302016000019190610bd89291906110d0565b50505050505050565b816005600082815260200190815260200160002060009054906101000a900473ffffffffffffffffffffffffffffffffffffffff1673ffffffffffffffffffffffffffffffffffffffff163373ffffffffffffffffffffffffffffffffffffffff1614610c4d57600080fd5b600060048481548110610c6357610c62611940565b5b90600052602060002090600302019050610c7c81611076565b610c8557600080fd5b60025483610c939190611aa4565b925060006002848360010154610ca99190611ad5565b610cb39190611b2b565b9050610cf46040518060400160405280600681526020017f4e6f4e616d65000000000000000000000000000000000000000000000000000081525082610d49565b610cfd8261109d565b5050505050565b60008082604051602001610d189190611b98565b6040516020818303038152906040528051906020012060001c905060025481610d419190611aa4565b915050919050565b60046040518060c00160405280848152602001838152602001600163ffffffff16815260200160035442610d7d9190611ad5565b63ffffffff168152602001600061ffff168152602001600061ffff1681525090806001815401808255809150506001900390600052602060002090600302016000909190919091506000820151816000019080519060200190610de1929190611156565b506020820151816001015560408201518160020160006101000a81548163ffffffff021916908363ffffffff16021790555060608201518160020160046101000a81548163ffffffff021916908363ffffffff16021790555060808201518160020160086101000a81548161ffff021916908361ffff16021790555060a082015181600201600a6101000a81548161ffff021916908361ffff160217905550505060006001600480549050610e969190611baf565b9050336005600083815260200190815260200160002060006101000a81548173ffffffffffffffffffffffffffffffffffffffff021916908373ffffffffffffffffffffffffffffffffffffffff160217905550600660003373ffffffffffffffffffffffffffffffffffffffff1673ffffffffffffffffffffffffffffffffffffffff1681526020019081526020016000206000815480929190610f3a9061199e565b91905055507ff815b0f555f1a0faf740ff42a7285835d1e31c8a266d8f0b5c0451049f833cdb818484604051610f7293929190611be3565b60405180910390a1505050565b600073ffffffffffffffffffffffffffffffffffffffff168173ffffffffffffffffffffffffffffffffffffffff161415610fb957600080fd5b8073ffffffffffffffffffffffffffffffffffffffff1660008054906101000a900473ffffffffffffffffffffffffffffffffffffffff1673ffffffffffffffffffffffffffffffffffffffff167f8be0079c531659141344cd1fd0a4f28419497f9722a3daafe3b4186f6b6457e060405160405180910390a3806000806101000a81548173ffffffffffffffffffffffffffffffffffffffff021916908373ffffffffffffffffffffffffffffffffffffffff16021790555050565b6000428260020160049054906101000a900463ffffffff1663ffffffff1611159050919050565b600354426110ab9190611ad5565b8160020160046101000a81548163ffffffff021916908363ffffffff16021790555050565b8280546110dc90611a43565b90600052602060002090601f0160209004810192826110fe5760008555611145565b82601f1061111757803560ff1916838001178555611145565b82800160010185558215611145579182015b82811115611144578235825591602001919060010190611129565b5b50905061115291906111dc565b5090565b82805461116290611a43565b90600052602060002090601f01602090048101928261118457600085556111cb565b82601f1061119d57805160ff19168380011785556111cb565b828001600101855582156111cb579182015b828111156111ca5782518255916020019190600101906111af565b5b5090506111d891906111dc565b5090565b5b808211156111f55760008160009055506001016111dd565b5090565b6000604051905090565b600080fd5b600080fd5b6000819050919050565b6112208161120d565b811461122b57600080fd5b50565b60008135905061123d81611217565b92915050565b6000806040838503121561125a57611259611203565b5b60006112688582860161122e565b92505060206112798582860161122e565b9150509250929050565b60006020828403121561129957611298611203565b5b60006112a78482850161122e565b91505092915050565b600073ffffffffffffffffffffffffffffffffffffffff82169050919050565b60006112db826112b0565b9050919050565b6112eb816112d0565b82525050565b600060208201905061130660008301846112e2565b92915050565b600080fd5b600080fd5b6000601f19601f8301169050919050565b7f4e487b7100000000000000000000000000000000000000000000000000000000600052604160045260246000fd5b61135f82611316565b810181811067ffffffffffffffff8211171561137e5761137d611327565b5b80604052505050565b60006113916111f9565b905061139d8282611356565b919050565b600067ffffffffffffffff8211156113bd576113bc611327565b5b6113c682611316565b9050602081019050919050565b82818337600083830152505050565b60006113f56113f0846113a2565b611387565b90508281526020810184848401111561141157611410611311565b5b61141c8482856113d3565b509392505050565b600082601f8301126114395761143861130c565b5b81356114498482602086016113e2565b91505092915050565b60006020828403121561146857611467611203565b5b600082013567ffffffffffffffff81111561148657611485611208565b5b61149284828501611424565b91505092915050565b6114a4816112d0565b81146114af57600080fd5b50565b6000813590506114c18161149b565b92915050565b6000602082840312156114dd576114dc611203565b5b60006114eb848285016114b2565b91505092915050565b600081519050919050565b600082825260208201905092915050565b6000819050602082019050919050565b6115298161120d565b82525050565b600061153b8383611520565b60208301905092915050565b6000602082019050919050565b600061155f826114f4565b61156981856114ff565b935061157483611510565b8060005b838110156115a557815161158c888261152f565b975061159783611547565b925050600181019050611578565b5085935050505092915050565b600060208201905081810360008301526115cc8184611554565b905092915050565b60008115159050919050565b6115e9816115d4565b82525050565b600060208201905061160460008301846115e0565b92915050565b600081519050919050565b600082825260208201905092915050565b60005b83811015611644578082015181840152602081019050611629565b83811115611653576000848401525b50505050565b60006116648261160a565b61166e8185611615565b935061167e818560208601611626565b61168781611316565b840191505092915050565b61169b8161120d565b82525050565b600063ffffffff82169050919050565b6116ba816116a1565b82525050565b600061ffff82169050919050565b6116d7816116c0565b82525050565b600060c08201905081810360008301526116f78189611659565b90506117066020830188611692565b61171360408301876116b1565b61172060608301866116b1565b61172d60808301856116ce565b61173a60a08301846116ce565b979650505050505050565b600080fd5b600080fd5b60008083601f8401126117655761176461130c565b5b8235905067ffffffffffffffff81111561178257611781611745565b5b60208301915083600182028301111561179e5761179d61174a565b5b9250929050565b6000806000604084860312156117be576117bd611203565b5b60006117cc8682870161122e565b935050602084013567ffffffffffffffff8111156117ed576117ec611208565b5b6117f98682870161174f565b92509250509250925092565b600060208201905061181a6000830184611692565b92915050565b611829816115d4565b811461183457600080fd5b50565b60008151905061184681611820565b92915050565b60008151905061185b81611217565b92915050565b6000806000806000806000806000806101408b8d03121561188557611884611203565b5b60006118938d828e01611837565b9a505060206118a48d828e01611837565b99505060406118b58d828e0161184c565b98505060606118c68d828e0161184c565b97505060806118d78d828e0161184c565b96505060a06118e88d828e0161184c565b95505060c06118f98d828e0161184c565b94505060e061190a8d828e0161184c565b93505061010061191c8d828e0161184c565b92505061012061192e8d828e0161184c565b9150509295989b9194979a5092959850565b7f4e487b7100000000000000000000000000000000000000000000000000000000600052603260045260246000fd5b7f4e487b7100000000000000000000000000000000000000000000000000000000600052601160045260246000fd5b60006119a98261120d565b91507fffffffffffffffffffffffffffffffffffffffffffffffffffffffffffffffff8214156119dc576119db61196f565b5b600182019050919050565b60006119f2826116a1565b915063ffffffff821415611a0957611a0861196f565b5b600182019050919050565b7f4e487b7100000000000000000000000000000000000000000000000000000000600052602260045260246000fd5b60006002820490506001821680611a5b57607f821691505b60208210811415611a6f57611a6e611a14565b5b50919050565b7f4e487b7100000000000000000000000000000000000000000000000000000000600052601260045260246000fd5b6000611aaf8261120d565b9150611aba8361120d565b925082611aca57611ac9611a75565b5b828206905092915050565b6000611ae08261120d565b9150611aeb8361120d565b9250827fffffffffffffffffffffffffffffffffffffffffffffffffffffffffffffffff03821115611b2057611b1f61196f565b5b828201905092915050565b6000611b368261120d565b9150611b418361120d565b925082611b5157611b50611a75565b5b828204905092915050565b600081905092915050565b6000611b728261160a565b611b7c8185611b5c565b9350611b8c818560208601611626565b80840191505092915050565b6000611ba48284611b67565b915081905092915050565b6000611bba8261120d565b9150611bc58361120d565b925082821015611bd857611bd761196f565b5b828203905092915050565b6000606082019050611bf86000830186611692565b8181036020830152611c0a8185611659565b9050611c196040830184611692565b94935050505056fea264697066735822122092d8358eb9044bd80ad0803ce51d9b58f5106b9557cc315cc2a9e2b60b1219b164736f6c634300080a0033",
  "immutableReferences": {},
  "source": "pragma solidity ^0.8.0;\r\n\r\nimport \"./carOvertake.sol\";\r\n\r\ncontract CarHelper is CarOvertaking{\r\n\r\n    uint overtakeFee = 0.001 ether;\r\n\r\n    modifier ratingRequire(uint _rating,uint _id){\r\n        require(cars[_id].rating >= _rating);\r\n        _;\r\n    }\r\n    function withdraw() external onlyOwner {\r\n        address  payable _owner = payable(address(uint160(owner())));\r\n        _owner.transfer(address(this).balance);\r\n    }\r\n    function setOvertakeFee(uint _fee)external onlyOwner{\r\n        overtakeFee = _fee;\r\n    }\r\n    function overtake(uint _id) external payable{\r\n        require(msg.value == overtakeFee);\r\n        cars[_id].rating++;\r\n    }\r\n    function modifyName(uint _id, string calldata _Name) external ratingRequire(3, _id) justOwnerOf(_id){\r\n    cars[_id].name = _Name;\r\n    }\r\n    function modifyVin(uint _id, uint _Vin) external ratingRequire(20, _id) justOwnerOf(_id) {\r\n    cars[_id].vin = _Vin;\r\n    }\r\n\r\n    function CarsByOwner(address _owner) external view returns(uint[] memory){\r\n        uint[] memory garage = new uint[](ownerCarsNo[_owner]);\r\n        \r\n        uint cnt = 0;\r\n        for(uint i=0;i<cars.length;i++){\r\n            if(carToOwner[i]==_owner){\r\n                garage[cnt]=i;\r\n                cnt++;\r\n            }\r\n        }\r\n        return garage;\r\n    }\r\n}",
  "sourcePath": "C:\\Users\\prafa\\Desktop\\cripto\\cars_project\\contracts\\carhelper.sol",
  "compiler": {
    "name": "solc",
    "version": "0.8.10+commit.fc410830.Emscripten.clang"
  },
  "schemaVersion": "3.4.3",
  "updatedAt": "2022-04-16T19:38:30.584Z",
  "devdoc": {
    "kind": "dev",
    "methods": {
      "isOwner()": {
        "returns": {
          "_0": "true if `msg.sender` is the owner of the contract."
        }
      },
      "owner()": {
        "returns": {
          "_0": "the address of the owner."
        }
      },
      "renounceOwnership()": {
        "details": "Allows the current owner to relinquish control of the contract."
      },
      "transferOwnership(address)": {
        "details": "Allows the current owner to transfer control of the contract to a newOwner.",
        "params": {
          "newOwner": "The address to transfer ownership to."
        }
      }
    },
    "version": 1
  },
  "userdoc": {
    "kind": "user",
    "methods": {
      "renounceOwnership()": {
        "notice": "Renouncing to ownership will leave the contract without an owner. It will not be possible to call the functions with the `onlyOwner` modifier anymore."
      }
    },
    "version": 1
  }
}