{
  "contractName": "CarHelper",
  "abi": [
    {
      "anonymous": false,
      "inputs": [
        {
          "indexed": true,
          "internalType": "address",
          "name": "previousOwner",
          "type": "address"
        },
        {
          "indexed": true,
          "internalType": "address",
          "name": "newOwner",
          "type": "address"
        }
      ],
      "name": "OwnershipTransferred",
      "type": "event"
    },
    {
      "anonymous": false,
      "inputs": [
        {
          "indexed": false,
          "internalType": "uint256",
          "name": "id",
          "type": "uint256"
        },
        {
          "indexed": false,
          "internalType": "string",
          "name": "name",
          "type": "string"
        },
        {
          "indexed": false,
          "internalType": "uint256",
          "name": "vin",
          "type": "uint256"
        }
      ],
      "name": "newCar",
      "type": "event"
    },
    {
      "inputs": [
        {
          "internalType": "string",
          "name": "_name",
          "type": "string"
        }
      ],
      "name": "_randVin2",
      "outputs": [
        {
          "internalType": "uint256",
          "name": "",
          "type": "uint256"
        }
      ],
      "stateMutability": "view",
      "type": "function"
    },
    {
      "inputs": [
        {
          "internalType": "uint256",
          "name": "",
          "type": "uint256"
        }
      ],
      "name": "carToOwner",
      "outputs": [
        {
          "internalType": "address",
          "name": "",
          "type": "address"
        }
      ],
      "stateMutability": "view",
      "type": "function"
    },
    {
      "inputs": [
        {
          "internalType": "uint256",
          "name": "",
          "type": "uint256"
        }
      ],
      "name": "cars",
      "outputs": [
        {
          "internalType": "string",
          "name": "name",
          "type": "string"
        },
        {
          "internalType": "uint256",
          "name": "vin",
          "type": "uint256"
        },
        {
          "internalType": "uint32",
          "name": "rating",
          "type": "uint32"
        },
        {
          "internalType": "uint32",
          "name": "pitTime",
          "type": "uint32"
        },
        {
          "internalType": "uint16",
          "name": "winCnt",
          "type": "uint16"
        },
        {
          "internalType": "uint16",
          "name": "lossCnt",
          "type": "uint16"
        }
      ],
      "stateMutability": "view",
      "type": "function"
    },
    {
      "inputs": [
        {
          "internalType": "string",
          "name": "_name",
          "type": "string"
        }
      ],
      "name": "createRandCar",
      "outputs": [],
      "stateMutability": "nonpayable",
      "type": "function"
    },
    {
      "inputs": [],
      "name": "isOwner",
      "outputs": [
        {
          "internalType": "bool",
          "name": "",
          "type": "bool"
        }
      ],
      "stateMutability": "view",
      "type": "function"
    },
    {
      "inputs": [
        {
          "internalType": "uint256",
          "name": "_id",
          "type": "uint256"
        },
        {
          "internalType": "uint256",
          "name": "_ckId",
          "type": "uint256"
        }
      ],
      "name": "overtakeCK",
      "outputs": [],
      "stateMutability": "nonpayable",
      "type": "function"
    },
    {
      "inputs": [],
      "name": "owner",
      "outputs": [
        {
          "internalType": "address",
          "name": "",
          "type": "address"
        }
      ],
      "stateMutability": "view",
      "type": "function"
    },
    {
      "inputs": [],
      "name": "renounceOwnership",
      "outputs": [],
      "stateMutability": "nonpayable",
      "type": "function"
    },
    {
      "inputs": [
        {
          "internalType": "address",
          "name": "_address",
          "type": "address"
        }
      ],
      "name": "setCkContractAddress",
      "outputs": [],
      "stateMutability": "nonpayable",
      "type": "function"
    },
    {
      "inputs": [
        {
          "internalType": "address",
          "name": "newOwner",
          "type": "address"
        }
      ],
      "name": "transferOwnership",
      "outputs": [],
      "stateMutability": "nonpayable",
      "type": "function"
    },
    {
      "inputs": [],
      "name": "withdraw",
      "outputs": [],
      "stateMutability": "nonpayable",
      "type": "function"
    },
    {
      "inputs": [
        {
          "internalType": "uint256",
          "name": "_fee",
          "type": "uint256"
        }
      ],
      "name": "setOvertakeFee",
      "outputs": [],
      "stateMutability": "nonpayable",
      "type": "function"
    },
    {
      "inputs": [
        {
          "internalType": "uint256",
          "name": "_id",
          "type": "uint256"
        }
      ],
      "name": "overtake",
      "outputs": [],
      "stateMutability": "payable",
      "type": "function"
    },
    {
      "inputs": [
        {
          "internalType": "uint256",
          "name": "_id",
          "type": "uint256"
        },
        {
          "internalType": "string",
          "name": "_Name",
          "type": "string"
        }
      ],
      "name": "modifyName",
      "outputs": [],
      "stateMutability": "nonpayable",
      "type": "function"
    },
    {
      "inputs": [
        {
          "internalType": "uint256",
          "name": "_id",
          "type": "uint256"
        },
        {
          "internalType": "uint256",
          "name": "_Vin",
          "type": "uint256"
        }
      ],
      "name": "modifyVin",
      "outputs": [],
      "stateMutability": "nonpayable",
      "type": "function"
    },
    {
      "inputs": [
        {
          "internalType": "address",
          "name": "_owner",
          "type": "address"
        }
      ],
      "name": "CarsByOwner",
      "outputs": [
        {
          "internalType": "uint256[]",
          "name": "",
          "type": "uint256[]"
        }
      ],
      "stateMutability": "view",
      "type": "function"
    }
  ],
  "bytecode": "0x60806040526010600155600154600a6200001a919062000289565b600255614650600355655af3107a40006008553480156200003a57600080fd5b50336000806101000a81548173ffffffffffffffffffffffffffffffffffffffff021916908373ffffffffffffffffffffffffffffffffffffffff16021790555060008054906101000a900473ffffffffffffffffffffffffffffffffffffffff1673ffffffffffffffffffffffffffffffffffffffff16600073ffffffffffffffffffffffffffffffffffffffff167f8be0079c531659141344cd1fd0a4f28419497f9722a3daafe3b4186f6b6457e060405160405180910390a3620002da565b7f4e487b7100000000000000000000000000000000000000000000000000000000600052601160045260246000fd5b60008160011c9050919050565b6000808291508390505b60018511156200018a57808604811115620001625762000161620000fc565b5b6001851615620001725780820291505b808102905062000182856200012b565b945062000142565b94509492505050565b600082620001a5576001905062000278565b81620001b5576000905062000278565b8160018114620001ce5760028114620001d9576200020f565b600191505062000278565b60ff841115620001ee57620001ed620000fc565b5b8360020a915084821115620002085762000207620000fc565b5b5062000278565b5060208310610133831016604e8410600b8410161715620002495782820a905083811115620002435762000242620000fc565b5b62000278565b62000258848484600162000138565b92509050818404811115620002725762000271620000fc565b5b81810290505b9392505050565b6000819050919050565b600062000296826200027f565b9150620002a3836200027f565b9250620002d27fffffffffffffffffffffffffffffffffffffffffffffffffffffffffffffffff848462000193565b905092915050565b611ce480620002ea6000396000f3fe6080604052600436106100f35760003560e01c80638f32d59b1161008a578063cd5fecc311610059578063cd5fecc3146102df578063f2fde38b1461031c578063f7746e3614610345578063f93968b614610387576100f3565b80638f32d59b14610246578063aa7ac57d14610271578063b300dacb1461029a578063ccf502e0146102b6576100f3565b8063574eea4c116100c6578063574eea4c1461019e5780636a877b75146101db578063715018a6146102045780638da5cb5b1461021b576100f3565b8063083896b8146100f857806333ca504b146101215780633ccfd60b1461015e578063432849c114610175575b600080fd5b34801561010457600080fd5b5061011f600480360381019061011a91906112d0565b6103b0565b005b34801561012d57600080fd5b5061014860048036038101906101439190611310565b610498565b604051610155919061137e565b60405180910390f35b34801561016a57600080fd5b506101736104cb565b005b34801561018157600080fd5b5061019c600480360381019061019791906114df565b610532565b005b3480156101aa57600080fd5b506101c560048036038101906101c09190611554565b610599565b6040516101d2919061163f565b60405180910390f35b3480156101e757600080fd5b5061020260048036038101906101fd9190611310565b6106ec565b005b34801561021057600080fd5b50610219610707565b005b34801561022757600080fd5b506102306107d6565b60405161023d919061137e565b60405180910390f35b34801561025257600080fd5b5061025b6107ff565b604051610268919061167c565b60405180910390f35b34801561027d57600080fd5b50610298600480360381019061029391906112d0565b610856565b005b6102b460048036038101906102af9190611310565b61093e565b005b3480156102c257600080fd5b506102dd60048036038101906102d89190611554565b6109b3565b005b3480156102eb57600080fd5b50610306600480360381019061030191906114df565b610a08565b60405161031391906116a6565b60405180910390f35b34801561032857600080fd5b50610343600480360381019061033e9190611554565b610a4d565b005b34801561035157600080fd5b5061036c60048036038101906103679190611310565b610a6a565b60405161037e96959493929190611785565b60405180910390f35b34801561039357600080fd5b506103ae60048036038101906103a9919061184d565b610b7a565b005b6000600760009054906101000a900473ffffffffffffffffffffffffffffffffffffffff1673ffffffffffffffffffffffffffffffffffffffff1663e98b7f4d836040518263ffffffff1660e01b815260040161040d91906116a6565b61014060405180830381865afa15801561042b573d6000803e3d6000fd5b505050506040513d601f19601f8201168201806040525081019061044f91906118ee565b909192939495969798509091929394959697509091929394959650909192939495509091929394509091929350909192509091509050809150506104938382610c6e565b505050565b60056020528060005260406000206000915054906101000a900473ffffffffffffffffffffffffffffffffffffffff1681565b6104d36107ff565b6104dc57600080fd5b60006104e66107d6565b90508073ffffffffffffffffffffffffffffffffffffffff166108fc479081150290604051600060405180830381858888f1935050505015801561052e573d6000803e3d6000fd5b5050565b6000600660003373ffffffffffffffffffffffffffffffffffffffff1673ffffffffffffffffffffffffffffffffffffffff168152602001908152602001600020541461057e57600080fd5b600061058982610d91565b90506105958282610dd6565b5050565b60606000600660008473ffffffffffffffffffffffffffffffffffffffff1673ffffffffffffffffffffffffffffffffffffffff1681526020019081526020016000205467ffffffffffffffff8111156105f6576105f56113b4565b5b6040519080825280602002602001820160405280156106245781602001602082028036833780820191505090505b5090506000805b6004805490508110156106e1578473ffffffffffffffffffffffffffffffffffffffff166005600083815260200190815260200160002060009054906101000a900473ffffffffffffffffffffffffffffffffffffffff1673ffffffffffffffffffffffffffffffffffffffff1614156106ce57808383815181106106b3576106b26119cd565b5b60200260200101818152505081806106ca90611a2b565b9250505b80806106d990611a2b565b91505061062b565b508192505050919050565b6106f46107ff565b6106fd57600080fd5b8060088190555050565b61070f6107ff565b61071857600080fd5b600073ffffffffffffffffffffffffffffffffffffffff1660008054906101000a900473ffffffffffffffffffffffffffffffffffffffff1673ffffffffffffffffffffffffffffffffffffffff167f8be0079c531659141344cd1fd0a4f28419497f9722a3daafe3b4186f6b6457e060405160405180910390a360008060006101000a81548173ffffffffffffffffffffffffffffffffffffffff021916908373ffffffffffffffffffffffffffffffffffffffff160217905550565b60008060009054906101000a900473ffffffffffffffffffffffffffffffffffffffff16905090565b60008060009054906101000a900473ffffffffffffffffffffffffffffffffffffffff1673ffffffffffffffffffffffffffffffffffffffff163373ffffffffffffffffffffffffffffffffffffffff1614905090565b601482816004828154811061086e5761086d6119cd565b5b906000526020600020906003020160020160009054906101000a900463ffffffff1663ffffffff1610156108a157600080fd5b836005600082815260200190815260200160002060009054906101000a900473ffffffffffffffffffffffffffffffffffffffff1673ffffffffffffffffffffffffffffffffffffffff163373ffffffffffffffffffffffffffffffffffffffff161461090d57600080fd5b8360048681548110610922576109216119cd565b5b9060005260206000209060030201600101819055505050505050565b600854341461094c57600080fd5b600481815481106109605761095f6119cd565b5b9060005260206000209060030201600201600081819054906101000a900463ffffffff168092919061099190611a74565b91906101000a81548163ffffffff021916908363ffffffff1602179055505050565b6109bb6107ff565b6109c457600080fd5b80600760006101000a81548173ffffffffffffffffffffffffffffffffffffffff021916908373ffffffffffffffffffffffffffffffffffffffff16021790555050565b60008082604051602001610a1c9190611add565b6040516020818303038152906040528051906020012060001c905060025481610a459190611b23565b915050919050565b610a556107ff565b610a5e57600080fd5b610a678161100c565b50565b60048181548110610a7a57600080fd5b9060005260206000209060030201600091509050806000018054610a9d90611b83565b80601f0160208091040260200160405190810160405280929190818152602001828054610ac990611b83565b8015610b165780601f10610aeb57610100808354040283529160200191610b16565b820191906000526020600020905b815481529060010190602001808311610af957829003601f168201915b5050505050908060010154908060020160009054906101000a900463ffffffff16908060020160049054906101000a900463ffffffff16908060020160089054906101000a900461ffff169080600201600a9054906101000a900461ffff16905086565b6003838160048281548110610b9257610b916119cd565b5b906000526020600020906003020160020160009054906101000a900463ffffffff1663ffffffff161015610bc557600080fd5b846005600082815260200190815260200160002060009054906101000a900473ffffffffffffffffffffffffffffffffffffffff1673ffffffffffffffffffffffffffffffffffffffff163373ffffffffffffffffffffffffffffffffffffffff1614610c3157600080fd5b848460048881548110610c4757610c466119cd565b5b90600052602060002090600302016000019190610c6592919061115d565b50505050505050565b816005600082815260200190815260200160002060009054906101000a900473ffffffffffffffffffffffffffffffffffffffff1673ffffffffffffffffffffffffffffffffffffffff163373ffffffffffffffffffffffffffffffffffffffff1614610cda57600080fd5b600060048481548110610cf057610cef6119cd565b5b90600052602060002090600302019050610d0981611103565b610d1257600080fd5b60025483610d209190611b23565b925060006002848360010154610d369190611bb5565b610d409190611c0b565b9050610d816040518060400160405280600681526020017f4e6f4e616d65000000000000000000000000000000000000000000000000000081525082610dd6565b610d8a8261112a565b5050505050565b60008082604051602001610da59190611add565b6040516020818303038152906040528051906020012060001c905060025481610dce9190611b23565b915050919050565b60046040518060c00160405280848152602001838152602001600163ffffffff16815260200160035442610e0a9190611bb5565b63ffffffff168152602001600061ffff168152602001600061ffff1681525090806001815401808255809150506001900390600052602060002090600302016000909190919091506000820151816000019080519060200190610e6e9291906111e3565b506020820151816001015560408201518160020160006101000a81548163ffffffff021916908363ffffffff16021790555060608201518160020160046101000a81548163ffffffff021916908363ffffffff16021790555060808201518160020160086101000a81548161ffff021916908361ffff16021790555060a082015181600201600a6101000a81548161ffff021916908361ffff160217905550505060006001600480549050610f239190611c3c565b9050336005600083815260200190815260200160002060006101000a81548173ffffffffffffffffffffffffffffffffffffffff021916908373ffffffffffffffffffffffffffffffffffffffff160217905550600660003373ffffffffffffffffffffffffffffffffffffffff1673ffffffffffffffffffffffffffffffffffffffff1681526020019081526020016000206000815480929190610fc790611a2b565b91905055507ff815b0f555f1a0faf740ff42a7285835d1e31c8a266d8f0b5c0451049f833cdb818484604051610fff93929190611c70565b60405180910390a1505050565b600073ffffffffffffffffffffffffffffffffffffffff168173ffffffffffffffffffffffffffffffffffffffff16141561104657600080fd5b8073ffffffffffffffffffffffffffffffffffffffff1660008054906101000a900473ffffffffffffffffffffffffffffffffffffffff1673ffffffffffffffffffffffffffffffffffffffff167f8be0079c531659141344cd1fd0a4f28419497f9722a3daafe3b4186f6b6457e060405160405180910390a3806000806101000a81548173ffffffffffffffffffffffffffffffffffffffff021916908373ffffffffffffffffffffffffffffffffffffffff16021790555050565b6000428260020160049054906101000a900463ffffffff1663ffffffff1611159050919050565b600354426111389190611bb5565b8160020160046101000a81548163ffffffff021916908363ffffffff16021790555050565b82805461116990611b83565b90600052602060002090601f01602090048101928261118b57600085556111d2565b82601f106111a457803560ff19168380011785556111d2565b828001600101855582156111d2579182015b828111156111d15782358255916020019190600101906111b6565b5b5090506111df9190611269565b5090565b8280546111ef90611b83565b90600052602060002090601f0160209004810192826112115760008555611258565b82601f1061122a57805160ff1916838001178555611258565b82800160010185558215611258579182015b8281111561125757825182559160200191906001019061123c565b5b5090506112659190611269565b5090565b5b8082111561128257600081600090555060010161126a565b5090565b6000604051905090565b600080fd5b600080fd5b6000819050919050565b6112ad8161129a565b81146112b857600080fd5b50565b6000813590506112ca816112a4565b92915050565b600080604083850312156112e7576112e6611290565b5b60006112f5858286016112bb565b9250506020611306858286016112bb565b9150509250929050565b60006020828403121561132657611325611290565b5b6000611334848285016112bb565b91505092915050565b600073ffffffffffffffffffffffffffffffffffffffff82169050919050565b60006113688261133d565b9050919050565b6113788161135d565b82525050565b6000602082019050611393600083018461136f565b92915050565b600080fd5b600080fd5b6000601f19601f8301169050919050565b7f4e487b7100000000000000000000000000000000000000000000000000000000600052604160045260246000fd5b6113ec826113a3565b810181811067ffffffffffffffff8211171561140b5761140a6113b4565b5b80604052505050565b600061141e611286565b905061142a82826113e3565b919050565b600067ffffffffffffffff82111561144a576114496113b4565b5b611453826113a3565b9050602081019050919050565b82818337600083830152505050565b600061148261147d8461142f565b611414565b90508281526020810184848401111561149e5761149d61139e565b5b6114a9848285611460565b509392505050565b600082601f8301126114c6576114c5611399565b5b81356114d684826020860161146f565b91505092915050565b6000602082840312156114f5576114f4611290565b5b600082013567ffffffffffffffff81111561151357611512611295565b5b61151f848285016114b1565b91505092915050565b6115318161135d565b811461153c57600080fd5b50565b60008135905061154e81611528565b92915050565b60006020828403121561156a57611569611290565b5b60006115788482850161153f565b91505092915050565b600081519050919050565b600082825260208201905092915050565b6000819050602082019050919050565b6115b68161129a565b82525050565b60006115c883836115ad565b60208301905092915050565b6000602082019050919050565b60006115ec82611581565b6115f6818561158c565b93506116018361159d565b8060005b8381101561163257815161161988826115bc565b9750611624836115d4565b925050600181019050611605565b5085935050505092915050565b6000602082019050818103600083015261165981846115e1565b905092915050565b60008115159050919050565b61167681611661565b82525050565b6000602082019050611691600083018461166d565b92915050565b6116a08161129a565b82525050565b60006020820190506116bb6000830184611697565b92915050565b600081519050919050565b600082825260208201905092915050565b60005b838110156116fb5780820151818401526020810190506116e0565b8381111561170a576000848401525b50505050565b600061171b826116c1565b61172581856116cc565b93506117358185602086016116dd565b61173e816113a3565b840191505092915050565b600063ffffffff82169050919050565b61176281611749565b82525050565b600061ffff82169050919050565b61177f81611768565b82525050565b600060c082019050818103600083015261179f8189611710565b90506117ae6020830188611697565b6117bb6040830187611759565b6117c86060830186611759565b6117d56080830185611776565b6117e260a0830184611776565b979650505050505050565b600080fd5b600080fd5b60008083601f84011261180d5761180c611399565b5b8235905067ffffffffffffffff81111561182a576118296117ed565b5b602083019150836001820283011115611846576118456117f2565b5b9250929050565b60008060006040848603121561186657611865611290565b5b6000611874868287016112bb565b935050602084013567ffffffffffffffff81111561189557611894611295565b5b6118a1868287016117f7565b92509250509250925092565b6118b681611661565b81146118c157600080fd5b50565b6000815190506118d3816118ad565b92915050565b6000815190506118e8816112a4565b92915050565b6000806000806000806000806000806101408b8d03121561191257611911611290565b5b60006119208d828e016118c4565b9a505060206119318d828e016118c4565b99505060406119428d828e016118d9565b98505060606119538d828e016118d9565b97505060806119648d828e016118d9565b96505060a06119758d828e016118d9565b95505060c06119868d828e016118d9565b94505060e06119978d828e016118d9565b9350506101006119a98d828e016118d9565b9250506101206119bb8d828e016118d9565b9150509295989b9194979a5092959850565b7f4e487b7100000000000000000000000000000000000000000000000000000000600052603260045260246000fd5b7f4e487b7100000000000000000000000000000000000000000000000000000000600052601160045260246000fd5b6000611a368261129a565b91507fffffffffffffffffffffffffffffffffffffffffffffffffffffffffffffffff821415611a6957611a686119fc565b5b600182019050919050565b6000611a7f82611749565b915063ffffffff821415611a9657611a956119fc565b5b600182019050919050565b600081905092915050565b6000611ab7826116c1565b611ac18185611aa1565b9350611ad18185602086016116dd565b80840191505092915050565b6000611ae98284611aac565b915081905092915050565b7f4e487b7100000000000000000000000000000000000000000000000000000000600052601260045260246000fd5b6000611b2e8261129a565b9150611b398361129a565b925082611b4957611b48611af4565b5b828206905092915050565b7f4e487b7100000000000000000000000000000000000000000000000000000000600052602260045260246000fd5b60006002820490506001821680611b9b57607f821691505b60208210811415611baf57611bae611b54565b5b50919050565b6000611bc08261129a565b9150611bcb8361129a565b9250827fffffffffffffffffffffffffffffffffffffffffffffffffffffffffffffffff03821115611c0057611bff6119fc565b5b828201905092915050565b6000611c168261129a565b9150611c218361129a565b925082611c3157611c30611af4565b5b828204905092915050565b6000611c478261129a565b9150611c528361129a565b925082821015611c6557611c646119fc565b5b828203905092915050565b6000606082019050611c856000830186611697565b8181036020830152611c978185611710565b9050611ca66040830184611697565b94935050505056fea2646970667358221220ffb58283b5b4831b853558f06843cb2bc6f4be317e02dc6b60361f288b4df52864736f6c634300080a0033",
  "immutableReferences": {},
  "source": "pragma solidity ^0.8.0;\r\n\r\nimport \"./carOvertake.sol\";\r\n\r\ncontract CarHelper is CarOvertaking{\r\n\r\n    uint overtakeFee = 0.0001 ether;\r\n\r\n    modifier ratingRequire(uint _rating,uint _id){\r\n        require(cars[_id].rating >= _rating);\r\n        _;\r\n    }\r\n    function withdraw() external onlyOwner {\r\n        address  payable _owner = payable(address(uint160(owner())));\r\n        _owner.transfer(address(this).balance);\r\n    }\r\n    function setOvertakeFee(uint _fee)external onlyOwner{\r\n        overtakeFee = _fee;\r\n    }\r\n    function overtake(uint _id) external payable{\r\n        require(msg.value == overtakeFee);\r\n        cars[_id].rating++;\r\n    }\r\n    function modifyName(uint _id, string calldata _Name) external ratingRequire(3, _id) justOwnerOf(_id){\r\n    cars[_id].name = _Name;\r\n    }\r\n    function modifyVin(uint _id, uint _Vin) external ratingRequire(20, _id) justOwnerOf(_id) {\r\n    cars[_id].vin = _Vin;\r\n    }\r\n\r\n    function CarsByOwner(address _owner) external view returns(uint[] memory){\r\n        uint[] memory garage = new uint[](ownerCarsNo[_owner]);\r\n        \r\n        uint cnt = 0;\r\n        for(uint i=0;i<cars.length;i++){\r\n            if(carToOwner[i]==_owner){\r\n                garage[cnt]=i;\r\n                cnt++;\r\n            }\r\n        }\r\n        return garage;\r\n    }\r\n}",
  "sourcePath": "C:\\Users\\prafa\\Desktop\\cripto\\cars_project\\contracts\\carhelper.sol",
  "compiler": {
    "name": "solc",
    "version": "0.8.10+commit.fc410830.Emscripten.clang"
  },
  "schemaVersion": "3.4.3",
  "updatedAt": "2022-04-19T09:52:30.114Z",
  "devdoc": {
    "kind": "dev",
    "methods": {
      "isOwner()": {
        "returns": {
          "_0": "true if `msg.sender` is the owner of the contract."
        }
      },
      "owner()": {
        "returns": {
          "_0": "the address of the owner."
        }
      },
      "renounceOwnership()": {
        "details": "Allows the current owner to relinquish control of the contract."
      },
      "transferOwnership(address)": {
        "details": "Allows the current owner to transfer control of the contract to a newOwner.",
        "params": {
          "newOwner": "The address to transfer ownership to."
        }
      }
    },
    "version": 1
  },
  "userdoc": {
    "kind": "user",
    "methods": {
      "renounceOwnership()": {
        "notice": "Renouncing to ownership will leave the contract without an owner. It will not be possible to call the functions with the `onlyOwner` modifier anymore."
      }
    },
    "version": 1
  }
}