{
  "contractName": "CarMaker",
  "abi": [
    {
      "anonymous": false,
      "inputs": [
        {
          "indexed": true,
          "internalType": "address",
          "name": "previousOwner",
          "type": "address"
        },
        {
          "indexed": true,
          "internalType": "address",
          "name": "newOwner",
          "type": "address"
        }
      ],
      "name": "OwnershipTransferred",
      "type": "event"
    },
    {
      "anonymous": false,
      "inputs": [
        {
          "indexed": false,
          "internalType": "uint256",
          "name": "id",
          "type": "uint256"
        },
        {
          "indexed": false,
          "internalType": "string",
          "name": "name",
          "type": "string"
        },
        {
          "indexed": false,
          "internalType": "uint256",
          "name": "vin",
          "type": "uint256"
        }
      ],
      "name": "newCar",
      "type": "event"
    },
    {
      "inputs": [
        {
          "internalType": "uint256",
          "name": "",
          "type": "uint256"
        }
      ],
      "name": "carToOwner",
      "outputs": [
        {
          "internalType": "address",
          "name": "",
          "type": "address"
        }
      ],
      "stateMutability": "view",
      "type": "function"
    },
    {
      "inputs": [
        {
          "internalType": "uint256",
          "name": "",
          "type": "uint256"
        }
      ],
      "name": "cars",
      "outputs": [
        {
          "internalType": "string",
          "name": "name",
          "type": "string"
        },
        {
          "internalType": "uint256",
          "name": "vin",
          "type": "uint256"
        },
        {
          "internalType": "uint32",
          "name": "rating",
          "type": "uint32"
        },
        {
          "internalType": "uint32",
          "name": "pitTime",
          "type": "uint32"
        },
        {
          "internalType": "uint16",
          "name": "winCnt",
          "type": "uint16"
        },
        {
          "internalType": "uint16",
          "name": "lossCnt",
          "type": "uint16"
        }
      ],
      "stateMutability": "view",
      "type": "function"
    },
    {
      "inputs": [],
      "name": "isOwner",
      "outputs": [
        {
          "internalType": "bool",
          "name": "",
          "type": "bool"
        }
      ],
      "stateMutability": "view",
      "type": "function"
    },
    {
      "inputs": [],
      "name": "owner",
      "outputs": [
        {
          "internalType": "address",
          "name": "",
          "type": "address"
        }
      ],
      "stateMutability": "view",
      "type": "function"
    },
    {
      "inputs": [],
      "name": "renounceOwnership",
      "outputs": [],
      "stateMutability": "nonpayable",
      "type": "function"
    },
    {
      "inputs": [
        {
          "internalType": "address",
          "name": "newOwner",
          "type": "address"
        }
      ],
      "name": "transferOwnership",
      "outputs": [],
      "stateMutability": "nonpayable",
      "type": "function"
    },
    {
      "inputs": [
        {
          "internalType": "string",
          "name": "_name",
          "type": "string"
        }
      ],
      "name": "createRandCar",
      "outputs": [],
      "stateMutability": "nonpayable",
      "type": "function"
    }
  ],
  "bytecode": "0x60806040526010600155600154600a6200001a91906200027f565b6002556146506003553480156200003057600080fd5b50336000806101000a81548173ffffffffffffffffffffffffffffffffffffffff021916908373ffffffffffffffffffffffffffffffffffffffff16021790555060008054906101000a900473ffffffffffffffffffffffffffffffffffffffff1673ffffffffffffffffffffffffffffffffffffffff16600073ffffffffffffffffffffffffffffffffffffffff167f8be0079c531659141344cd1fd0a4f28419497f9722a3daafe3b4186f6b6457e060405160405180910390a3620002d0565b7f4e487b7100000000000000000000000000000000000000000000000000000000600052601160045260246000fd5b60008160011c9050919050565b6000808291508390505b60018511156200018057808604811115620001585762000157620000f2565b5b6001851615620001685780820291505b8081029050620001788562000121565b945062000138565b94509492505050565b6000826200019b57600190506200026e565b81620001ab57600090506200026e565b8160018114620001c45760028114620001cf5762000205565b60019150506200026e565b60ff841115620001e457620001e3620000f2565b5b8360020a915084821115620001fe57620001fd620000f2565b5b506200026e565b5060208310610133831016604e8410600b84101617156200023f5782820a905083811115620002395762000238620000f2565b5b6200026e565b6200024e84848460016200012e565b92509050818404811115620002685762000267620000f2565b5b81810290505b9392505050565b6000819050919050565b60006200028c8262000275565b9150620002998362000275565b9250620002c87fffffffffffffffffffffffffffffffffffffffffffffffffffffffffffffffff848462000189565b905092915050565b610f4680620002e06000396000f3fe608060405234801561001057600080fd5b506004361061007d5760003560e01c80638da5cb5b1161005b5780638da5cb5b146100d85780638f32d59b146100f6578063f2fde38b14610114578063f7746e36146101305761007d565b806333ca504b14610082578063432849c1146100b2578063715018a6146100ce575b600080fd5b61009c600480360381019061009791906108da565b610165565b6040516100a99190610948565b60405180910390f35b6100cc60048036038101906100c79190610aa9565b610198565b005b6100d66101ff565b005b6100e06102ce565b6040516100ed9190610948565b60405180910390f35b6100fe6102f7565b60405161010b9190610b0d565b60405180910390f35b61012e60048036038101906101299190610b54565b61034e565b005b61014a600480360381019061014591906108da565b61036b565b60405161015c96959493929190610c54565b60405180910390f35b60056020528060005260406000206000915054906101000a900473ffffffffffffffffffffffffffffffffffffffff1681565b6000600660003373ffffffffffffffffffffffffffffffffffffffff1673ffffffffffffffffffffffffffffffffffffffff16815260200190815260200160002054146101e457600080fd5b60006101ef8261047b565b90506101fb82826104c0565b5050565b6102076102f7565b61021057600080fd5b600073ffffffffffffffffffffffffffffffffffffffff1660008054906101000a900473ffffffffffffffffffffffffffffffffffffffff1673ffffffffffffffffffffffffffffffffffffffff167f8be0079c531659141344cd1fd0a4f28419497f9722a3daafe3b4186f6b6457e060405160405180910390a360008060006101000a81548173ffffffffffffffffffffffffffffffffffffffff021916908373ffffffffffffffffffffffffffffffffffffffff160217905550565b60008060009054906101000a900473ffffffffffffffffffffffffffffffffffffffff16905090565b60008060009054906101000a900473ffffffffffffffffffffffffffffffffffffffff1673ffffffffffffffffffffffffffffffffffffffff163373ffffffffffffffffffffffffffffffffffffffff1614905090565b6103566102f7565b61035f57600080fd5b610368816106f6565b50565b6004818154811061037b57600080fd5b906000526020600020906003020160009150905080600001805461039e90610ceb565b80601f01602080910402602001604051908101604052809291908181526020018280546103ca90610ceb565b80156104175780601f106103ec57610100808354040283529160200191610417565b820191906000526020600020905b8154815290600101906020018083116103fa57829003601f168201915b5050505050908060010154908060020160009054906101000a900463ffffffff16908060020160049054906101000a900463ffffffff16908060020160089054906101000a900461ffff169080600201600a9054906101000a900461ffff16905086565b6000808260405160200161048f9190610d59565b6040516020818303038152906040528051906020012060001c9050600254816104b89190610d9f565b915050919050565b60046040518060c00160405280848152602001838152602001600163ffffffff168152602001600354426104f49190610dff565b63ffffffff168152602001600061ffff168152602001600061ffff16815250908060018154018082558091505060019003906000526020600020906003020160009091909190915060008201518160000190805190602001906105589291906107ed565b506020820151816001015560408201518160020160006101000a81548163ffffffff021916908363ffffffff16021790555060608201518160020160046101000a81548163ffffffff021916908363ffffffff16021790555060808201518160020160086101000a81548161ffff021916908361ffff16021790555060a082015181600201600a6101000a81548161ffff021916908361ffff16021790555050506000600160048054905061060d9190610e55565b9050336005600083815260200190815260200160002060006101000a81548173ffffffffffffffffffffffffffffffffffffffff021916908373ffffffffffffffffffffffffffffffffffffffff160217905550600660003373ffffffffffffffffffffffffffffffffffffffff1673ffffffffffffffffffffffffffffffffffffffff16815260200190815260200160002060008154809291906106b190610e89565b91905055507ff815b0f555f1a0faf740ff42a7285835d1e31c8a266d8f0b5c0451049f833cdb8184846040516106e993929190610ed2565b60405180910390a1505050565b600073ffffffffffffffffffffffffffffffffffffffff168173ffffffffffffffffffffffffffffffffffffffff16141561073057600080fd5b8073ffffffffffffffffffffffffffffffffffffffff1660008054906101000a900473ffffffffffffffffffffffffffffffffffffffff1673ffffffffffffffffffffffffffffffffffffffff167f8be0079c531659141344cd1fd0a4f28419497f9722a3daafe3b4186f6b6457e060405160405180910390a3806000806101000a81548173ffffffffffffffffffffffffffffffffffffffff021916908373ffffffffffffffffffffffffffffffffffffffff16021790555050565b8280546107f990610ceb565b90600052602060002090601f01602090048101928261081b5760008555610862565b82601f1061083457805160ff1916838001178555610862565b82800160010185558215610862579182015b82811115610861578251825591602001919060010190610846565b5b50905061086f9190610873565b5090565b5b8082111561088c576000816000905550600101610874565b5090565b6000604051905090565b600080fd5b600080fd5b6000819050919050565b6108b7816108a4565b81146108c257600080fd5b50565b6000813590506108d4816108ae565b92915050565b6000602082840312156108f0576108ef61089a565b5b60006108fe848285016108c5565b91505092915050565b600073ffffffffffffffffffffffffffffffffffffffff82169050919050565b600061093282610907565b9050919050565b61094281610927565b82525050565b600060208201905061095d6000830184610939565b92915050565b600080fd5b600080fd5b6000601f19601f8301169050919050565b7f4e487b7100000000000000000000000000000000000000000000000000000000600052604160045260246000fd5b6109b68261096d565b810181811067ffffffffffffffff821117156109d5576109d461097e565b5b80604052505050565b60006109e8610890565b90506109f482826109ad565b919050565b600067ffffffffffffffff821115610a1457610a1361097e565b5b610a1d8261096d565b9050602081019050919050565b82818337600083830152505050565b6000610a4c610a47846109f9565b6109de565b905082815260208101848484011115610a6857610a67610968565b5b610a73848285610a2a565b509392505050565b600082601f830112610a9057610a8f610963565b5b8135610aa0848260208601610a39565b91505092915050565b600060208284031215610abf57610abe61089a565b5b600082013567ffffffffffffffff811115610add57610adc61089f565b5b610ae984828501610a7b565b91505092915050565b60008115159050919050565b610b0781610af2565b82525050565b6000602082019050610b226000830184610afe565b92915050565b610b3181610927565b8114610b3c57600080fd5b50565b600081359050610b4e81610b28565b92915050565b600060208284031215610b6a57610b6961089a565b5b6000610b7884828501610b3f565b91505092915050565b600081519050919050565b600082825260208201905092915050565b60005b83811015610bbb578082015181840152602081019050610ba0565b83811115610bca576000848401525b50505050565b6000610bdb82610b81565b610be58185610b8c565b9350610bf5818560208601610b9d565b610bfe8161096d565b840191505092915050565b610c12816108a4565b82525050565b600063ffffffff82169050919050565b610c3181610c18565b82525050565b600061ffff82169050919050565b610c4e81610c37565b82525050565b600060c0820190508181036000830152610c6e8189610bd0565b9050610c7d6020830188610c09565b610c8a6040830187610c28565b610c976060830186610c28565b610ca46080830185610c45565b610cb160a0830184610c45565b979650505050505050565b7f4e487b7100000000000000000000000000000000000000000000000000000000600052602260045260246000fd5b60006002820490506001821680610d0357607f821691505b60208210811415610d1757610d16610cbc565b5b50919050565b600081905092915050565b6000610d3382610b81565b610d3d8185610d1d565b9350610d4d818560208601610b9d565b80840191505092915050565b6000610d658284610d28565b915081905092915050565b7f4e487b7100000000000000000000000000000000000000000000000000000000600052601260045260246000fd5b6000610daa826108a4565b9150610db5836108a4565b925082610dc557610dc4610d70565b5b828206905092915050565b7f4e487b7100000000000000000000000000000000000000000000000000000000600052601160045260246000fd5b6000610e0a826108a4565b9150610e15836108a4565b9250827fffffffffffffffffffffffffffffffffffffffffffffffffffffffffffffffff03821115610e4a57610e49610dd0565b5b828201905092915050565b6000610e60826108a4565b9150610e6b836108a4565b925082821015610e7e57610e7d610dd0565b5b828203905092915050565b6000610e94826108a4565b91507fffffffffffffffffffffffffffffffffffffffffffffffffffffffffffffffff821415610ec757610ec6610dd0565b5b600182019050919050565b6000606082019050610ee76000830186610c09565b8181036020830152610ef98185610bd0565b9050610f086040830184610c09565b94935050505056fea26469706673582212207e3ca63160539557660ad21269cfb700218efe4511b55cfd24e9c03a715da98064736f6c634300080a0033",
  "immutableReferences": {},
  "source": "pragma solidity ^0.8.0 ;\r\n\r\nimport \"./ownable.sol\";\r\n\r\n//SAFE MATH\r\nimport \"./safemath.sol\";\r\n\r\n//TO DO:\r\n//1.Implement safemath for all ++ / -- \r\n\r\ncontract CarMaker is Ownable{\r\n    //overflow fix\r\n\r\n    uint vin = 16 ;\r\n    uint vinMod = 10 ** vin;\r\n    uint stopTime = 5 hours;\r\n    struct Car{\r\n        string name;\r\n        uint vin;\r\n        uint32 rating;\r\n        uint32  pitTime;\r\n        uint16 winCnt;\r\n        uint16 lossCnt;\r\n    }\r\n\r\n    event newCar(uint id, string name, uint vin);\r\n\r\n    Car[] public cars;\r\n\r\n    mapping(uint => address) public carToOwner;\r\n    mapping(address => uint) ownerCarsNo;\r\n\r\n    function _CarCreate(string memory _name,uint _vin) internal{\r\n        cars.push(Car(_name,_vin,1,uint32(block.timestamp + stopTime),0,0));\r\n        uint id = cars.length-1;\r\n        carToOwner[id] = msg.sender;\r\n        ownerCarsNo[msg.sender] ++;\r\n        emit newCar(id,_name,_vin);\r\n    }\r\n\r\n    function _randVin(string memory _name) private view returns(uint){\r\n        uint randVin = uint(keccak256(abi.encodePacked(_name)));\r\n        return randVin % vinMod;\r\n    }\r\n\r\n    function createRandCar(string memory _name) public{\r\n        require(ownerCarsNo[msg.sender]==0);\r\n        uint randVin = _randVin(_name);\r\n        _CarCreate(_name, randVin);\r\n    }\r\n}\r\n\r\n\r\n",
  "sourcePath": "C:\\Users\\prafa\\Desktop\\cripto\\cars_project\\contracts\\CarMaker.sol",
  "compiler": {
    "name": "solc",
    "version": "0.8.10+commit.fc410830.Emscripten.clang"
  },
  "schemaVersion": "3.4.3",
  "updatedAt": "2022-04-16T19:38:30.510Z",
  "devdoc": {
    "kind": "dev",
    "methods": {
      "isOwner()": {
        "returns": {
          "_0": "true if `msg.sender` is the owner of the contract."
        }
      },
      "owner()": {
        "returns": {
          "_0": "the address of the owner."
        }
      },
      "renounceOwnership()": {
        "details": "Allows the current owner to relinquish control of the contract."
      },
      "transferOwnership(address)": {
        "details": "Allows the current owner to transfer control of the contract to a newOwner.",
        "params": {
          "newOwner": "The address to transfer ownership to."
        }
      }
    },
    "version": 1
  },
  "userdoc": {
    "kind": "user",
    "methods": {
      "renounceOwnership()": {
        "notice": "Renouncing to ownership will leave the contract without an owner. It will not be possible to call the functions with the `onlyOwner` modifier anymore."
      }
    },
    "version": 1
  }
}