{
  "contractName": "CarMaker",
  "abi": [
    {
      "anonymous": false,
      "inputs": [
        {
          "indexed": true,
          "internalType": "address",
          "name": "previousOwner",
          "type": "address"
        },
        {
          "indexed": true,
          "internalType": "address",
          "name": "newOwner",
          "type": "address"
        }
      ],
      "name": "OwnershipTransferred",
      "type": "event"
    },
    {
      "anonymous": false,
      "inputs": [
        {
          "indexed": false,
          "internalType": "uint256",
          "name": "id",
          "type": "uint256"
        },
        {
          "indexed": false,
          "internalType": "string",
          "name": "name",
          "type": "string"
        },
        {
          "indexed": false,
          "internalType": "uint256",
          "name": "vin",
          "type": "uint256"
        }
      ],
      "name": "newCar",
      "type": "event"
    },
    {
      "inputs": [
        {
          "internalType": "uint256",
          "name": "",
          "type": "uint256"
        }
      ],
      "name": "carToOwner",
      "outputs": [
        {
          "internalType": "address",
          "name": "",
          "type": "address"
        }
      ],
      "stateMutability": "view",
      "type": "function"
    },
    {
      "inputs": [
        {
          "internalType": "uint256",
          "name": "",
          "type": "uint256"
        }
      ],
      "name": "cars",
      "outputs": [
        {
          "internalType": "string",
          "name": "name",
          "type": "string"
        },
        {
          "internalType": "uint256",
          "name": "vin",
          "type": "uint256"
        },
        {
          "internalType": "uint32",
          "name": "rating",
          "type": "uint32"
        },
        {
          "internalType": "uint32",
          "name": "pitTime",
          "type": "uint32"
        },
        {
          "internalType": "uint16",
          "name": "winCnt",
          "type": "uint16"
        },
        {
          "internalType": "uint16",
          "name": "lossCnt",
          "type": "uint16"
        }
      ],
      "stateMutability": "view",
      "type": "function"
    },
    {
      "inputs": [],
      "name": "isOwner",
      "outputs": [
        {
          "internalType": "bool",
          "name": "",
          "type": "bool"
        }
      ],
      "stateMutability": "view",
      "type": "function"
    },
    {
      "inputs": [],
      "name": "owner",
      "outputs": [
        {
          "internalType": "address",
          "name": "",
          "type": "address"
        }
      ],
      "stateMutability": "view",
      "type": "function"
    },
    {
      "inputs": [],
      "name": "renounceOwnership",
      "outputs": [],
      "stateMutability": "nonpayable",
      "type": "function"
    },
    {
      "inputs": [
        {
          "internalType": "address",
          "name": "newOwner",
          "type": "address"
        }
      ],
      "name": "transferOwnership",
      "outputs": [],
      "stateMutability": "nonpayable",
      "type": "function"
    },
    {
      "inputs": [
        {
          "internalType": "string",
          "name": "_name",
          "type": "string"
        }
      ],
      "name": "_randVin2",
      "outputs": [
        {
          "internalType": "uint256",
          "name": "",
          "type": "uint256"
        }
      ],
      "stateMutability": "view",
      "type": "function"
    },
    {
      "inputs": [
        {
          "internalType": "string",
          "name": "_name",
          "type": "string"
        }
      ],
      "name": "createRandCar",
      "outputs": [],
      "stateMutability": "nonpayable",
      "type": "function"
    }
  ],
  "bytecode": "0x60806040526010600155600154600a6200001a91906200027f565b6002556146506003553480156200003057600080fd5b50336000806101000a81548173ffffffffffffffffffffffffffffffffffffffff021916908373ffffffffffffffffffffffffffffffffffffffff16021790555060008054906101000a900473ffffffffffffffffffffffffffffffffffffffff1673ffffffffffffffffffffffffffffffffffffffff16600073ffffffffffffffffffffffffffffffffffffffff167f8be0079c531659141344cd1fd0a4f28419497f9722a3daafe3b4186f6b6457e060405160405180910390a3620002d0565b7f4e487b7100000000000000000000000000000000000000000000000000000000600052601160045260246000fd5b60008160011c9050919050565b6000808291508390505b60018511156200018057808604811115620001585762000157620000f2565b5b6001851615620001685780820291505b8081029050620001788562000121565b945062000138565b94509492505050565b6000826200019b57600190506200026e565b81620001ab57600090506200026e565b8160018114620001c45760028114620001cf5762000205565b60019150506200026e565b60ff841115620001e457620001e3620000f2565b5b8360020a915084821115620001fe57620001fd620000f2565b5b506200026e565b5060208310610133831016604e8410600b84101617156200023f5782820a905083811115620002395762000238620000f2565b5b6200026e565b6200024e84848460016200012e565b92509050818404811115620002685762000267620000f2565b5b81810290505b9392505050565b6000819050919050565b60006200028c8262000275565b9150620002998362000275565b9250620002c87fffffffffffffffffffffffffffffffffffffffffffffffffffffffffffffffff848462000189565b905092915050565b610fe180620002e06000396000f3fe608060405234801561001057600080fd5b50600436106100885760003560e01c80638f32d59b1161005b5780638f32d59b14610101578063cd5fecc31461011f578063f2fde38b1461014f578063f7746e361461016b57610088565b806333ca504b1461008d578063432849c1146100bd578063715018a6146100d95780638da5cb5b146100e3575b600080fd5b6100a760048036038101906100a2919061095a565b6101a0565b6040516100b491906109c8565b60405180910390f35b6100d760048036038101906100d29190610b29565b6101d3565b005b6100e161023a565b005b6100eb610309565b6040516100f891906109c8565b60405180910390f35b610109610332565b6040516101169190610b8d565b60405180910390f35b61013960048036038101906101349190610b29565b610389565b6040516101469190610bb7565b60405180910390f35b61016960048036038101906101649190610bfe565b6103ce565b005b6101856004803603810190610180919061095a565b6103eb565b60405161019796959493929190610cef565b60405180910390f35b60056020528060005260406000206000915054906101000a900473ffffffffffffffffffffffffffffffffffffffff1681565b6000600660003373ffffffffffffffffffffffffffffffffffffffff1673ffffffffffffffffffffffffffffffffffffffff168152602001908152602001600020541461021f57600080fd5b600061022a826104fb565b90506102368282610540565b5050565b610242610332565b61024b57600080fd5b600073ffffffffffffffffffffffffffffffffffffffff1660008054906101000a900473ffffffffffffffffffffffffffffffffffffffff1673ffffffffffffffffffffffffffffffffffffffff167f8be0079c531659141344cd1fd0a4f28419497f9722a3daafe3b4186f6b6457e060405160405180910390a360008060006101000a81548173ffffffffffffffffffffffffffffffffffffffff021916908373ffffffffffffffffffffffffffffffffffffffff160217905550565b60008060009054906101000a900473ffffffffffffffffffffffffffffffffffffffff16905090565b60008060009054906101000a900473ffffffffffffffffffffffffffffffffffffffff1673ffffffffffffffffffffffffffffffffffffffff163373ffffffffffffffffffffffffffffffffffffffff1614905090565b6000808260405160200161039d9190610d93565b6040516020818303038152906040528051906020012060001c9050600254816103c69190610dd9565b915050919050565b6103d6610332565b6103df57600080fd5b6103e881610776565b50565b600481815481106103fb57600080fd5b906000526020600020906003020160009150905080600001805461041e90610e39565b80601f016020809104026020016040519081016040528092919081815260200182805461044a90610e39565b80156104975780601f1061046c57610100808354040283529160200191610497565b820191906000526020600020905b81548152906001019060200180831161047a57829003601f168201915b5050505050908060010154908060020160009054906101000a900463ffffffff16908060020160049054906101000a900463ffffffff16908060020160089054906101000a900461ffff169080600201600a9054906101000a900461ffff16905086565b6000808260405160200161050f9190610d93565b6040516020818303038152906040528051906020012060001c9050600254816105389190610dd9565b915050919050565b60046040518060c00160405280848152602001838152602001600163ffffffff168152602001600354426105749190610e9a565b63ffffffff168152602001600061ffff168152602001600061ffff16815250908060018154018082558091505060019003906000526020600020906003020160009091909190915060008201518160000190805190602001906105d892919061086d565b506020820151816001015560408201518160020160006101000a81548163ffffffff021916908363ffffffff16021790555060608201518160020160046101000a81548163ffffffff021916908363ffffffff16021790555060808201518160020160086101000a81548161ffff021916908361ffff16021790555060a082015181600201600a6101000a81548161ffff021916908361ffff16021790555050506000600160048054905061068d9190610ef0565b9050336005600083815260200190815260200160002060006101000a81548173ffffffffffffffffffffffffffffffffffffffff021916908373ffffffffffffffffffffffffffffffffffffffff160217905550600660003373ffffffffffffffffffffffffffffffffffffffff1673ffffffffffffffffffffffffffffffffffffffff168152602001908152602001600020600081548092919061073190610f24565b91905055507ff815b0f555f1a0faf740ff42a7285835d1e31c8a266d8f0b5c0451049f833cdb81848460405161076993929190610f6d565b60405180910390a1505050565b600073ffffffffffffffffffffffffffffffffffffffff168173ffffffffffffffffffffffffffffffffffffffff1614156107b057600080fd5b8073ffffffffffffffffffffffffffffffffffffffff1660008054906101000a900473ffffffffffffffffffffffffffffffffffffffff1673ffffffffffffffffffffffffffffffffffffffff167f8be0079c531659141344cd1fd0a4f28419497f9722a3daafe3b4186f6b6457e060405160405180910390a3806000806101000a81548173ffffffffffffffffffffffffffffffffffffffff021916908373ffffffffffffffffffffffffffffffffffffffff16021790555050565b82805461087990610e39565b90600052602060002090601f01602090048101928261089b57600085556108e2565b82601f106108b457805160ff19168380011785556108e2565b828001600101855582156108e2579182015b828111156108e15782518255916020019190600101906108c6565b5b5090506108ef91906108f3565b5090565b5b8082111561090c5760008160009055506001016108f4565b5090565b6000604051905090565b600080fd5b600080fd5b6000819050919050565b61093781610924565b811461094257600080fd5b50565b6000813590506109548161092e565b92915050565b6000602082840312156109705761096f61091a565b5b600061097e84828501610945565b91505092915050565b600073ffffffffffffffffffffffffffffffffffffffff82169050919050565b60006109b282610987565b9050919050565b6109c2816109a7565b82525050565b60006020820190506109dd60008301846109b9565b92915050565b600080fd5b600080fd5b6000601f19601f8301169050919050565b7f4e487b7100000000000000000000000000000000000000000000000000000000600052604160045260246000fd5b610a36826109ed565b810181811067ffffffffffffffff82111715610a5557610a546109fe565b5b80604052505050565b6000610a68610910565b9050610a748282610a2d565b919050565b600067ffffffffffffffff821115610a9457610a936109fe565b5b610a9d826109ed565b9050602081019050919050565b82818337600083830152505050565b6000610acc610ac784610a79565b610a5e565b905082815260208101848484011115610ae857610ae76109e8565b5b610af3848285610aaa565b509392505050565b600082601f830112610b1057610b0f6109e3565b5b8135610b20848260208601610ab9565b91505092915050565b600060208284031215610b3f57610b3e61091a565b5b600082013567ffffffffffffffff811115610b5d57610b5c61091f565b5b610b6984828501610afb565b91505092915050565b60008115159050919050565b610b8781610b72565b82525050565b6000602082019050610ba26000830184610b7e565b92915050565b610bb181610924565b82525050565b6000602082019050610bcc6000830184610ba8565b92915050565b610bdb816109a7565b8114610be657600080fd5b50565b600081359050610bf881610bd2565b92915050565b600060208284031215610c1457610c1361091a565b5b6000610c2284828501610be9565b91505092915050565b600081519050919050565b600082825260208201905092915050565b60005b83811015610c65578082015181840152602081019050610c4a565b83811115610c74576000848401525b50505050565b6000610c8582610c2b565b610c8f8185610c36565b9350610c9f818560208601610c47565b610ca8816109ed565b840191505092915050565b600063ffffffff82169050919050565b610ccc81610cb3565b82525050565b600061ffff82169050919050565b610ce981610cd2565b82525050565b600060c0820190508181036000830152610d098189610c7a565b9050610d186020830188610ba8565b610d256040830187610cc3565b610d326060830186610cc3565b610d3f6080830185610ce0565b610d4c60a0830184610ce0565b979650505050505050565b600081905092915050565b6000610d6d82610c2b565b610d778185610d57565b9350610d87818560208601610c47565b80840191505092915050565b6000610d9f8284610d62565b915081905092915050565b7f4e487b7100000000000000000000000000000000000000000000000000000000600052601260045260246000fd5b6000610de482610924565b9150610def83610924565b925082610dff57610dfe610daa565b5b828206905092915050565b7f4e487b7100000000000000000000000000000000000000000000000000000000600052602260045260246000fd5b60006002820490506001821680610e5157607f821691505b60208210811415610e6557610e64610e0a565b5b50919050565b7f4e487b7100000000000000000000000000000000000000000000000000000000600052601160045260246000fd5b6000610ea582610924565b9150610eb083610924565b9250827fffffffffffffffffffffffffffffffffffffffffffffffffffffffffffffffff03821115610ee557610ee4610e6b565b5b828201905092915050565b6000610efb82610924565b9150610f0683610924565b925082821015610f1957610f18610e6b565b5b828203905092915050565b6000610f2f82610924565b91507fffffffffffffffffffffffffffffffffffffffffffffffffffffffffffffffff821415610f6257610f61610e6b565b5b600182019050919050565b6000606082019050610f826000830186610ba8565b8181036020830152610f948185610c7a565b9050610fa36040830184610ba8565b94935050505056fea2646970667358221220fed03ee1f0b0fe808f8b4e910be3bdec3fd61ab8570b4956dfb4fe7ed63de29b64736f6c634300080a0033",
  "immutableReferences": {},
  "source": "pragma solidity ^0.8.0 ;\r\n\r\nimport \"./ownable.sol\";\r\n\r\ncontract CarMaker is Ownable{\r\n    uint vin = 16 ;\r\n    uint vinMod = 10 ** vin;\r\n    uint stopTime = 5 hours;\r\n    struct Car{\r\n        string name;\r\n        uint vin;\r\n        uint32 rating;\r\n        uint32  pitTime;\r\n        uint16 winCnt;\r\n        uint16 lossCnt;\r\n    }\r\n\r\n    event newCar(uint id, string name, uint vin);\r\n\r\n    Car[] public cars;\r\n\r\n    mapping(uint => address) public carToOwner;\r\n    mapping(address => uint) ownerCarsNo;\r\n\r\n    function _CarCreate(string memory _name,uint _vin) internal{\r\n        cars.push(Car(_name,_vin,1,uint32(block.timestamp + stopTime),0,0));\r\n        uint id = cars.length-1;\r\n        carToOwner[id] = msg.sender;\r\n        ownerCarsNo[msg.sender] ++;\r\n        emit newCar(id,_name,_vin);\r\n    }\r\n\r\n    function _randVin(string memory _name) private view returns(uint){\r\n        uint randVin = uint(keccak256(abi.encodePacked(_name)));\r\n        return randVin % vinMod;\r\n    }\r\n    function _randVin2(string memory _name) public view returns(uint){\r\n        uint randVin = uint(keccak256(abi.encodePacked(_name)));\r\n        return randVin % vinMod;\r\n    }\r\n\r\n    function createRandCar(string memory _name) public{\r\n        require(ownerCarsNo[msg.sender]==0);\r\n        uint randVin = _randVin(_name);\r\n        _CarCreate(_name, randVin);\r\n    }\r\n}\r\n\r\n\r\n",
  "sourcePath": "C:\\Users\\prafa\\Desktop\\cripto\\cars_project\\contracts\\CarMaker.sol",
  "compiler": {
    "name": "solc",
    "version": "0.8.10+commit.fc410830.Emscripten.clang"
  },
  "schemaVersion": "3.4.3",
  "updatedAt": "2022-04-19T09:52:29.968Z",
  "devdoc": {
    "kind": "dev",
    "methods": {
      "isOwner()": {
        "returns": {
          "_0": "true if `msg.sender` is the owner of the contract."
        }
      },
      "owner()": {
        "returns": {
          "_0": "the address of the owner."
        }
      },
      "renounceOwnership()": {
        "details": "Allows the current owner to relinquish control of the contract."
      },
      "transferOwnership(address)": {
        "details": "Allows the current owner to transfer control of the contract to a newOwner.",
        "params": {
          "newOwner": "The address to transfer ownership to."
        }
      }
    },
    "version": 1
  },
  "userdoc": {
    "kind": "user",
    "methods": {
      "renounceOwnership()": {
        "notice": "Renouncing to ownership will leave the contract without an owner. It will not be possible to call the functions with the `onlyOwner` modifier anymore."
      }
    },
    "version": 1
  }
}