{
  "contractName": "CarOwnership",
  "abi": [
    {
      "anonymous": false,
      "inputs": [
        {
          "indexed": true,
          "internalType": "address",
          "name": "_owner",
          "type": "address"
        },
        {
          "indexed": true,
          "internalType": "address",
          "name": "_approved",
          "type": "address"
        },
        {
          "indexed": true,
          "internalType": "uint256",
          "name": "_tokenId",
          "type": "uint256"
        }
      ],
      "name": "Approval",
      "type": "event"
    },
    {
      "anonymous": false,
      "inputs": [
        {
          "indexed": true,
          "internalType": "address",
          "name": "previousOwner",
          "type": "address"
        },
        {
          "indexed": true,
          "internalType": "address",
          "name": "newOwner",
          "type": "address"
        }
      ],
      "name": "OwnershipTransferred",
      "type": "event"
    },
    {
      "anonymous": false,
      "inputs": [
        {
          "indexed": true,
          "internalType": "address",
          "name": "_from",
          "type": "address"
        },
        {
          "indexed": true,
          "internalType": "address",
          "name": "_to",
          "type": "address"
        },
        {
          "indexed": true,
          "internalType": "uint256",
          "name": "_tokenId",
          "type": "uint256"
        }
      ],
      "name": "Transfer",
      "type": "event"
    },
    {
      "anonymous": false,
      "inputs": [
        {
          "indexed": false,
          "internalType": "uint256",
          "name": "id",
          "type": "uint256"
        },
        {
          "indexed": false,
          "internalType": "string",
          "name": "name",
          "type": "string"
        },
        {
          "indexed": false,
          "internalType": "uint256",
          "name": "vin",
          "type": "uint256"
        }
      ],
      "name": "newCar",
      "type": "event"
    },
    {
      "inputs": [
        {
          "internalType": "address",
          "name": "_owner",
          "type": "address"
        }
      ],
      "name": "CarsByOwner",
      "outputs": [
        {
          "internalType": "uint256[]",
          "name": "",
          "type": "uint256[]"
        }
      ],
      "stateMutability": "view",
      "type": "function"
    },
    {
      "inputs": [
        {
          "internalType": "string",
          "name": "_name",
          "type": "string"
        }
      ],
      "name": "_randVin2",
      "outputs": [
        {
          "internalType": "uint256",
          "name": "",
          "type": "uint256"
        }
      ],
      "stateMutability": "view",
      "type": "function"
    },
    {
      "inputs": [
        {
          "internalType": "uint256",
          "name": "",
          "type": "uint256"
        }
      ],
      "name": "carToOwner",
      "outputs": [
        {
          "internalType": "address",
          "name": "",
          "type": "address"
        }
      ],
      "stateMutability": "view",
      "type": "function"
    },
    {
      "inputs": [
        {
          "internalType": "uint256",
          "name": "",
          "type": "uint256"
        }
      ],
      "name": "cars",
      "outputs": [
        {
          "internalType": "string",
          "name": "name",
          "type": "string"
        },
        {
          "internalType": "uint256",
          "name": "vin",
          "type": "uint256"
        },
        {
          "internalType": "uint32",
          "name": "rating",
          "type": "uint32"
        },
        {
          "internalType": "uint32",
          "name": "pitTime",
          "type": "uint32"
        },
        {
          "internalType": "uint16",
          "name": "winCnt",
          "type": "uint16"
        },
        {
          "internalType": "uint16",
          "name": "lossCnt",
          "type": "uint16"
        }
      ],
      "stateMutability": "view",
      "type": "function"
    },
    {
      "inputs": [
        {
          "internalType": "string",
          "name": "_name",
          "type": "string"
        }
      ],
      "name": "createRandCar",
      "outputs": [],
      "stateMutability": "nonpayable",
      "type": "function"
    },
    {
      "inputs": [],
      "name": "isOwner",
      "outputs": [
        {
          "internalType": "bool",
          "name": "",
          "type": "bool"
        }
      ],
      "stateMutability": "view",
      "type": "function"
    },
    {
      "inputs": [
        {
          "internalType": "uint256",
          "name": "_id",
          "type": "uint256"
        },
        {
          "internalType": "string",
          "name": "_Name",
          "type": "string"
        }
      ],
      "name": "modifyName",
      "outputs": [],
      "stateMutability": "nonpayable",
      "type": "function"
    },
    {
      "inputs": [
        {
          "internalType": "uint256",
          "name": "_id",
          "type": "uint256"
        },
        {
          "internalType": "uint256",
          "name": "_Vin",
          "type": "uint256"
        }
      ],
      "name": "modifyVin",
      "outputs": [],
      "stateMutability": "nonpayable",
      "type": "function"
    },
    {
      "inputs": [
        {
          "internalType": "uint256",
          "name": "_id",
          "type": "uint256"
        }
      ],
      "name": "overtake",
      "outputs": [],
      "stateMutability": "payable",
      "type": "function"
    },
    {
      "inputs": [
        {
          "internalType": "uint256",
          "name": "_id",
          "type": "uint256"
        },
        {
          "internalType": "uint256",
          "name": "_ckId",
          "type": "uint256"
        }
      ],
      "name": "overtakeCK",
      "outputs": [],
      "stateMutability": "nonpayable",
      "type": "function"
    },
    {
      "inputs": [],
      "name": "owner",
      "outputs": [
        {
          "internalType": "address",
          "name": "",
          "type": "address"
        }
      ],
      "stateMutability": "view",
      "type": "function"
    },
    {
      "inputs": [
        {
          "internalType": "uint256",
          "name": "_id",
          "type": "uint256"
        },
        {
          "internalType": "uint256",
          "name": "_opponentId",
          "type": "uint256"
        }
      ],
      "name": "race",
      "outputs": [],
      "stateMutability": "nonpayable",
      "type": "function"
    },
    {
      "inputs": [],
      "name": "renounceOwnership",
      "outputs": [],
      "stateMutability": "nonpayable",
      "type": "function"
    },
    {
      "inputs": [
        {
          "internalType": "address",
          "name": "_address",
          "type": "address"
        }
      ],
      "name": "setCkContractAddress",
      "outputs": [],
      "stateMutability": "nonpayable",
      "type": "function"
    },
    {
      "inputs": [
        {
          "internalType": "uint256",
          "name": "_fee",
          "type": "uint256"
        }
      ],
      "name": "setOvertakeFee",
      "outputs": [],
      "stateMutability": "nonpayable",
      "type": "function"
    },
    {
      "inputs": [
        {
          "internalType": "address",
          "name": "newOwner",
          "type": "address"
        }
      ],
      "name": "transferOwnership",
      "outputs": [],
      "stateMutability": "nonpayable",
      "type": "function"
    },
    {
      "inputs": [],
      "name": "withdraw",
      "outputs": [],
      "stateMutability": "nonpayable",
      "type": "function"
    },
    {
      "inputs": [
        {
          "internalType": "address",
          "name": "_owner",
          "type": "address"
        }
      ],
      "name": "balanceOf",
      "outputs": [
        {
          "internalType": "uint256",
          "name": "",
          "type": "uint256"
        }
      ],
      "stateMutability": "view",
      "type": "function"
    },
    {
      "inputs": [
        {
          "internalType": "uint256",
          "name": "_tokenId",
          "type": "uint256"
        }
      ],
      "name": "ownerOf",
      "outputs": [
        {
          "internalType": "address",
          "name": "",
          "type": "address"
        }
      ],
      "stateMutability": "view",
      "type": "function"
    },
    {
      "inputs": [
        {
          "internalType": "address",
          "name": "_from",
          "type": "address"
        },
        {
          "internalType": "address",
          "name": "_to",
          "type": "address"
        },
        {
          "internalType": "uint256",
          "name": "_tokenId",
          "type": "uint256"
        }
      ],
      "name": "transferFrom",
      "outputs": [],
      "stateMutability": "payable",
      "type": "function"
    },
    {
      "inputs": [
        {
          "internalType": "address",
          "name": "_approved",
          "type": "address"
        },
        {
          "internalType": "uint256",
          "name": "_tokenId",
          "type": "uint256"
        }
      ],
      "name": "approve",
      "outputs": [],
      "stateMutability": "payable",
      "type": "function"
    }
  ],
  "bytecode": "0x60806040526010600155600154600a6200001a919062000293565b600255614650600355655af3107a40006008556000600955603b600a553480156200004457600080fd5b50336000806101000a81548173ffffffffffffffffffffffffffffffffffffffff021916908373ffffffffffffffffffffffffffffffffffffffff16021790555060008054906101000a900473ffffffffffffffffffffffffffffffffffffffff1673ffffffffffffffffffffffffffffffffffffffff16600073ffffffffffffffffffffffffffffffffffffffff167f8be0079c531659141344cd1fd0a4f28419497f9722a3daafe3b4186f6b6457e060405160405180910390a3620002e4565b7f4e487b7100000000000000000000000000000000000000000000000000000000600052601160045260246000fd5b60008160011c9050919050565b6000808291508390505b600185111562000194578086048111156200016c576200016b62000106565b5b60018516156200017c5780820291505b80810290506200018c8562000135565b94506200014c565b94509492505050565b600082620001af576001905062000282565b81620001bf576000905062000282565b8160018114620001d85760028114620001e35762000219565b600191505062000282565b60ff841115620001f857620001f762000106565b5b8360020a91508482111562000212576200021162000106565b5b5062000282565b5060208310610133831016604e8410600b8410161715620002535782820a9050838111156200024d576200024c62000106565b5b62000282565b62000262848484600162000142565b925090508184048111156200027c576200027b62000106565b5b81810290505b9392505050565b6000819050919050565b6000620002a08262000289565b9150620002ad8362000289565b9250620002dc7fffffffffffffffffffffffffffffffffffffffffffffffffffffffffffffffff84846200019d565b905092915050565b6125ef80620002f46000396000f3fe60806040526004361061012a5760003560e01c8063715018a6116100ab578063b300dacb1161006f578063b300dacb146103ac578063ccf502e0146103c8578063cd5fecc3146103f1578063f2fde38b1461042e578063f7746e3614610457578063f93968b6146104995761012a565b8063715018a6146102ed5780638da5cb5b146103045780638f32d59b1461032f578063908c16961461035a578063aa7ac57d146103835761012a565b8063432849c1116100f2578063432849c1146101e4578063574eea4c1461020d5780636352211e1461024a5780636a877b751461028757806370a08231146102b05761012a565b8063083896b81461012f578063095ea7b31461015857806323b872dd1461017457806333ca504b146101905780633ccfd60b146101cd575b600080fd5b34801561013b57600080fd5b5061015660048036038101906101519190611a4d565b6104c2565b005b610172600480360381019061016d9190611aeb565b6105aa565b005b61018e60048036038101906101899190611b2b565b6106c8565b005b34801561019c57600080fd5b506101b760048036038101906101b29190611b7e565b6107ac565b6040516101c49190611bba565b60405180910390f35b3480156101d957600080fd5b506101e26107df565b005b3480156101f057600080fd5b5061020b60048036038101906102069190611d1b565b610846565b005b34801561021957600080fd5b50610234600480360381019061022f9190611d64565b6108ad565b6040516102419190611e4f565b60405180910390f35b34801561025657600080fd5b50610271600480360381019061026c9190611b7e565b610a00565b60405161027e9190611bba565b60405180910390f35b34801561029357600080fd5b506102ae60048036038101906102a99190611b7e565b610a3d565b005b3480156102bc57600080fd5b506102d760048036038101906102d29190611d64565b610a58565b6040516102e49190611e80565b60405180910390f35b3480156102f957600080fd5b50610302610aa1565b005b34801561031057600080fd5b50610319610b70565b6040516103269190611bba565b60405180910390f35b34801561033b57600080fd5b50610344610b99565b6040516103519190611eb6565b60405180910390f35b34801561036657600080fd5b50610381600480360381019061037c9190611a4d565b610bf0565b005b34801561038f57600080fd5b506103aa60048036038101906103a59190611a4d565b610e1b565b005b6103c660048036038101906103c19190611b7e565b610f03565b005b3480156103d457600080fd5b506103ef60048036038101906103ea9190611d64565b610f78565b005b3480156103fd57600080fd5b5061041860048036038101906104139190611d1b565b610fcd565b6040516104259190611e80565b60405180910390f35b34801561043a57600080fd5b5061045560048036038101906104509190611d64565b611012565b005b34801561046357600080fd5b5061047e60048036038101906104799190611b7e565b61102f565b60405161049096959493929190611f95565b60405180910390f35b3480156104a557600080fd5b506104c060048036038101906104bb919061205d565b61113f565b005b6000600760009054906101000a900473ffffffffffffffffffffffffffffffffffffffff1673ffffffffffffffffffffffffffffffffffffffff1663e98b7f4d836040518263ffffffff1660e01b815260040161051f9190611e80565b61014060405180830381865afa15801561053d573d6000803e3d6000fd5b505050506040513d601f19601f8201168201806040525081019061056191906120fe565b909192939495969798509091929394959697509091929394959650909192939495509091929394509091929350909192509091509050809150506105a58382611233565b505050565b806005600082815260200190815260200160002060009054906101000a900473ffffffffffffffffffffffffffffffffffffffff1673ffffffffffffffffffffffffffffffffffffffff163373ffffffffffffffffffffffffffffffffffffffff161461061657600080fd5b82600b600084815260200190815260200160002060006101000a81548173ffffffffffffffffffffffffffffffffffffffff021916908373ffffffffffffffffffffffffffffffffffffffff160217905550818373ffffffffffffffffffffffffffffffffffffffff163373ffffffffffffffffffffffffffffffffffffffff167f8c5be1e5ebec7d5bd14f71427d1e84f3dd0314c0f7b2291e5b200ac8c7c3b92560405160405180910390a4505050565b3373ffffffffffffffffffffffffffffffffffffffff166005600083815260200190815260200160002060009054906101000a900473ffffffffffffffffffffffffffffffffffffffff1673ffffffffffffffffffffffffffffffffffffffff16148061079357503373ffffffffffffffffffffffffffffffffffffffff16600b600083815260200190815260200160002060009054906101000a900473ffffffffffffffffffffffffffffffffffffffff1673ffffffffffffffffffffffffffffffffffffffff16145b61079c57600080fd5b6107a7838383611356565b505050565b60056020528060005260406000206000915054906101000a900473ffffffffffffffffffffffffffffffffffffffff1681565b6107e7610b99565b6107f057600080fd5b60006107fa610b70565b90508073ffffffffffffffffffffffffffffffffffffffff166108fc479081150290604051600060405180830381858888f19350505050158015610842573d6000803e3d6000fd5b5050565b6000600660003373ffffffffffffffffffffffffffffffffffffffff1673ffffffffffffffffffffffffffffffffffffffff168152602001908152602001600020541461089257600080fd5b600061089d826114b2565b90506108a982826114f7565b5050565b60606000600660008473ffffffffffffffffffffffffffffffffffffffff1673ffffffffffffffffffffffffffffffffffffffff1681526020019081526020016000205467ffffffffffffffff81111561090a57610909611bf0565b5b6040519080825280602002602001820160405280156109385781602001602082028036833780820191505090505b5090506000805b6004805490508110156109f5578473ffffffffffffffffffffffffffffffffffffffff166005600083815260200190815260200160002060009054906101000a900473ffffffffffffffffffffffffffffffffffffffff1673ffffffffffffffffffffffffffffffffffffffff1614156109e257808383815181106109c7576109c66121dd565b5b60200260200101818152505081806109de9061223b565b9250505b80806109ed9061223b565b91505061093f565b508192505050919050565b60006005600083815260200190815260200160002060009054906101000a900473ffffffffffffffffffffffffffffffffffffffff169050919050565b610a45610b99565b610a4e57600080fd5b8060088190555050565b6000600660008373ffffffffffffffffffffffffffffffffffffffff1673ffffffffffffffffffffffffffffffffffffffff168152602001908152602001600020549050919050565b610aa9610b99565b610ab257600080fd5b600073ffffffffffffffffffffffffffffffffffffffff1660008054906101000a900473ffffffffffffffffffffffffffffffffffffffff1673ffffffffffffffffffffffffffffffffffffffff167f8be0079c531659141344cd1fd0a4f28419497f9722a3daafe3b4186f6b6457e060405160405180910390a360008060006101000a81548173ffffffffffffffffffffffffffffffffffffffff021916908373ffffffffffffffffffffffffffffffffffffffff160217905550565b60008060009054906101000a900473ffffffffffffffffffffffffffffffffffffffff16905090565b60008060009054906101000a900473ffffffffffffffffffffffffffffffffffffffff1673ffffffffffffffffffffffffffffffffffffffff163373ffffffffffffffffffffffffffffffffffffffff1614905090565b816005600082815260200190815260200160002060009054906101000a900473ffffffffffffffffffffffffffffffffffffffff1673ffffffffffffffffffffffffffffffffffffffff163373ffffffffffffffffffffffffffffffffffffffff1614610c5c57600080fd5b600060048481548110610c7257610c716121dd565b5b90600052602060002090600302019050600060048481548110610c9857610c976121dd565b5b906000526020600020906003020190506000610cb4606461172d565b9050600a548111610d8f5782600201600881819054906101000a900461ffff1680929190610ce190612284565b91906101000a81548161ffff021916908361ffff1602179055505082600201600081819054906101000a900463ffffffff1680929190610d20906122af565b91906101000a81548163ffffffff021916908363ffffffff1602179055505081600201600a81819054906101000a900461ffff1680929190610d6190612284565b91906101000a81548161ffff021916908361ffff16021790555050610d8a868360010154611233565b610e13565b82600201600a81819054906101000a900461ffff1680929190610db190612284565b91906101000a81548161ffff021916908361ffff1602179055505081600201600881819054906101000a900461ffff1680929190610dee90612284565b91906101000a81548161ffff021916908361ffff16021790555050610e1283611789565b5b505050505050565b6014828160048281548110610e3357610e326121dd565b5b906000526020600020906003020160020160009054906101000a900463ffffffff1663ffffffff161015610e6657600080fd5b836005600082815260200190815260200160002060009054906101000a900473ffffffffffffffffffffffffffffffffffffffff1673ffffffffffffffffffffffffffffffffffffffff163373ffffffffffffffffffffffffffffffffffffffff1614610ed257600080fd5b8360048681548110610ee757610ee66121dd565b5b9060005260206000209060030201600101819055505050505050565b6008543414610f1157600080fd5b60048181548110610f2557610f246121dd565b5b9060005260206000209060030201600201600081819054906101000a900463ffffffff1680929190610f56906122af565b91906101000a81548163ffffffff021916908363ffffffff1602179055505050565b610f80610b99565b610f8957600080fd5b80600760006101000a81548173ffffffffffffffffffffffffffffffffffffffff021916908373ffffffffffffffffffffffffffffffffffffffff16021790555050565b60008082604051602001610fe19190612318565b6040516020818303038152906040528051906020012060001c90506002548161100a919061235e565b915050919050565b61101a610b99565b61102357600080fd5b61102c816117bc565b50565b6004818154811061103f57600080fd5b9060005260206000209060030201600091509050806000018054611062906123be565b80601f016020809104026020016040519081016040528092919081815260200182805461108e906123be565b80156110db5780601f106110b0576101008083540402835291602001916110db565b820191906000526020600020905b8154815290600101906020018083116110be57829003601f168201915b5050505050908060010154908060020160009054906101000a900463ffffffff16908060020160049054906101000a900463ffffffff16908060020160089054906101000a900461ffff169080600201600a9054906101000a900461ffff16905086565b6003838160048281548110611157576111566121dd565b5b906000526020600020906003020160020160009054906101000a900463ffffffff1663ffffffff16101561118a57600080fd5b846005600082815260200190815260200160002060009054906101000a900473ffffffffffffffffffffffffffffffffffffffff1673ffffffffffffffffffffffffffffffffffffffff163373ffffffffffffffffffffffffffffffffffffffff16146111f657600080fd5b84846004888154811061120c5761120b6121dd565b5b9060005260206000209060030201600001919061122a9291906118da565b50505050505050565b816005600082815260200190815260200160002060009054906101000a900473ffffffffffffffffffffffffffffffffffffffff1673ffffffffffffffffffffffffffffffffffffffff163373ffffffffffffffffffffffffffffffffffffffff161461129f57600080fd5b6000600484815481106112b5576112b46121dd565b5b906000526020600020906003020190506112ce816118b3565b6112d757600080fd5b600254836112e5919061235e565b9250600060028483600101546112fb91906123f0565b6113059190612446565b90506113466040518060400160405280600681526020017f4e6f4e616d650000000000000000000000000000000000000000000000000000815250826114f7565b61134f82611789565b5050505050565b600660008473ffffffffffffffffffffffffffffffffffffffff1673ffffffffffffffffffffffffffffffffffffffff16815260200190815260200160002060008154809291906113a690612477565b9190505550600660008373ffffffffffffffffffffffffffffffffffffffff1673ffffffffffffffffffffffffffffffffffffffff16815260200190815260200160002060008154809291906113fb9061223b565b9190505550816005600083815260200190815260200160002060006101000a81548173ffffffffffffffffffffffffffffffffffffffff021916908373ffffffffffffffffffffffffffffffffffffffff160217905550808273ffffffffffffffffffffffffffffffffffffffff168473ffffffffffffffffffffffffffffffffffffffff167fddf252ad1be2c89b69c2b068fc378daa952ba7f163c4a11628f55a4df523b3ef60405160405180910390a4505050565b600080826040516020016114c69190612318565b6040516020818303038152906040528051906020012060001c9050600254816114ef919061235e565b915050919050565b60046040518060c00160405280848152602001838152602001600163ffffffff1681526020016003544261152b91906123f0565b63ffffffff168152602001600061ffff168152602001600061ffff168152509080600181540180825580915050600190039060005260206000209060030201600090919091909150600082015181600001908051906020019061158f929190611960565b506020820151816001015560408201518160020160006101000a81548163ffffffff021916908363ffffffff16021790555060608201518160020160046101000a81548163ffffffff021916908363ffffffff16021790555060808201518160020160086101000a81548161ffff021916908361ffff16021790555060a082015181600201600a6101000a81548161ffff021916908361ffff16021790555050506000600160048054905061164491906124a1565b9050336005600083815260200190815260200160002060006101000a81548173ffffffffffffffffffffffffffffffffffffffff021916908373ffffffffffffffffffffffffffffffffffffffff160217905550600660003373ffffffffffffffffffffffffffffffffffffffff1673ffffffffffffffffffffffffffffffffffffffff16815260200190815260200160002060008154809291906116e89061223b565b91905055507ff815b0f555f1a0faf740ff42a7285835d1e31c8a266d8f0b5c0451049f833cdb818484604051611720939291906124d5565b60405180910390a1505050565b6000600960008154809291906117429061223b565b919050555081423360095460405160200161175f9392919061257c565b6040516020818303038152906040528051906020012060001c611782919061235e565b9050919050565b6003544261179791906123f0565b8160020160046101000a81548163ffffffff021916908363ffffffff16021790555050565b600073ffffffffffffffffffffffffffffffffffffffff168173ffffffffffffffffffffffffffffffffffffffff1614156117f657600080fd5b8073ffffffffffffffffffffffffffffffffffffffff1660008054906101000a900473ffffffffffffffffffffffffffffffffffffffff1673ffffffffffffffffffffffffffffffffffffffff167f8be0079c531659141344cd1fd0a4f28419497f9722a3daafe3b4186f6b6457e060405160405180910390a3806000806101000a81548173ffffffffffffffffffffffffffffffffffffffff021916908373ffffffffffffffffffffffffffffffffffffffff16021790555050565b6000428260020160049054906101000a900463ffffffff1663ffffffff1611159050919050565b8280546118e6906123be565b90600052602060002090601f016020900481019282611908576000855561194f565b82601f1061192157803560ff191683800117855561194f565b8280016001018555821561194f579182015b8281111561194e578235825591602001919060010190611933565b5b50905061195c91906119e6565b5090565b82805461196c906123be565b90600052602060002090601f01602090048101928261198e57600085556119d5565b82601f106119a757805160ff19168380011785556119d5565b828001600101855582156119d5579182015b828111156119d45782518255916020019190600101906119b9565b5b5090506119e291906119e6565b5090565b5b808211156119ff5760008160009055506001016119e7565b5090565b6000604051905090565b600080fd5b600080fd5b6000819050919050565b611a2a81611a17565b8114611a3557600080fd5b50565b600081359050611a4781611a21565b92915050565b60008060408385031215611a6457611a63611a0d565b5b6000611a7285828601611a38565b9250506020611a8385828601611a38565b9150509250929050565b600073ffffffffffffffffffffffffffffffffffffffff82169050919050565b6000611ab882611a8d565b9050919050565b611ac881611aad565b8114611ad357600080fd5b50565b600081359050611ae581611abf565b92915050565b60008060408385031215611b0257611b01611a0d565b5b6000611b1085828601611ad6565b9250506020611b2185828601611a38565b9150509250929050565b600080600060608486031215611b4457611b43611a0d565b5b6000611b5286828701611ad6565b9350506020611b6386828701611ad6565b9250506040611b7486828701611a38565b9150509250925092565b600060208284031215611b9457611b93611a0d565b5b6000611ba284828501611a38565b91505092915050565b611bb481611aad565b82525050565b6000602082019050611bcf6000830184611bab565b92915050565b600080fd5b600080fd5b6000601f19601f8301169050919050565b7f4e487b7100000000000000000000000000000000000000000000000000000000600052604160045260246000fd5b611c2882611bdf565b810181811067ffffffffffffffff82111715611c4757611c46611bf0565b5b80604052505050565b6000611c5a611a03565b9050611c668282611c1f565b919050565b600067ffffffffffffffff821115611c8657611c85611bf0565b5b611c8f82611bdf565b9050602081019050919050565b82818337600083830152505050565b6000611cbe611cb984611c6b565b611c50565b905082815260208101848484011115611cda57611cd9611bda565b5b611ce5848285611c9c565b509392505050565b600082601f830112611d0257611d01611bd5565b5b8135611d12848260208601611cab565b91505092915050565b600060208284031215611d3157611d30611a0d565b5b600082013567ffffffffffffffff811115611d4f57611d4e611a12565b5b611d5b84828501611ced565b91505092915050565b600060208284031215611d7a57611d79611a0d565b5b6000611d8884828501611ad6565b91505092915050565b600081519050919050565b600082825260208201905092915050565b6000819050602082019050919050565b611dc681611a17565b82525050565b6000611dd88383611dbd565b60208301905092915050565b6000602082019050919050565b6000611dfc82611d91565b611e068185611d9c565b9350611e1183611dad565b8060005b83811015611e42578151611e298882611dcc565b9750611e3483611de4565b925050600181019050611e15565b5085935050505092915050565b60006020820190508181036000830152611e698184611df1565b905092915050565b611e7a81611a17565b82525050565b6000602082019050611e956000830184611e71565b92915050565b60008115159050919050565b611eb081611e9b565b82525050565b6000602082019050611ecb6000830184611ea7565b92915050565b600081519050919050565b600082825260208201905092915050565b60005b83811015611f0b578082015181840152602081019050611ef0565b83811115611f1a576000848401525b50505050565b6000611f2b82611ed1565b611f358185611edc565b9350611f45818560208601611eed565b611f4e81611bdf565b840191505092915050565b600063ffffffff82169050919050565b611f7281611f59565b82525050565b600061ffff82169050919050565b611f8f81611f78565b82525050565b600060c0820190508181036000830152611faf8189611f20565b9050611fbe6020830188611e71565b611fcb6040830187611f69565b611fd86060830186611f69565b611fe56080830185611f86565b611ff260a0830184611f86565b979650505050505050565b600080fd5b600080fd5b60008083601f84011261201d5761201c611bd5565b5b8235905067ffffffffffffffff81111561203a57612039611ffd565b5b60208301915083600182028301111561205657612055612002565b5b9250929050565b60008060006040848603121561207657612075611a0d565b5b600061208486828701611a38565b935050602084013567ffffffffffffffff8111156120a5576120a4611a12565b5b6120b186828701612007565b92509250509250925092565b6120c681611e9b565b81146120d157600080fd5b50565b6000815190506120e3816120bd565b92915050565b6000815190506120f881611a21565b92915050565b6000806000806000806000806000806101408b8d03121561212257612121611a0d565b5b60006121308d828e016120d4565b9a505060206121418d828e016120d4565b99505060406121528d828e016120e9565b98505060606121638d828e016120e9565b97505060806121748d828e016120e9565b96505060a06121858d828e016120e9565b95505060c06121968d828e016120e9565b94505060e06121a78d828e016120e9565b9350506101006121b98d828e016120e9565b9250506101206121cb8d828e016120e9565b9150509295989b9194979a5092959850565b7f4e487b7100000000000000000000000000000000000000000000000000000000600052603260045260246000fd5b7f4e487b7100000000000000000000000000000000000000000000000000000000600052601160045260246000fd5b600061224682611a17565b91507fffffffffffffffffffffffffffffffffffffffffffffffffffffffffffffffff8214156122795761227861220c565b5b600182019050919050565b600061228f82611f78565b915061ffff8214156122a4576122a361220c565b5b600182019050919050565b60006122ba82611f59565b915063ffffffff8214156122d1576122d061220c565b5b600182019050919050565b600081905092915050565b60006122f282611ed1565b6122fc81856122dc565b935061230c818560208601611eed565b80840191505092915050565b600061232482846122e7565b915081905092915050565b7f4e487b7100000000000000000000000000000000000000000000000000000000600052601260045260246000fd5b600061236982611a17565b915061237483611a17565b9250826123845761238361232f565b5b828206905092915050565b7f4e487b7100000000000000000000000000000000000000000000000000000000600052602260045260246000fd5b600060028204905060018216806123d657607f821691505b602082108114156123ea576123e961238f565b5b50919050565b60006123fb82611a17565b915061240683611a17565b9250827fffffffffffffffffffffffffffffffffffffffffffffffffffffffffffffffff0382111561243b5761243a61220c565b5b828201905092915050565b600061245182611a17565b915061245c83611a17565b92508261246c5761246b61232f565b5b828204905092915050565b600061248282611a17565b915060008214156124965761249561220c565b5b600182039050919050565b60006124ac82611a17565b91506124b783611a17565b9250828210156124ca576124c961220c565b5b828203905092915050565b60006060820190506124ea6000830186611e71565b81810360208301526124fc8185611f20565b905061250b6040830184611e71565b949350505050565b6000819050919050565b61252e61252982611a17565b612513565b82525050565b60008160601b9050919050565b600061254c82612534565b9050919050565b600061255e82612541565b9050919050565b61257661257182611aad565b612553565b82525050565b6000612588828661251d565b6020820191506125988285612565565b6014820191506125a8828461251d565b60208201915081905094935050505056fea264697066735822122004f4f49b01d1d1d0141c7fd20597dd772c32749f3a2153582b43cba56766e8f064736f6c634300080a0033",
  "immutableReferences": {},
  "source": "pragma solidity ^0.8.0;\r\n\r\nimport \"./carRace.sol\";\r\nimport \"./erc721.sol\";\r\n\r\n//natspec comments\r\n/// @title Car Games Project\r\n/// @author Praf Alexandru\r\n/// TO DOs :\r\n/// \"dev\" completare\r\n\r\n// TO DOs:\r\n// 1. tranfer to addres 0 fix !!\r\n// 2.auction logic ??\r\n// resources : OpenZeppelin ERC 721\r\n\r\n \r\n\r\ncontract CarOwnership is carRace,ERC721{\r\n    // implementing ERC 721 standard\r\n    mapping(uint => address) transferApprovals;\r\n\r\n    function balanceOf(address _owner) external override view returns (uint256) {\r\n    return ownerCarsNo[_owner];\r\n     }\r\n    function ownerOf(uint256 _tokenId) external override view returns (address) {\r\n    return carToOwner[_tokenId];\r\n    }\r\n\r\n    function _transfer(address _from,address _to, uint256 _tokenId) private{\r\n        //safemath overflow fix\r\n        ownerCarsNo[_from] --;\r\n        ownerCarsNo[_to] ++;\r\n        carToOwner[_tokenId]=_to;\r\n        emit Transfer(_from, _to, _tokenId);\r\n    }\r\n\r\n    function transferFrom(address _from, address _to, uint256 _tokenId) external override payable {\r\n        require(carToOwner[_tokenId] == msg.sender || transferApprovals[_tokenId] == msg.sender);\r\n        _transfer(_from, _to, _tokenId);(_from,_to,_tokenId);\r\n    }\r\n\r\n\r\n    function approve(address _approved, uint256 _tokenId) external override payable justOwnerOf(_tokenId){\r\n        transferApprovals[_tokenId] = _approved;\r\n        emit Approval(msg.sender, _approved, _tokenId);\r\n    }\r\n\r\n}\r\n",
  "sourcePath": "C:\\Users\\prafa\\Desktop\\cripto\\cars_project\\contracts\\carOwnership.sol",
  "compiler": {
    "name": "solc",
    "version": "0.8.10+commit.fc410830.Emscripten.clang"
  },
  "schemaVersion": "3.4.3",
  "updatedAt": "2022-04-19T09:52:30.068Z",
  "devdoc": {
    "author": "Praf Alexandru TO DOs : \"dev\" completare",
    "kind": "dev",
    "methods": {
      "isOwner()": {
        "returns": {
          "_0": "true if `msg.sender` is the owner of the contract."
        }
      },
      "owner()": {
        "returns": {
          "_0": "the address of the owner."
        }
      },
      "renounceOwnership()": {
        "details": "Allows the current owner to relinquish control of the contract."
      },
      "transferOwnership(address)": {
        "details": "Allows the current owner to transfer control of the contract to a newOwner.",
        "params": {
          "newOwner": "The address to transfer ownership to."
        }
      }
    },
    "title": "Car Games Project",
    "version": 1
  },
  "userdoc": {
    "kind": "user",
    "methods": {
      "renounceOwnership()": {
        "notice": "Renouncing to ownership will leave the contract without an owner. It will not be possible to call the functions with the `onlyOwner` modifier anymore."
      }
    },
    "version": 1
  }
}