{
  "contractName": "CarOvertaking",
  "abi": [
    {
      "anonymous": false,
      "inputs": [
        {
          "indexed": true,
          "internalType": "address",
          "name": "previousOwner",
          "type": "address"
        },
        {
          "indexed": true,
          "internalType": "address",
          "name": "newOwner",
          "type": "address"
        }
      ],
      "name": "OwnershipTransferred",
      "type": "event"
    },
    {
      "anonymous": false,
      "inputs": [
        {
          "indexed": false,
          "internalType": "uint256",
          "name": "id",
          "type": "uint256"
        },
        {
          "indexed": false,
          "internalType": "string",
          "name": "name",
          "type": "string"
        },
        {
          "indexed": false,
          "internalType": "uint256",
          "name": "vin",
          "type": "uint256"
        }
      ],
      "name": "newCar",
      "type": "event"
    },
    {
      "inputs": [
        {
          "internalType": "string",
          "name": "_name",
          "type": "string"
        }
      ],
      "name": "_randVin2",
      "outputs": [
        {
          "internalType": "uint256",
          "name": "",
          "type": "uint256"
        }
      ],
      "stateMutability": "view",
      "type": "function"
    },
    {
      "inputs": [
        {
          "internalType": "uint256",
          "name": "",
          "type": "uint256"
        }
      ],
      "name": "carToOwner",
      "outputs": [
        {
          "internalType": "address",
          "name": "",
          "type": "address"
        }
      ],
      "stateMutability": "view",
      "type": "function"
    },
    {
      "inputs": [
        {
          "internalType": "uint256",
          "name": "",
          "type": "uint256"
        }
      ],
      "name": "cars",
      "outputs": [
        {
          "internalType": "string",
          "name": "name",
          "type": "string"
        },
        {
          "internalType": "uint256",
          "name": "vin",
          "type": "uint256"
        },
        {
          "internalType": "uint32",
          "name": "rating",
          "type": "uint32"
        },
        {
          "internalType": "uint32",
          "name": "pitTime",
          "type": "uint32"
        },
        {
          "internalType": "uint16",
          "name": "winCnt",
          "type": "uint16"
        },
        {
          "internalType": "uint16",
          "name": "lossCnt",
          "type": "uint16"
        }
      ],
      "stateMutability": "view",
      "type": "function"
    },
    {
      "inputs": [
        {
          "internalType": "string",
          "name": "_name",
          "type": "string"
        }
      ],
      "name": "createRandCar",
      "outputs": [],
      "stateMutability": "nonpayable",
      "type": "function"
    },
    {
      "inputs": [],
      "name": "isOwner",
      "outputs": [
        {
          "internalType": "bool",
          "name": "",
          "type": "bool"
        }
      ],
      "stateMutability": "view",
      "type": "function"
    },
    {
      "inputs": [],
      "name": "owner",
      "outputs": [
        {
          "internalType": "address",
          "name": "",
          "type": "address"
        }
      ],
      "stateMutability": "view",
      "type": "function"
    },
    {
      "inputs": [],
      "name": "renounceOwnership",
      "outputs": [],
      "stateMutability": "nonpayable",
      "type": "function"
    },
    {
      "inputs": [
        {
          "internalType": "address",
          "name": "newOwner",
          "type": "address"
        }
      ],
      "name": "transferOwnership",
      "outputs": [],
      "stateMutability": "nonpayable",
      "type": "function"
    },
    {
      "inputs": [
        {
          "internalType": "address",
          "name": "_address",
          "type": "address"
        }
      ],
      "name": "setCkContractAddress",
      "outputs": [],
      "stateMutability": "nonpayable",
      "type": "function"
    },
    {
      "inputs": [
        {
          "internalType": "uint256",
          "name": "_id",
          "type": "uint256"
        },
        {
          "internalType": "uint256",
          "name": "_ckId",
          "type": "uint256"
        }
      ],
      "name": "overtakeCK",
      "outputs": [],
      "stateMutability": "nonpayable",
      "type": "function"
    }
  ],
  "bytecode": "0x60806040526010600155600154600a6200001a91906200027f565b6002556146506003553480156200003057600080fd5b50336000806101000a81548173ffffffffffffffffffffffffffffffffffffffff021916908373ffffffffffffffffffffffffffffffffffffffff16021790555060008054906101000a900473ffffffffffffffffffffffffffffffffffffffff1673ffffffffffffffffffffffffffffffffffffffff16600073ffffffffffffffffffffffffffffffffffffffff167f8be0079c531659141344cd1fd0a4f28419497f9722a3daafe3b4186f6b6457e060405160405180910390a3620002d0565b7f4e487b7100000000000000000000000000000000000000000000000000000000600052601160045260246000fd5b60008160011c9050919050565b6000808291508390505b60018511156200018057808604811115620001585762000157620000f2565b5b6001851615620001685780820291505b8081029050620001788562000121565b945062000138565b94509492505050565b6000826200019b57600190506200026e565b81620001ab57600090506200026e565b8160018114620001c45760028114620001cf5762000205565b60019150506200026e565b60ff841115620001e457620001e3620000f2565b5b8360020a915084821115620001fe57620001fd620000f2565b5b506200026e565b5060208310610133831016604e8410600b84101617156200023f5782820a905083811115620002395762000238620000f2565b5b6200026e565b6200024e84848460016200012e565b92509050818404811115620002685762000267620000f2565b5b81810290505b9392505050565b6000819050919050565b60006200028c8262000275565b9150620002998362000275565b9250620002c87fffffffffffffffffffffffffffffffffffffffffffffffffffffffffffffffff848462000189565b905092915050565b6114a980620002e06000396000f3fe608060405234801561001057600080fd5b506004361061009e5760003560e01c80638f32d59b116100665780638f32d59b14610133578063ccf502e014610151578063cd5fecc31461016d578063f2fde38b1461019d578063f7746e36146101b95761009e565b8063083896b8146100a357806333ca504b146100bf578063432849c1146100ef578063715018a61461010b5780638da5cb5b14610115575b600080fd5b6100bd60048036038101906100b89190610c62565b6101ee565b005b6100d960048036038101906100d49190610ca2565b6102d6565b6040516100e69190610d10565b60405180910390f35b61010960048036038101906101049190610e71565b610309565b005b610113610370565b005b61011d61043f565b60405161012a9190610d10565b60405180910390f35b61013b610468565b6040516101489190610ed5565b60405180910390f35b61016b60048036038101906101669190610f1c565b6104bf565b005b61018760048036038101906101829190610e71565b610514565b6040516101949190610f58565b60405180910390f35b6101b760048036038101906101b29190610f1c565b610559565b005b6101d360048036038101906101ce9190610ca2565b610576565b6040516101e596959493929190611037565b60405180910390f35b6000600760009054906101000a900473ffffffffffffffffffffffffffffffffffffffff1673ffffffffffffffffffffffffffffffffffffffff1663e98b7f4d836040518263ffffffff1660e01b815260040161024b9190610f58565b61014060405180830381865afa158015610269573d6000803e3d6000fd5b505050506040513d601f19601f8201168201806040525081019061028d91906110e0565b909192939495969798509091929394959697509091929394959650909192939495509091929394509091929350909192509091509050809150506102d18382610686565b505050565b60056020528060005260406000206000915054906101000a900473ffffffffffffffffffffffffffffffffffffffff1681565b6000600660003373ffffffffffffffffffffffffffffffffffffffff1673ffffffffffffffffffffffffffffffffffffffff168152602001908152602001600020541461035557600080fd5b6000610360826107a9565b905061036c82826107ee565b5050565b610378610468565b61038157600080fd5b600073ffffffffffffffffffffffffffffffffffffffff1660008054906101000a900473ffffffffffffffffffffffffffffffffffffffff1673ffffffffffffffffffffffffffffffffffffffff167f8be0079c531659141344cd1fd0a4f28419497f9722a3daafe3b4186f6b6457e060405160405180910390a360008060006101000a81548173ffffffffffffffffffffffffffffffffffffffff021916908373ffffffffffffffffffffffffffffffffffffffff160217905550565b60008060009054906101000a900473ffffffffffffffffffffffffffffffffffffffff16905090565b60008060009054906101000a900473ffffffffffffffffffffffffffffffffffffffff1673ffffffffffffffffffffffffffffffffffffffff163373ffffffffffffffffffffffffffffffffffffffff1614905090565b6104c7610468565b6104d057600080fd5b80600760006101000a81548173ffffffffffffffffffffffffffffffffffffffff021916908373ffffffffffffffffffffffffffffffffffffffff16021790555050565b6000808260405160200161052891906111fb565b6040516020818303038152906040528051906020012060001c9050600254816105519190611241565b915050919050565b610561610468565b61056a57600080fd5b61057381610a24565b50565b6004818154811061058657600080fd5b90600052602060002090600302016000915090508060000180546105a9906112a1565b80601f01602080910402602001604051908101604052809291908181526020018280546105d5906112a1565b80156106225780601f106105f757610100808354040283529160200191610622565b820191906000526020600020905b81548152906001019060200180831161060557829003601f168201915b5050505050908060010154908060020160009054906101000a900463ffffffff16908060020160049054906101000a900463ffffffff16908060020160089054906101000a900461ffff169080600201600a9054906101000a900461ffff16905086565b816005600082815260200190815260200160002060009054906101000a900473ffffffffffffffffffffffffffffffffffffffff1673ffffffffffffffffffffffffffffffffffffffff163373ffffffffffffffffffffffffffffffffffffffff16146106f257600080fd5b600060048481548110610708576107076112d3565b5b9060005260206000209060030201905061072181610b1b565b61072a57600080fd5b600254836107389190611241565b92506000600284836001015461074e9190611331565b6107589190611387565b90506107996040518060400160405280600681526020017f4e6f4e616d650000000000000000000000000000000000000000000000000000815250826107ee565b6107a282610b42565b5050505050565b600080826040516020016107bd91906111fb565b6040516020818303038152906040528051906020012060001c9050600254816107e69190611241565b915050919050565b60046040518060c00160405280848152602001838152602001600163ffffffff168152602001600354426108229190611331565b63ffffffff168152602001600061ffff168152602001600061ffff1681525090806001815401808255809150506001900390600052602060002090600302016000909190919091506000820151816000019080519060200190610886929190610b75565b506020820151816001015560408201518160020160006101000a81548163ffffffff021916908363ffffffff16021790555060608201518160020160046101000a81548163ffffffff021916908363ffffffff16021790555060808201518160020160086101000a81548161ffff021916908361ffff16021790555060a082015181600201600a6101000a81548161ffff021916908361ffff16021790555050506000600160048054905061093b91906113b8565b9050336005600083815260200190815260200160002060006101000a81548173ffffffffffffffffffffffffffffffffffffffff021916908373ffffffffffffffffffffffffffffffffffffffff160217905550600660003373ffffffffffffffffffffffffffffffffffffffff1673ffffffffffffffffffffffffffffffffffffffff16815260200190815260200160002060008154809291906109df906113ec565b91905055507ff815b0f555f1a0faf740ff42a7285835d1e31c8a266d8f0b5c0451049f833cdb818484604051610a1793929190611435565b60405180910390a1505050565b600073ffffffffffffffffffffffffffffffffffffffff168173ffffffffffffffffffffffffffffffffffffffff161415610a5e57600080fd5b8073ffffffffffffffffffffffffffffffffffffffff1660008054906101000a900473ffffffffffffffffffffffffffffffffffffffff1673ffffffffffffffffffffffffffffffffffffffff167f8be0079c531659141344cd1fd0a4f28419497f9722a3daafe3b4186f6b6457e060405160405180910390a3806000806101000a81548173ffffffffffffffffffffffffffffffffffffffff021916908373ffffffffffffffffffffffffffffffffffffffff16021790555050565b6000428260020160049054906101000a900463ffffffff1663ffffffff1611159050919050565b60035442610b509190611331565b8160020160046101000a81548163ffffffff021916908363ffffffff16021790555050565b828054610b81906112a1565b90600052602060002090601f016020900481019282610ba35760008555610bea565b82601f10610bbc57805160ff1916838001178555610bea565b82800160010185558215610bea579182015b82811115610be9578251825591602001919060010190610bce565b5b509050610bf79190610bfb565b5090565b5b80821115610c14576000816000905550600101610bfc565b5090565b6000604051905090565b600080fd5b600080fd5b6000819050919050565b610c3f81610c2c565b8114610c4a57600080fd5b50565b600081359050610c5c81610c36565b92915050565b60008060408385031215610c7957610c78610c22565b5b6000610c8785828601610c4d565b9250506020610c9885828601610c4d565b9150509250929050565b600060208284031215610cb857610cb7610c22565b5b6000610cc684828501610c4d565b91505092915050565b600073ffffffffffffffffffffffffffffffffffffffff82169050919050565b6000610cfa82610ccf565b9050919050565b610d0a81610cef565b82525050565b6000602082019050610d256000830184610d01565b92915050565b600080fd5b600080fd5b6000601f19601f8301169050919050565b7f4e487b7100000000000000000000000000000000000000000000000000000000600052604160045260246000fd5b610d7e82610d35565b810181811067ffffffffffffffff82111715610d9d57610d9c610d46565b5b80604052505050565b6000610db0610c18565b9050610dbc8282610d75565b919050565b600067ffffffffffffffff821115610ddc57610ddb610d46565b5b610de582610d35565b9050602081019050919050565b82818337600083830152505050565b6000610e14610e0f84610dc1565b610da6565b905082815260208101848484011115610e3057610e2f610d30565b5b610e3b848285610df2565b509392505050565b600082601f830112610e5857610e57610d2b565b5b8135610e68848260208601610e01565b91505092915050565b600060208284031215610e8757610e86610c22565b5b600082013567ffffffffffffffff811115610ea557610ea4610c27565b5b610eb184828501610e43565b91505092915050565b60008115159050919050565b610ecf81610eba565b82525050565b6000602082019050610eea6000830184610ec6565b92915050565b610ef981610cef565b8114610f0457600080fd5b50565b600081359050610f1681610ef0565b92915050565b600060208284031215610f3257610f31610c22565b5b6000610f4084828501610f07565b91505092915050565b610f5281610c2c565b82525050565b6000602082019050610f6d6000830184610f49565b92915050565b600081519050919050565b600082825260208201905092915050565b60005b83811015610fad578082015181840152602081019050610f92565b83811115610fbc576000848401525b50505050565b6000610fcd82610f73565b610fd78185610f7e565b9350610fe7818560208601610f8f565b610ff081610d35565b840191505092915050565b600063ffffffff82169050919050565b61101481610ffb565b82525050565b600061ffff82169050919050565b6110318161101a565b82525050565b600060c08201905081810360008301526110518189610fc2565b90506110606020830188610f49565b61106d604083018761100b565b61107a606083018661100b565b6110876080830185611028565b61109460a0830184611028565b979650505050505050565b6110a881610eba565b81146110b357600080fd5b50565b6000815190506110c58161109f565b92915050565b6000815190506110da81610c36565b92915050565b6000806000806000806000806000806101408b8d03121561110457611103610c22565b5b60006111128d828e016110b6565b9a505060206111238d828e016110b6565b99505060406111348d828e016110cb565b98505060606111458d828e016110cb565b97505060806111568d828e016110cb565b96505060a06111678d828e016110cb565b95505060c06111788d828e016110cb565b94505060e06111898d828e016110cb565b93505061010061119b8d828e016110cb565b9250506101206111ad8d828e016110cb565b9150509295989b9194979a5092959850565b600081905092915050565b60006111d582610f73565b6111df81856111bf565b93506111ef818560208601610f8f565b80840191505092915050565b600061120782846111ca565b915081905092915050565b7f4e487b7100000000000000000000000000000000000000000000000000000000600052601260045260246000fd5b600061124c82610c2c565b915061125783610c2c565b92508261126757611266611212565b5b828206905092915050565b7f4e487b7100000000000000000000000000000000000000000000000000000000600052602260045260246000fd5b600060028204905060018216806112b957607f821691505b602082108114156112cd576112cc611272565b5b50919050565b7f4e487b7100000000000000000000000000000000000000000000000000000000600052603260045260246000fd5b7f4e487b7100000000000000000000000000000000000000000000000000000000600052601160045260246000fd5b600061133c82610c2c565b915061134783610c2c565b9250827fffffffffffffffffffffffffffffffffffffffffffffffffffffffffffffffff0382111561137c5761137b611302565b5b828201905092915050565b600061139282610c2c565b915061139d83610c2c565b9250826113ad576113ac611212565b5b828204905092915050565b60006113c382610c2c565b91506113ce83610c2c565b9250828210156113e1576113e0611302565b5b828203905092915050565b60006113f782610c2c565b91507fffffffffffffffffffffffffffffffffffffffffffffffffffffffffffffffff82141561142a57611429611302565b5b600182019050919050565b600060608201905061144a6000830186610f49565b818103602083015261145c8185610fc2565b905061146b6040830184610f49565b94935050505056fea2646970667358221220b963c4cc0a0bbb669c0218e8820abe193aef9c60a1d0bfdcf9b932de8f133b5264736f6c634300080a0033",
  "immutableReferences": {},
  "source": "pragma solidity ^0.8.0;\r\n\r\nimport \"./ownable.sol\";\r\n\r\nimport \"./CarMaker.sol\";\r\n\r\n// using CryptoKittyes inferface\r\nabstract contract CryptoKittyInterface {\r\n  function getKitty(uint256 _id) external virtual view returns (\r\n    bool isGestating,\r\n    bool isReady,\r\n    uint256 cooldownIndex,\r\n    uint256 nextActionAt,\r\n    uint256 siringWithId,\r\n    uint256 birthTime,\r\n    uint256 matronId,\r\n    uint256 sireId,\r\n    uint256 generation,\r\n    uint256 genes\r\n  );\r\n}\r\n\r\ncontract CarOvertaking is CarMaker{\r\n    \r\n\r\n    CryptoKittyInterface ckContract;\r\n\r\n    modifier justOwnerOf(uint _id){\r\n      require(msg.sender == carToOwner[_id]);\r\n      _;\r\n    }\r\n    function setCkContractAddress(address _address) external onlyOwner{\r\n        ckContract = CryptoKittyInterface(_address);\r\n    }\r\n\r\n    function _triggerPitStop(Car storage _car) internal {\r\n      _car.pitTime = uint32(block.timestamp + stopTime);\r\n    }\r\n\r\n    function _readyToGo(Car storage _car) internal view returns (bool){\r\n      return (_car.pitTime <= block.timestamp);\r\n    }\r\n\r\n\r\n    function overtakeAndMultiply(uint _id, uint _targetVin) internal justOwnerOf(_id){\r\n        Car storage myCar = cars[_id];\r\n        require(_readyToGo(myCar));\r\n        _targetVin= _targetVin % vinMod;\r\n        uint newVin = (myCar.vin + _targetVin) / 2 ;    \r\n        _CarCreate(\"NoName\", newVin);\r\n        _triggerPitStop(myCar);\r\n    }\r\n\r\n    function overtakeCK(uint _id, uint _ckId) public {\r\n    uint kittyDna;\r\n    (,,,,,,,,,kittyDna) = ckContract.getKitty(_ckId);\r\n    overtakeAndMultiply(_id, kittyDna);\r\n  }\r\n\r\n}",
  "sourcePath": "C:\\Users\\prafa\\Desktop\\cripto\\cars_project\\contracts\\carOvertake.sol",
  "compiler": {
    "name": "solc",
    "version": "0.8.10+commit.fc410830.Emscripten.clang"
  },
  "schemaVersion": "3.4.3",
  "updatedAt": "2022-04-19T09:52:30.037Z",
  "devdoc": {
    "kind": "dev",
    "methods": {
      "isOwner()": {
        "returns": {
          "_0": "true if `msg.sender` is the owner of the contract."
        }
      },
      "owner()": {
        "returns": {
          "_0": "the address of the owner."
        }
      },
      "renounceOwnership()": {
        "details": "Allows the current owner to relinquish control of the contract."
      },
      "transferOwnership(address)": {
        "details": "Allows the current owner to transfer control of the contract to a newOwner.",
        "params": {
          "newOwner": "The address to transfer ownership to."
        }
      }
    },
    "version": 1
  },
  "userdoc": {
    "kind": "user",
    "methods": {
      "renounceOwnership()": {
        "notice": "Renouncing to ownership will leave the contract without an owner. It will not be possible to call the functions with the `onlyOwner` modifier anymore."
      }
    },
    "version": 1
  }
}