{
  "contractName": "CarOvertaking",
  "abi": [
    {
      "anonymous": false,
      "inputs": [
        {
          "indexed": true,
          "internalType": "address",
          "name": "previousOwner",
          "type": "address"
        },
        {
          "indexed": true,
          "internalType": "address",
          "name": "newOwner",
          "type": "address"
        }
      ],
      "name": "OwnershipTransferred",
      "type": "event"
    },
    {
      "anonymous": false,
      "inputs": [
        {
          "indexed": false,
          "internalType": "uint256",
          "name": "id",
          "type": "uint256"
        },
        {
          "indexed": false,
          "internalType": "string",
          "name": "name",
          "type": "string"
        },
        {
          "indexed": false,
          "internalType": "uint256",
          "name": "vin",
          "type": "uint256"
        }
      ],
      "name": "newCar",
      "type": "event"
    },
    {
      "inputs": [
        {
          "internalType": "uint256",
          "name": "",
          "type": "uint256"
        }
      ],
      "name": "carToOwner",
      "outputs": [
        {
          "internalType": "address",
          "name": "",
          "type": "address"
        }
      ],
      "stateMutability": "view",
      "type": "function"
    },
    {
      "inputs": [
        {
          "internalType": "uint256",
          "name": "",
          "type": "uint256"
        }
      ],
      "name": "cars",
      "outputs": [
        {
          "internalType": "string",
          "name": "name",
          "type": "string"
        },
        {
          "internalType": "uint256",
          "name": "vin",
          "type": "uint256"
        },
        {
          "internalType": "uint32",
          "name": "rating",
          "type": "uint32"
        },
        {
          "internalType": "uint32",
          "name": "pitTime",
          "type": "uint32"
        },
        {
          "internalType": "uint16",
          "name": "winCnt",
          "type": "uint16"
        },
        {
          "internalType": "uint16",
          "name": "lossCnt",
          "type": "uint16"
        }
      ],
      "stateMutability": "view",
      "type": "function"
    },
    {
      "inputs": [
        {
          "internalType": "string",
          "name": "_name",
          "type": "string"
        }
      ],
      "name": "createRandCar",
      "outputs": [],
      "stateMutability": "nonpayable",
      "type": "function"
    },
    {
      "inputs": [],
      "name": "isOwner",
      "outputs": [
        {
          "internalType": "bool",
          "name": "",
          "type": "bool"
        }
      ],
      "stateMutability": "view",
      "type": "function"
    },
    {
      "inputs": [],
      "name": "owner",
      "outputs": [
        {
          "internalType": "address",
          "name": "",
          "type": "address"
        }
      ],
      "stateMutability": "view",
      "type": "function"
    },
    {
      "inputs": [],
      "name": "renounceOwnership",
      "outputs": [],
      "stateMutability": "nonpayable",
      "type": "function"
    },
    {
      "inputs": [
        {
          "internalType": "address",
          "name": "newOwner",
          "type": "address"
        }
      ],
      "name": "transferOwnership",
      "outputs": [],
      "stateMutability": "nonpayable",
      "type": "function"
    },
    {
      "inputs": [
        {
          "internalType": "address",
          "name": "_address",
          "type": "address"
        }
      ],
      "name": "setCkContractAddress",
      "outputs": [],
      "stateMutability": "nonpayable",
      "type": "function"
    },
    {
      "inputs": [
        {
          "internalType": "uint256",
          "name": "_id",
          "type": "uint256"
        },
        {
          "internalType": "uint256",
          "name": "_ckId",
          "type": "uint256"
        }
      ],
      "name": "overtakeCK",
      "outputs": [],
      "stateMutability": "nonpayable",
      "type": "function"
    }
  ],
  "bytecode": "0x60806040526010600155600154600a6200001a91906200027f565b6002556146506003553480156200003057600080fd5b50336000806101000a81548173ffffffffffffffffffffffffffffffffffffffff021916908373ffffffffffffffffffffffffffffffffffffffff16021790555060008054906101000a900473ffffffffffffffffffffffffffffffffffffffff1673ffffffffffffffffffffffffffffffffffffffff16600073ffffffffffffffffffffffffffffffffffffffff167f8be0079c531659141344cd1fd0a4f28419497f9722a3daafe3b4186f6b6457e060405160405180910390a3620002d0565b7f4e487b7100000000000000000000000000000000000000000000000000000000600052601160045260246000fd5b60008160011c9050919050565b6000808291508390505b60018511156200018057808604811115620001585762000157620000f2565b5b6001851615620001685780820291505b8081029050620001788562000121565b945062000138565b94509492505050565b6000826200019b57600190506200026e565b81620001ab57600090506200026e565b8160018114620001c45760028114620001cf5762000205565b60019150506200026e565b60ff841115620001e457620001e3620000f2565b5b8360020a915084821115620001fe57620001fd620000f2565b5b506200026e565b5060208310610133831016604e8410600b84101617156200023f5782820a905083811115620002395762000238620000f2565b5b6200026e565b6200024e84848460016200012e565b92509050818404811115620002685762000267620000f2565b5b81810290505b9392505050565b6000819050919050565b60006200028c8262000275565b9150620002998362000275565b9250620002c87fffffffffffffffffffffffffffffffffffffffffffffffffffffffffffffffff848462000189565b905092915050565b61142980620002e06000396000f3fe608060405234801561001057600080fd5b50600436106100935760003560e01c80638da5cb5b116100665780638da5cb5b1461010a5780638f32d59b14610128578063ccf502e014610146578063f2fde38b14610162578063f7746e361461017e57610093565b8063083896b81461009857806333ca504b146100b4578063432849c1146100e4578063715018a614610100575b600080fd5b6100b260048036038101906100ad9190610be2565b6101b3565b005b6100ce60048036038101906100c99190610c22565b61029b565b6040516100db9190610c90565b60405180910390f35b6100fe60048036038101906100f99190610df1565b6102ce565b005b610108610335565b005b610112610404565b60405161011f9190610c90565b60405180910390f35b61013061042d565b60405161013d9190610e55565b60405180910390f35b610160600480360381019061015b9190610e9c565b610484565b005b61017c60048036038101906101779190610e9c565b6104d9565b005b61019860048036038101906101939190610c22565b6104f6565b6040516101aa96959493929190610f9c565b60405180910390f35b6000600760009054906101000a900473ffffffffffffffffffffffffffffffffffffffff1673ffffffffffffffffffffffffffffffffffffffff1663e98b7f4d836040518263ffffffff1660e01b81526004016102109190611004565b61014060405180830381865afa15801561022e573d6000803e3d6000fd5b505050506040513d601f19601f820116820180604052508101906102529190611060565b909192939495969798509091929394959697509091929394959650909192939495509091929394509091929350909192509091509050809150506102968382610606565b505050565b60056020528060005260406000206000915054906101000a900473ffffffffffffffffffffffffffffffffffffffff1681565b6000600660003373ffffffffffffffffffffffffffffffffffffffff1673ffffffffffffffffffffffffffffffffffffffff168152602001908152602001600020541461031a57600080fd5b600061032582610729565b9050610331828261076e565b5050565b61033d61042d565b61034657600080fd5b600073ffffffffffffffffffffffffffffffffffffffff1660008054906101000a900473ffffffffffffffffffffffffffffffffffffffff1673ffffffffffffffffffffffffffffffffffffffff167f8be0079c531659141344cd1fd0a4f28419497f9722a3daafe3b4186f6b6457e060405160405180910390a360008060006101000a81548173ffffffffffffffffffffffffffffffffffffffff021916908373ffffffffffffffffffffffffffffffffffffffff160217905550565b60008060009054906101000a900473ffffffffffffffffffffffffffffffffffffffff16905090565b60008060009054906101000a900473ffffffffffffffffffffffffffffffffffffffff1673ffffffffffffffffffffffffffffffffffffffff163373ffffffffffffffffffffffffffffffffffffffff1614905090565b61048c61042d565b61049557600080fd5b80600760006101000a81548173ffffffffffffffffffffffffffffffffffffffff021916908373ffffffffffffffffffffffffffffffffffffffff16021790555050565b6104e161042d565b6104ea57600080fd5b6104f3816109a4565b50565b6004818154811061050657600080fd5b90600052602060002090600302016000915090508060000180546105299061116e565b80601f01602080910402602001604051908101604052809291908181526020018280546105559061116e565b80156105a25780601f10610577576101008083540402835291602001916105a2565b820191906000526020600020905b81548152906001019060200180831161058557829003601f168201915b5050505050908060010154908060020160009054906101000a900463ffffffff16908060020160049054906101000a900463ffffffff16908060020160089054906101000a900461ffff169080600201600a9054906101000a900461ffff16905086565b816005600082815260200190815260200160002060009054906101000a900473ffffffffffffffffffffffffffffffffffffffff1673ffffffffffffffffffffffffffffffffffffffff163373ffffffffffffffffffffffffffffffffffffffff161461067257600080fd5b600060048481548110610688576106876111a0565b5b906000526020600020906003020190506106a181610a9b565b6106aa57600080fd5b600254836106b891906111fe565b9250600060028483600101546106ce919061125e565b6106d891906112b4565b90506107196040518060400160405280600681526020017f4e6f4e616d6500000000000000000000000000000000000000000000000000008152508261076e565b61072282610ac2565b5050505050565b6000808260405160200161073d9190611321565b6040516020818303038152906040528051906020012060001c90506002548161076691906111fe565b915050919050565b60046040518060c00160405280848152602001838152602001600163ffffffff168152602001600354426107a2919061125e565b63ffffffff168152602001600061ffff168152602001600061ffff1681525090806001815401808255809150506001900390600052602060002090600302016000909190919091506000820151816000019080519060200190610806929190610af5565b506020820151816001015560408201518160020160006101000a81548163ffffffff021916908363ffffffff16021790555060608201518160020160046101000a81548163ffffffff021916908363ffffffff16021790555060808201518160020160086101000a81548161ffff021916908361ffff16021790555060a082015181600201600a6101000a81548161ffff021916908361ffff1602179055505050600060016004805490506108bb9190611338565b9050336005600083815260200190815260200160002060006101000a81548173ffffffffffffffffffffffffffffffffffffffff021916908373ffffffffffffffffffffffffffffffffffffffff160217905550600660003373ffffffffffffffffffffffffffffffffffffffff1673ffffffffffffffffffffffffffffffffffffffff168152602001908152602001600020600081548092919061095f9061136c565b91905055507ff815b0f555f1a0faf740ff42a7285835d1e31c8a266d8f0b5c0451049f833cdb818484604051610997939291906113b5565b60405180910390a1505050565b600073ffffffffffffffffffffffffffffffffffffffff168173ffffffffffffffffffffffffffffffffffffffff1614156109de57600080fd5b8073ffffffffffffffffffffffffffffffffffffffff1660008054906101000a900473ffffffffffffffffffffffffffffffffffffffff1673ffffffffffffffffffffffffffffffffffffffff167f8be0079c531659141344cd1fd0a4f28419497f9722a3daafe3b4186f6b6457e060405160405180910390a3806000806101000a81548173ffffffffffffffffffffffffffffffffffffffff021916908373ffffffffffffffffffffffffffffffffffffffff16021790555050565b6000428260020160049054906101000a900463ffffffff1663ffffffff1611159050919050565b60035442610ad0919061125e565b8160020160046101000a81548163ffffffff021916908363ffffffff16021790555050565b828054610b019061116e565b90600052602060002090601f016020900481019282610b235760008555610b6a565b82601f10610b3c57805160ff1916838001178555610b6a565b82800160010185558215610b6a579182015b82811115610b69578251825591602001919060010190610b4e565b5b509050610b779190610b7b565b5090565b5b80821115610b94576000816000905550600101610b7c565b5090565b6000604051905090565b600080fd5b600080fd5b6000819050919050565b610bbf81610bac565b8114610bca57600080fd5b50565b600081359050610bdc81610bb6565b92915050565b60008060408385031215610bf957610bf8610ba2565b5b6000610c0785828601610bcd565b9250506020610c1885828601610bcd565b9150509250929050565b600060208284031215610c3857610c37610ba2565b5b6000610c4684828501610bcd565b91505092915050565b600073ffffffffffffffffffffffffffffffffffffffff82169050919050565b6000610c7a82610c4f565b9050919050565b610c8a81610c6f565b82525050565b6000602082019050610ca56000830184610c81565b92915050565b600080fd5b600080fd5b6000601f19601f8301169050919050565b7f4e487b7100000000000000000000000000000000000000000000000000000000600052604160045260246000fd5b610cfe82610cb5565b810181811067ffffffffffffffff82111715610d1d57610d1c610cc6565b5b80604052505050565b6000610d30610b98565b9050610d3c8282610cf5565b919050565b600067ffffffffffffffff821115610d5c57610d5b610cc6565b5b610d6582610cb5565b9050602081019050919050565b82818337600083830152505050565b6000610d94610d8f84610d41565b610d26565b905082815260208101848484011115610db057610daf610cb0565b5b610dbb848285610d72565b509392505050565b600082601f830112610dd857610dd7610cab565b5b8135610de8848260208601610d81565b91505092915050565b600060208284031215610e0757610e06610ba2565b5b600082013567ffffffffffffffff811115610e2557610e24610ba7565b5b610e3184828501610dc3565b91505092915050565b60008115159050919050565b610e4f81610e3a565b82525050565b6000602082019050610e6a6000830184610e46565b92915050565b610e7981610c6f565b8114610e8457600080fd5b50565b600081359050610e9681610e70565b92915050565b600060208284031215610eb257610eb1610ba2565b5b6000610ec084828501610e87565b91505092915050565b600081519050919050565b600082825260208201905092915050565b60005b83811015610f03578082015181840152602081019050610ee8565b83811115610f12576000848401525b50505050565b6000610f2382610ec9565b610f2d8185610ed4565b9350610f3d818560208601610ee5565b610f4681610cb5565b840191505092915050565b610f5a81610bac565b82525050565b600063ffffffff82169050919050565b610f7981610f60565b82525050565b600061ffff82169050919050565b610f9681610f7f565b82525050565b600060c0820190508181036000830152610fb68189610f18565b9050610fc56020830188610f51565b610fd26040830187610f70565b610fdf6060830186610f70565b610fec6080830185610f8d565b610ff960a0830184610f8d565b979650505050505050565b60006020820190506110196000830184610f51565b92915050565b61102881610e3a565b811461103357600080fd5b50565b6000815190506110458161101f565b92915050565b60008151905061105a81610bb6565b92915050565b6000806000806000806000806000806101408b8d03121561108457611083610ba2565b5b60006110928d828e01611036565b9a505060206110a38d828e01611036565b99505060406110b48d828e0161104b565b98505060606110c58d828e0161104b565b97505060806110d68d828e0161104b565b96505060a06110e78d828e0161104b565b95505060c06110f88d828e0161104b565b94505060e06111098d828e0161104b565b93505061010061111b8d828e0161104b565b92505061012061112d8d828e0161104b565b9150509295989b9194979a5092959850565b7f4e487b7100000000000000000000000000000000000000000000000000000000600052602260045260246000fd5b6000600282049050600182168061118657607f821691505b6020821081141561119a5761119961113f565b5b50919050565b7f4e487b7100000000000000000000000000000000000000000000000000000000600052603260045260246000fd5b7f4e487b7100000000000000000000000000000000000000000000000000000000600052601260045260246000fd5b600061120982610bac565b915061121483610bac565b925082611224576112236111cf565b5b828206905092915050565b7f4e487b7100000000000000000000000000000000000000000000000000000000600052601160045260246000fd5b600061126982610bac565b915061127483610bac565b9250827fffffffffffffffffffffffffffffffffffffffffffffffffffffffffffffffff038211156112a9576112a861122f565b5b828201905092915050565b60006112bf82610bac565b91506112ca83610bac565b9250826112da576112d96111cf565b5b828204905092915050565b600081905092915050565b60006112fb82610ec9565b61130581856112e5565b9350611315818560208601610ee5565b80840191505092915050565b600061132d82846112f0565b915081905092915050565b600061134382610bac565b915061134e83610bac565b9250828210156113615761136061122f565b5b828203905092915050565b600061137782610bac565b91507fffffffffffffffffffffffffffffffffffffffffffffffffffffffffffffffff8214156113aa576113a961122f565b5b600182019050919050565b60006060820190506113ca6000830186610f51565b81810360208301526113dc8185610f18565b90506113eb6040830184610f51565b94935050505056fea264697066735822122071ab65d7919db0c790473f8c0cca659d33953daf4f786f6aeddd48220eb43ebd64736f6c634300080a0033",
  "immutableReferences": {},
  "source": "pragma solidity ^0.8.0;\r\n\r\nimport \"./ownable.sol\";\r\n\r\nimport \"./CarMaker.sol\";\r\n\r\n// using CryptoKittyes inferface\r\nabstract contract CryptoKittyInterface {\r\n  function getKitty(uint256 _id) external virtual view returns (\r\n    bool isGestating,\r\n    bool isReady,\r\n    uint256 cooldownIndex,\r\n    uint256 nextActionAt,\r\n    uint256 siringWithId,\r\n    uint256 birthTime,\r\n    uint256 matronId,\r\n    uint256 sireId,\r\n    uint256 generation,\r\n    uint256 genes\r\n  );\r\n}\r\n\r\ncontract CarOvertaking is CarMaker{\r\n    \r\n\r\n    CryptoKittyInterface ckContract;\r\n\r\n    modifier justOwnerOf(uint _id){\r\n      require(msg.sender == carToOwner[_id]);\r\n      _;\r\n    }\r\n    function setCkContractAddress(address _address) external onlyOwner{\r\n        ckContract = CryptoKittyInterface(_address);\r\n    }\r\n\r\n    function _triggerPitStop(Car storage _car) internal {\r\n      _car.pitTime = uint32(block.timestamp + stopTime);\r\n    }\r\n\r\n    function _readyToGo(Car storage _car) internal view returns (bool){\r\n      return (_car.pitTime <= block.timestamp);\r\n    }\r\n\r\n\r\n    function overtakeAndMultiply(uint _id, uint _targetVin) internal justOwnerOf(_id){\r\n        Car storage myCar = cars[_id];\r\n        require(_readyToGo(myCar));\r\n        _targetVin= _targetVin % vinMod;\r\n        uint newVin = (myCar.vin + _targetVin) / 2 ;    \r\n        _CarCreate(\"NoName\", newVin);\r\n        _triggerPitStop(myCar);\r\n    }\r\n\r\n    function overtakeCK(uint _id, uint _ckId) public {\r\n    uint kittyDna;\r\n    (,,,,,,,,,kittyDna) = ckContract.getKitty(_ckId);\r\n    overtakeAndMultiply(_id, kittyDna);\r\n  }\r\n\r\n}",
  "sourcePath": "C:\\Users\\prafa\\Desktop\\cripto\\cars_project\\contracts\\carOvertake.sol",
  "compiler": {
    "name": "solc",
    "version": "0.8.10+commit.fc410830.Emscripten.clang"
  },
  "schemaVersion": "3.4.3",
  "updatedAt": "2022-04-16T19:38:30.540Z",
  "devdoc": {
    "kind": "dev",
    "methods": {
      "isOwner()": {
        "returns": {
          "_0": "true if `msg.sender` is the owner of the contract."
        }
      },
      "owner()": {
        "returns": {
          "_0": "the address of the owner."
        }
      },
      "renounceOwnership()": {
        "details": "Allows the current owner to relinquish control of the contract."
      },
      "transferOwnership(address)": {
        "details": "Allows the current owner to transfer control of the contract to a newOwner.",
        "params": {
          "newOwner": "The address to transfer ownership to."
        }
      }
    },
    "version": 1
  },
  "userdoc": {
    "kind": "user",
    "methods": {
      "renounceOwnership()": {
        "notice": "Renouncing to ownership will leave the contract without an owner. It will not be possible to call the functions with the `onlyOwner` modifier anymore."
      }
    },
    "version": 1
  }
}