{
  "contractName": "carRace",
  "abi": [
    {
      "anonymous": false,
      "inputs": [
        {
          "indexed": true,
          "internalType": "address",
          "name": "previousOwner",
          "type": "address"
        },
        {
          "indexed": true,
          "internalType": "address",
          "name": "newOwner",
          "type": "address"
        }
      ],
      "name": "OwnershipTransferred",
      "type": "event"
    },
    {
      "anonymous": false,
      "inputs": [
        {
          "indexed": false,
          "internalType": "uint256",
          "name": "id",
          "type": "uint256"
        },
        {
          "indexed": false,
          "internalType": "string",
          "name": "name",
          "type": "string"
        },
        {
          "indexed": false,
          "internalType": "uint256",
          "name": "vin",
          "type": "uint256"
        }
      ],
      "name": "newCar",
      "type": "event"
    },
    {
      "inputs": [
        {
          "internalType": "address",
          "name": "_owner",
          "type": "address"
        }
      ],
      "name": "CarsByOwner",
      "outputs": [
        {
          "internalType": "uint256[]",
          "name": "",
          "type": "uint256[]"
        }
      ],
      "stateMutability": "view",
      "type": "function"
    },
    {
      "inputs": [
        {
          "internalType": "uint256",
          "name": "",
          "type": "uint256"
        }
      ],
      "name": "carToOwner",
      "outputs": [
        {
          "internalType": "address",
          "name": "",
          "type": "address"
        }
      ],
      "stateMutability": "view",
      "type": "function"
    },
    {
      "inputs": [
        {
          "internalType": "uint256",
          "name": "",
          "type": "uint256"
        }
      ],
      "name": "cars",
      "outputs": [
        {
          "internalType": "string",
          "name": "name",
          "type": "string"
        },
        {
          "internalType": "uint256",
          "name": "vin",
          "type": "uint256"
        },
        {
          "internalType": "uint32",
          "name": "rating",
          "type": "uint32"
        },
        {
          "internalType": "uint32",
          "name": "pitTime",
          "type": "uint32"
        },
        {
          "internalType": "uint16",
          "name": "winCnt",
          "type": "uint16"
        },
        {
          "internalType": "uint16",
          "name": "lossCnt",
          "type": "uint16"
        }
      ],
      "stateMutability": "view",
      "type": "function"
    },
    {
      "inputs": [
        {
          "internalType": "string",
          "name": "_name",
          "type": "string"
        }
      ],
      "name": "createRandCar",
      "outputs": [],
      "stateMutability": "nonpayable",
      "type": "function"
    },
    {
      "inputs": [],
      "name": "isOwner",
      "outputs": [
        {
          "internalType": "bool",
          "name": "",
          "type": "bool"
        }
      ],
      "stateMutability": "view",
      "type": "function"
    },
    {
      "inputs": [
        {
          "internalType": "uint256",
          "name": "_id",
          "type": "uint256"
        },
        {
          "internalType": "string",
          "name": "_Name",
          "type": "string"
        }
      ],
      "name": "modifyName",
      "outputs": [],
      "stateMutability": "nonpayable",
      "type": "function"
    },
    {
      "inputs": [
        {
          "internalType": "uint256",
          "name": "_id",
          "type": "uint256"
        },
        {
          "internalType": "uint256",
          "name": "_Vin",
          "type": "uint256"
        }
      ],
      "name": "modifyVin",
      "outputs": [],
      "stateMutability": "nonpayable",
      "type": "function"
    },
    {
      "inputs": [
        {
          "internalType": "uint256",
          "name": "_id",
          "type": "uint256"
        }
      ],
      "name": "overtake",
      "outputs": [],
      "stateMutability": "payable",
      "type": "function"
    },
    {
      "inputs": [
        {
          "internalType": "uint256",
          "name": "_id",
          "type": "uint256"
        },
        {
          "internalType": "uint256",
          "name": "_ckId",
          "type": "uint256"
        }
      ],
      "name": "overtakeCK",
      "outputs": [],
      "stateMutability": "nonpayable",
      "type": "function"
    },
    {
      "inputs": [],
      "name": "owner",
      "outputs": [
        {
          "internalType": "address",
          "name": "",
          "type": "address"
        }
      ],
      "stateMutability": "view",
      "type": "function"
    },
    {
      "inputs": [],
      "name": "renounceOwnership",
      "outputs": [],
      "stateMutability": "nonpayable",
      "type": "function"
    },
    {
      "inputs": [
        {
          "internalType": "address",
          "name": "_address",
          "type": "address"
        }
      ],
      "name": "setCkContractAddress",
      "outputs": [],
      "stateMutability": "nonpayable",
      "type": "function"
    },
    {
      "inputs": [
        {
          "internalType": "uint256",
          "name": "_fee",
          "type": "uint256"
        }
      ],
      "name": "setOvertakeFee",
      "outputs": [],
      "stateMutability": "nonpayable",
      "type": "function"
    },
    {
      "inputs": [
        {
          "internalType": "address",
          "name": "newOwner",
          "type": "address"
        }
      ],
      "name": "transferOwnership",
      "outputs": [],
      "stateMutability": "nonpayable",
      "type": "function"
    },
    {
      "inputs": [],
      "name": "withdraw",
      "outputs": [],
      "stateMutability": "nonpayable",
      "type": "function"
    },
    {
      "inputs": [
        {
          "internalType": "uint256",
          "name": "_id",
          "type": "uint256"
        },
        {
          "internalType": "uint256",
          "name": "_opponentId",
          "type": "uint256"
        }
      ],
      "name": "race",
      "outputs": [],
      "stateMutability": "nonpayable",
      "type": "function"
    }
  ],
  "bytecode": "0x60806040526010600155600154600a6200001a919062000294565b60025561465060035566038d7ea4c680006008556000600955603b600a553480156200004557600080fd5b50336000806101000a81548173ffffffffffffffffffffffffffffffffffffffff021916908373ffffffffffffffffffffffffffffffffffffffff16021790555060008054906101000a900473ffffffffffffffffffffffffffffffffffffffff1673ffffffffffffffffffffffffffffffffffffffff16600073ffffffffffffffffffffffffffffffffffffffff167f8be0079c531659141344cd1fd0a4f28419497f9722a3daafe3b4186f6b6457e060405160405180910390a3620002e5565b7f4e487b7100000000000000000000000000000000000000000000000000000000600052601160045260246000fd5b60008160011c9050919050565b6000808291508390505b600185111562000195578086048111156200016d576200016c62000107565b5b60018516156200017d5780820291505b80810290506200018d8562000136565b94506200014d565b94509492505050565b600082620001b0576001905062000283565b81620001c0576000905062000283565b8160018114620001d95760028114620001e4576200021a565b600191505062000283565b60ff841115620001f957620001f862000107565b5b8360020a91508482111562000213576200021262000107565b5b5062000283565b5060208310610133831016604e8410600b8410161715620002545782820a9050838111156200024e576200024d62000107565b5b62000283565b62000263848484600162000143565b925090508184048111156200027d576200027c62000107565b5b81810290505b9392505050565b6000819050919050565b6000620002a1826200028a565b9150620002ae836200028a565b9250620002dd7fffffffffffffffffffffffffffffffffffffffffffffffffffffffffffffffff84846200019e565b905092915050565b611fe380620002f56000396000f3fe6080604052600436106100f35760003560e01c80638f32d59b1161008a578063ccf502e011610059578063ccf502e0146102df578063f2fde38b14610308578063f7746e3614610331578063f93968b614610373576100f3565b80638f32d59b14610246578063908c169614610271578063aa7ac57d1461029a578063b300dacb146102c3576100f3565b8063574eea4c116100c6578063574eea4c1461019e5780636a877b75146101db578063715018a6146102045780638da5cb5b1461021b576100f3565b8063083896b8146100f857806333ca504b146101215780633ccfd60b1461015e578063432849c114610175575b600080fd5b34801561010457600080fd5b5061011f600480360381019061011a91906114fe565b61039c565b005b34801561012d57600080fd5b506101486004803603810190610143919061153e565b610484565b60405161015591906115ac565b60405180910390f35b34801561016a57600080fd5b506101736104b7565b005b34801561018157600080fd5b5061019c6004803603810190610197919061170d565b61051e565b005b3480156101aa57600080fd5b506101c560048036038101906101c09190611782565b610585565b6040516101d2919061186d565b60405180910390f35b3480156101e757600080fd5b5061020260048036038101906101fd919061153e565b6106d8565b005b34801561021057600080fd5b506102196106f3565b005b34801561022757600080fd5b506102306107c2565b60405161023d91906115ac565b60405180910390f35b34801561025257600080fd5b5061025b6107eb565b60405161026891906118aa565b60405180910390f35b34801561027d57600080fd5b50610298600480360381019061029391906114fe565b610842565b005b3480156102a657600080fd5b506102c160048036038101906102bc91906114fe565b610a6d565b005b6102dd60048036038101906102d8919061153e565b610b55565b005b3480156102eb57600080fd5b5061030660048036038101906103019190611782565b610bca565b005b34801561031457600080fd5b5061032f600480360381019061032a9190611782565b610c1f565b005b34801561033d57600080fd5b506103586004803603810190610353919061153e565b610c3c565b60405161036a96959493929190611998565b60405180910390f35b34801561037f57600080fd5b5061039a60048036038101906103959190611a60565b610d4c565b005b6000600760009054906101000a900473ffffffffffffffffffffffffffffffffffffffff1673ffffffffffffffffffffffffffffffffffffffff1663e98b7f4d836040518263ffffffff1660e01b81526004016103f99190611ac0565b61014060405180830381865afa158015610417573d6000803e3d6000fd5b505050506040513d601f19601f8201168201806040525081019061043b9190611b1c565b9091929394959697985090919293949596975090919293949596509091929394955090919293945090919293509091925090915090508091505061047f8382610e40565b505050565b60056020528060005260406000206000915054906101000a900473ffffffffffffffffffffffffffffffffffffffff1681565b6104bf6107eb565b6104c857600080fd5b60006104d26107c2565b90508073ffffffffffffffffffffffffffffffffffffffff166108fc479081150290604051600060405180830381858888f1935050505015801561051a573d6000803e3d6000fd5b5050565b6000600660003373ffffffffffffffffffffffffffffffffffffffff1673ffffffffffffffffffffffffffffffffffffffff168152602001908152602001600020541461056a57600080fd5b600061057582610f63565b90506105818282610fa8565b5050565b60606000600660008473ffffffffffffffffffffffffffffffffffffffff1673ffffffffffffffffffffffffffffffffffffffff1681526020019081526020016000205467ffffffffffffffff8111156105e2576105e16115e2565b5b6040519080825280602002602001820160405280156106105781602001602082028036833780820191505090505b5090506000805b6004805490508110156106cd578473ffffffffffffffffffffffffffffffffffffffff166005600083815260200190815260200160002060009054906101000a900473ffffffffffffffffffffffffffffffffffffffff1673ffffffffffffffffffffffffffffffffffffffff1614156106ba578083838151811061069f5761069e611bfb565b5b60200260200101818152505081806106b690611c59565b9250505b80806106c590611c59565b915050610617565b508192505050919050565b6106e06107eb565b6106e957600080fd5b8060088190555050565b6106fb6107eb565b61070457600080fd5b600073ffffffffffffffffffffffffffffffffffffffff1660008054906101000a900473ffffffffffffffffffffffffffffffffffffffff1673ffffffffffffffffffffffffffffffffffffffff167f8be0079c531659141344cd1fd0a4f28419497f9722a3daafe3b4186f6b6457e060405160405180910390a360008060006101000a81548173ffffffffffffffffffffffffffffffffffffffff021916908373ffffffffffffffffffffffffffffffffffffffff160217905550565b60008060009054906101000a900473ffffffffffffffffffffffffffffffffffffffff16905090565b60008060009054906101000a900473ffffffffffffffffffffffffffffffffffffffff1673ffffffffffffffffffffffffffffffffffffffff163373ffffffffffffffffffffffffffffffffffffffff1614905090565b816005600082815260200190815260200160002060009054906101000a900473ffffffffffffffffffffffffffffffffffffffff1673ffffffffffffffffffffffffffffffffffffffff163373ffffffffffffffffffffffffffffffffffffffff16146108ae57600080fd5b6000600484815481106108c4576108c3611bfb565b5b906000526020600020906003020190506000600484815481106108ea576108e9611bfb565b5b90600052602060002090600302019050600061090660646111de565b9050600a5481116109e15782600201600881819054906101000a900461ffff168092919061093390611ca2565b91906101000a81548161ffff021916908361ffff1602179055505082600201600081819054906101000a900463ffffffff168092919061097290611ccd565b91906101000a81548163ffffffff021916908363ffffffff1602179055505081600201600a81819054906101000a900461ffff16809291906109b390611ca2565b91906101000a81548161ffff021916908361ffff160217905550506109dc868360010154610e40565b610a65565b82600201600a81819054906101000a900461ffff1680929190610a0390611ca2565b91906101000a81548161ffff021916908361ffff1602179055505081600201600881819054906101000a900461ffff1680929190610a4090611ca2565b91906101000a81548161ffff021916908361ffff16021790555050610a648361123a565b5b505050505050565b6014828160048281548110610a8557610a84611bfb565b5b906000526020600020906003020160020160009054906101000a900463ffffffff1663ffffffff161015610ab857600080fd5b836005600082815260200190815260200160002060009054906101000a900473ffffffffffffffffffffffffffffffffffffffff1673ffffffffffffffffffffffffffffffffffffffff163373ffffffffffffffffffffffffffffffffffffffff1614610b2457600080fd5b8360048681548110610b3957610b38611bfb565b5b9060005260206000209060030201600101819055505050505050565b6008543414610b6357600080fd5b60048181548110610b7757610b76611bfb565b5b9060005260206000209060030201600201600081819054906101000a900463ffffffff1680929190610ba890611ccd565b91906101000a81548163ffffffff021916908363ffffffff1602179055505050565b610bd26107eb565b610bdb57600080fd5b80600760006101000a81548173ffffffffffffffffffffffffffffffffffffffff021916908373ffffffffffffffffffffffffffffffffffffffff16021790555050565b610c276107eb565b610c3057600080fd5b610c398161126d565b50565b60048181548110610c4c57600080fd5b9060005260206000209060030201600091509050806000018054610c6f90611d29565b80601f0160208091040260200160405190810160405280929190818152602001828054610c9b90611d29565b8015610ce85780601f10610cbd57610100808354040283529160200191610ce8565b820191906000526020600020905b815481529060010190602001808311610ccb57829003601f168201915b5050505050908060010154908060020160009054906101000a900463ffffffff16908060020160049054906101000a900463ffffffff16908060020160089054906101000a900461ffff169080600201600a9054906101000a900461ffff16905086565b6003838160048281548110610d6457610d63611bfb565b5b906000526020600020906003020160020160009054906101000a900463ffffffff1663ffffffff161015610d9757600080fd5b846005600082815260200190815260200160002060009054906101000a900473ffffffffffffffffffffffffffffffffffffffff1673ffffffffffffffffffffffffffffffffffffffff163373ffffffffffffffffffffffffffffffffffffffff1614610e0357600080fd5b848460048881548110610e1957610e18611bfb565b5b90600052602060002090600302016000019190610e3792919061138b565b50505050505050565b816005600082815260200190815260200160002060009054906101000a900473ffffffffffffffffffffffffffffffffffffffff1673ffffffffffffffffffffffffffffffffffffffff163373ffffffffffffffffffffffffffffffffffffffff1614610eac57600080fd5b600060048481548110610ec257610ec1611bfb565b5b90600052602060002090600302019050610edb81611364565b610ee457600080fd5b60025483610ef29190611d8a565b925060006002848360010154610f089190611dbb565b610f129190611e11565b9050610f536040518060400160405280600681526020017f4e6f4e616d65000000000000000000000000000000000000000000000000000081525082610fa8565b610f5c8261123a565b5050505050565b60008082604051602001610f779190611e7e565b6040516020818303038152906040528051906020012060001c905060025481610fa09190611d8a565b915050919050565b60046040518060c00160405280848152602001838152602001600163ffffffff16815260200160035442610fdc9190611dbb565b63ffffffff168152602001600061ffff168152602001600061ffff1681525090806001815401808255809150506001900390600052602060002090600302016000909190919091506000820151816000019080519060200190611040929190611411565b506020820151816001015560408201518160020160006101000a81548163ffffffff021916908363ffffffff16021790555060608201518160020160046101000a81548163ffffffff021916908363ffffffff16021790555060808201518160020160086101000a81548161ffff021916908361ffff16021790555060a082015181600201600a6101000a81548161ffff021916908361ffff1602179055505050600060016004805490506110f59190611e95565b9050336005600083815260200190815260200160002060006101000a81548173ffffffffffffffffffffffffffffffffffffffff021916908373ffffffffffffffffffffffffffffffffffffffff160217905550600660003373ffffffffffffffffffffffffffffffffffffffff1673ffffffffffffffffffffffffffffffffffffffff168152602001908152602001600020600081548092919061119990611c59565b91905055507ff815b0f555f1a0faf740ff42a7285835d1e31c8a266d8f0b5c0451049f833cdb8184846040516111d193929190611ec9565b60405180910390a1505050565b6000600960008154809291906111f390611c59565b919050555081423360095460405160200161121093929190611f70565b6040516020818303038152906040528051906020012060001c6112339190611d8a565b9050919050565b600354426112489190611dbb565b8160020160046101000a81548163ffffffff021916908363ffffffff16021790555050565b600073ffffffffffffffffffffffffffffffffffffffff168173ffffffffffffffffffffffffffffffffffffffff1614156112a757600080fd5b8073ffffffffffffffffffffffffffffffffffffffff1660008054906101000a900473ffffffffffffffffffffffffffffffffffffffff1673ffffffffffffffffffffffffffffffffffffffff167f8be0079c531659141344cd1fd0a4f28419497f9722a3daafe3b4186f6b6457e060405160405180910390a3806000806101000a81548173ffffffffffffffffffffffffffffffffffffffff021916908373ffffffffffffffffffffffffffffffffffffffff16021790555050565b6000428260020160049054906101000a900463ffffffff1663ffffffff1611159050919050565b82805461139790611d29565b90600052602060002090601f0160209004810192826113b95760008555611400565b82601f106113d257803560ff1916838001178555611400565b82800160010185558215611400579182015b828111156113ff5782358255916020019190600101906113e4565b5b50905061140d9190611497565b5090565b82805461141d90611d29565b90600052602060002090601f01602090048101928261143f5760008555611486565b82601f1061145857805160ff1916838001178555611486565b82800160010185558215611486579182015b8281111561148557825182559160200191906001019061146a565b5b5090506114939190611497565b5090565b5b808211156114b0576000816000905550600101611498565b5090565b6000604051905090565b600080fd5b600080fd5b6000819050919050565b6114db816114c8565b81146114e657600080fd5b50565b6000813590506114f8816114d2565b92915050565b60008060408385031215611515576115146114be565b5b6000611523858286016114e9565b9250506020611534858286016114e9565b9150509250929050565b600060208284031215611554576115536114be565b5b6000611562848285016114e9565b91505092915050565b600073ffffffffffffffffffffffffffffffffffffffff82169050919050565b60006115968261156b565b9050919050565b6115a68161158b565b82525050565b60006020820190506115c1600083018461159d565b92915050565b600080fd5b600080fd5b6000601f19601f8301169050919050565b7f4e487b7100000000000000000000000000000000000000000000000000000000600052604160045260246000fd5b61161a826115d1565b810181811067ffffffffffffffff82111715611639576116386115e2565b5b80604052505050565b600061164c6114b4565b90506116588282611611565b919050565b600067ffffffffffffffff821115611678576116776115e2565b5b611681826115d1565b9050602081019050919050565b82818337600083830152505050565b60006116b06116ab8461165d565b611642565b9050828152602081018484840111156116cc576116cb6115cc565b5b6116d784828561168e565b509392505050565b600082601f8301126116f4576116f36115c7565b5b813561170484826020860161169d565b91505092915050565b600060208284031215611723576117226114be565b5b600082013567ffffffffffffffff811115611741576117406114c3565b5b61174d848285016116df565b91505092915050565b61175f8161158b565b811461176a57600080fd5b50565b60008135905061177c81611756565b92915050565b600060208284031215611798576117976114be565b5b60006117a68482850161176d565b91505092915050565b600081519050919050565b600082825260208201905092915050565b6000819050602082019050919050565b6117e4816114c8565b82525050565b60006117f683836117db565b60208301905092915050565b6000602082019050919050565b600061181a826117af565b61182481856117ba565b935061182f836117cb565b8060005b8381101561186057815161184788826117ea565b975061185283611802565b925050600181019050611833565b5085935050505092915050565b60006020820190508181036000830152611887818461180f565b905092915050565b60008115159050919050565b6118a48161188f565b82525050565b60006020820190506118bf600083018461189b565b92915050565b600081519050919050565b600082825260208201905092915050565b60005b838110156118ff5780820151818401526020810190506118e4565b8381111561190e576000848401525b50505050565b600061191f826118c5565b61192981856118d0565b93506119398185602086016118e1565b611942816115d1565b840191505092915050565b611956816114c8565b82525050565b600063ffffffff82169050919050565b6119758161195c565b82525050565b600061ffff82169050919050565b6119928161197b565b82525050565b600060c08201905081810360008301526119b28189611914565b90506119c1602083018861194d565b6119ce604083018761196c565b6119db606083018661196c565b6119e86080830185611989565b6119f560a0830184611989565b979650505050505050565b600080fd5b600080fd5b60008083601f840112611a2057611a1f6115c7565b5b8235905067ffffffffffffffff811115611a3d57611a3c611a00565b5b602083019150836001820283011115611a5957611a58611a05565b5b9250929050565b600080600060408486031215611a7957611a786114be565b5b6000611a87868287016114e9565b935050602084013567ffffffffffffffff811115611aa857611aa76114c3565b5b611ab486828701611a0a565b92509250509250925092565b6000602082019050611ad5600083018461194d565b92915050565b611ae48161188f565b8114611aef57600080fd5b50565b600081519050611b0181611adb565b92915050565b600081519050611b16816114d2565b92915050565b6000806000806000806000806000806101408b8d031215611b4057611b3f6114be565b5b6000611b4e8d828e01611af2565b9a50506020611b5f8d828e01611af2565b9950506040611b708d828e01611b07565b9850506060611b818d828e01611b07565b9750506080611b928d828e01611b07565b96505060a0611ba38d828e01611b07565b95505060c0611bb48d828e01611b07565b94505060e0611bc58d828e01611b07565b935050610100611bd78d828e01611b07565b925050610120611be98d828e01611b07565b9150509295989b9194979a5092959850565b7f4e487b7100000000000000000000000000000000000000000000000000000000600052603260045260246000fd5b7f4e487b7100000000000000000000000000000000000000000000000000000000600052601160045260246000fd5b6000611c64826114c8565b91507fffffffffffffffffffffffffffffffffffffffffffffffffffffffffffffffff821415611c9757611c96611c2a565b5b600182019050919050565b6000611cad8261197b565b915061ffff821415611cc257611cc1611c2a565b5b600182019050919050565b6000611cd88261195c565b915063ffffffff821415611cef57611cee611c2a565b5b600182019050919050565b7f4e487b7100000000000000000000000000000000000000000000000000000000600052602260045260246000fd5b60006002820490506001821680611d4157607f821691505b60208210811415611d5557611d54611cfa565b5b50919050565b7f4e487b7100000000000000000000000000000000000000000000000000000000600052601260045260246000fd5b6000611d95826114c8565b9150611da0836114c8565b925082611db057611daf611d5b565b5b828206905092915050565b6000611dc6826114c8565b9150611dd1836114c8565b9250827fffffffffffffffffffffffffffffffffffffffffffffffffffffffffffffffff03821115611e0657611e05611c2a565b5b828201905092915050565b6000611e1c826114c8565b9150611e27836114c8565b925082611e3757611e36611d5b565b5b828204905092915050565b600081905092915050565b6000611e58826118c5565b611e628185611e42565b9350611e728185602086016118e1565b80840191505092915050565b6000611e8a8284611e4d565b915081905092915050565b6000611ea0826114c8565b9150611eab836114c8565b925082821015611ebe57611ebd611c2a565b5b828203905092915050565b6000606082019050611ede600083018661194d565b8181036020830152611ef08185611914565b9050611eff604083018461194d565b949350505050565b6000819050919050565b611f22611f1d826114c8565b611f07565b82525050565b60008160601b9050919050565b6000611f4082611f28565b9050919050565b6000611f5282611f35565b9050919050565b611f6a611f658261158b565b611f47565b82525050565b6000611f7c8286611f11565b602082019150611f8c8285611f59565b601482019150611f9c8284611f11565b60208201915081905094935050505056fea264697066735822122040710d671b9eae90497ba77e3c04fa83dd9a7afc7ffdff1c092a5424b53049da64736f6c634300080a0033",
  "immutableReferences": {},
  "source": "pragma solidity ^0.8.0;\r\n\r\nimport \"./carhelper.sol\";\r\n\r\ncontract carRace is CarHelper{\r\n    // implementare fara standard de securitate\r\n    // folosire oracle -> in viitor\r\n    uint randNonce = 0;\r\n\r\n    uint raceWinProb = 59;    \r\n\r\n    function randMod(uint _modulus) internal returns(uint) {\r\n        randNonce ++;\r\n        return uint(keccak256(abi.encodePacked(block.timestamp, msg.sender, randNonce))) % _modulus;\r\n    }\r\n\r\n    function race(uint _id,uint _opponentId) external justOwnerOf(_id){\r\n        Car storage myCar = cars[_id];\r\n        Car storage opponentCar = cars[_opponentId];\r\n        uint rand = randMod(100);\r\n        if(rand<=raceWinProb){\r\n            myCar.winCnt ++;\r\n            myCar.rating ++;\r\n            opponentCar.lossCnt ++ ;\r\n            overtakeAndMultiply(_id, opponentCar.vin);\r\n        }else{\r\n            myCar.lossCnt ++;\r\n            opponentCar.winCnt ++;\r\n            _triggerPitStop(myCar);\r\n        }\r\n\r\n    }\r\n}",
  "sourcePath": "C:\\Users\\prafa\\Desktop\\cripto\\cars_project\\contracts\\carRace.sol",
  "compiler": {
    "name": "solc",
    "version": "0.8.10+commit.fc410830.Emscripten.clang"
  },
  "schemaVersion": "3.4.3",
  "updatedAt": "2022-04-16T19:38:30.572Z",
  "devdoc": {
    "kind": "dev",
    "methods": {
      "isOwner()": {
        "returns": {
          "_0": "true if `msg.sender` is the owner of the contract."
        }
      },
      "owner()": {
        "returns": {
          "_0": "the address of the owner."
        }
      },
      "renounceOwnership()": {
        "details": "Allows the current owner to relinquish control of the contract."
      },
      "transferOwnership(address)": {
        "details": "Allows the current owner to transfer control of the contract to a newOwner.",
        "params": {
          "newOwner": "The address to transfer ownership to."
        }
      }
    },
    "version": 1
  },
  "userdoc": {
    "kind": "user",
    "methods": {
      "renounceOwnership()": {
        "notice": "Renouncing to ownership will leave the contract without an owner. It will not be possible to call the functions with the `onlyOwner` modifier anymore."
      }
    },
    "version": 1
  }
}