{
  "contractName": "carRace",
  "abi": [
    {
      "anonymous": false,
      "inputs": [
        {
          "indexed": true,
          "internalType": "address",
          "name": "previousOwner",
          "type": "address"
        },
        {
          "indexed": true,
          "internalType": "address",
          "name": "newOwner",
          "type": "address"
        }
      ],
      "name": "OwnershipTransferred",
      "type": "event"
    },
    {
      "anonymous": false,
      "inputs": [
        {
          "indexed": false,
          "internalType": "uint256",
          "name": "id",
          "type": "uint256"
        },
        {
          "indexed": false,
          "internalType": "string",
          "name": "name",
          "type": "string"
        },
        {
          "indexed": false,
          "internalType": "uint256",
          "name": "vin",
          "type": "uint256"
        }
      ],
      "name": "newCar",
      "type": "event"
    },
    {
      "inputs": [
        {
          "internalType": "address",
          "name": "_owner",
          "type": "address"
        }
      ],
      "name": "CarsByOwner",
      "outputs": [
        {
          "internalType": "uint256[]",
          "name": "",
          "type": "uint256[]"
        }
      ],
      "stateMutability": "view",
      "type": "function"
    },
    {
      "inputs": [
        {
          "internalType": "string",
          "name": "_name",
          "type": "string"
        }
      ],
      "name": "_randVin2",
      "outputs": [
        {
          "internalType": "uint256",
          "name": "",
          "type": "uint256"
        }
      ],
      "stateMutability": "view",
      "type": "function"
    },
    {
      "inputs": [
        {
          "internalType": "uint256",
          "name": "",
          "type": "uint256"
        }
      ],
      "name": "carToOwner",
      "outputs": [
        {
          "internalType": "address",
          "name": "",
          "type": "address"
        }
      ],
      "stateMutability": "view",
      "type": "function"
    },
    {
      "inputs": [
        {
          "internalType": "uint256",
          "name": "",
          "type": "uint256"
        }
      ],
      "name": "cars",
      "outputs": [
        {
          "internalType": "string",
          "name": "name",
          "type": "string"
        },
        {
          "internalType": "uint256",
          "name": "vin",
          "type": "uint256"
        },
        {
          "internalType": "uint32",
          "name": "rating",
          "type": "uint32"
        },
        {
          "internalType": "uint32",
          "name": "pitTime",
          "type": "uint32"
        },
        {
          "internalType": "uint16",
          "name": "winCnt",
          "type": "uint16"
        },
        {
          "internalType": "uint16",
          "name": "lossCnt",
          "type": "uint16"
        }
      ],
      "stateMutability": "view",
      "type": "function"
    },
    {
      "inputs": [
        {
          "internalType": "string",
          "name": "_name",
          "type": "string"
        }
      ],
      "name": "createRandCar",
      "outputs": [],
      "stateMutability": "nonpayable",
      "type": "function"
    },
    {
      "inputs": [],
      "name": "isOwner",
      "outputs": [
        {
          "internalType": "bool",
          "name": "",
          "type": "bool"
        }
      ],
      "stateMutability": "view",
      "type": "function"
    },
    {
      "inputs": [
        {
          "internalType": "uint256",
          "name": "_id",
          "type": "uint256"
        },
        {
          "internalType": "string",
          "name": "_Name",
          "type": "string"
        }
      ],
      "name": "modifyName",
      "outputs": [],
      "stateMutability": "nonpayable",
      "type": "function"
    },
    {
      "inputs": [
        {
          "internalType": "uint256",
          "name": "_id",
          "type": "uint256"
        },
        {
          "internalType": "uint256",
          "name": "_Vin",
          "type": "uint256"
        }
      ],
      "name": "modifyVin",
      "outputs": [],
      "stateMutability": "nonpayable",
      "type": "function"
    },
    {
      "inputs": [
        {
          "internalType": "uint256",
          "name": "_id",
          "type": "uint256"
        }
      ],
      "name": "overtake",
      "outputs": [],
      "stateMutability": "payable",
      "type": "function"
    },
    {
      "inputs": [
        {
          "internalType": "uint256",
          "name": "_id",
          "type": "uint256"
        },
        {
          "internalType": "uint256",
          "name": "_ckId",
          "type": "uint256"
        }
      ],
      "name": "overtakeCK",
      "outputs": [],
      "stateMutability": "nonpayable",
      "type": "function"
    },
    {
      "inputs": [],
      "name": "owner",
      "outputs": [
        {
          "internalType": "address",
          "name": "",
          "type": "address"
        }
      ],
      "stateMutability": "view",
      "type": "function"
    },
    {
      "inputs": [],
      "name": "renounceOwnership",
      "outputs": [],
      "stateMutability": "nonpayable",
      "type": "function"
    },
    {
      "inputs": [
        {
          "internalType": "address",
          "name": "_address",
          "type": "address"
        }
      ],
      "name": "setCkContractAddress",
      "outputs": [],
      "stateMutability": "nonpayable",
      "type": "function"
    },
    {
      "inputs": [
        {
          "internalType": "uint256",
          "name": "_fee",
          "type": "uint256"
        }
      ],
      "name": "setOvertakeFee",
      "outputs": [],
      "stateMutability": "nonpayable",
      "type": "function"
    },
    {
      "inputs": [
        {
          "internalType": "address",
          "name": "newOwner",
          "type": "address"
        }
      ],
      "name": "transferOwnership",
      "outputs": [],
      "stateMutability": "nonpayable",
      "type": "function"
    },
    {
      "inputs": [],
      "name": "withdraw",
      "outputs": [],
      "stateMutability": "nonpayable",
      "type": "function"
    },
    {
      "inputs": [
        {
          "internalType": "uint256",
          "name": "_id",
          "type": "uint256"
        },
        {
          "internalType": "uint256",
          "name": "_opponentId",
          "type": "uint256"
        }
      ],
      "name": "race",
      "outputs": [],
      "stateMutability": "nonpayable",
      "type": "function"
    }
  ],
  "bytecode": "0x60806040526010600155600154600a6200001a919062000293565b600255614650600355655af3107a40006008556000600955603b600a553480156200004457600080fd5b50336000806101000a81548173ffffffffffffffffffffffffffffffffffffffff021916908373ffffffffffffffffffffffffffffffffffffffff16021790555060008054906101000a900473ffffffffffffffffffffffffffffffffffffffff1673ffffffffffffffffffffffffffffffffffffffff16600073ffffffffffffffffffffffffffffffffffffffff167f8be0079c531659141344cd1fd0a4f28419497f9722a3daafe3b4186f6b6457e060405160405180910390a3620002e4565b7f4e487b7100000000000000000000000000000000000000000000000000000000600052601160045260246000fd5b60008160011c9050919050565b6000808291508390505b600185111562000194578086048111156200016c576200016b62000106565b5b60018516156200017c5780820291505b80810290506200018c8562000135565b94506200014c565b94509492505050565b600082620001af576001905062000282565b81620001bf576000905062000282565b8160018114620001d85760028114620001e35762000219565b600191505062000282565b60ff841115620001f857620001f762000106565b5b8360020a91508482111562000212576200021162000106565b5b5062000282565b5060208310610133831016604e8410600b8410161715620002535782820a9050838111156200024d576200024c62000106565b5b62000282565b62000262848484600162000142565b925090508184048111156200027c576200027b62000106565b5b81810290505b9392505050565b6000819050919050565b6000620002a08262000289565b9150620002ad8362000289565b9250620002dc7fffffffffffffffffffffffffffffffffffffffffffffffffffffffffffffffff84846200019d565b905092915050565b61207080620002f46000396000f3fe6080604052600436106100fe5760003560e01c80638f32d59b11610095578063ccf502e011610064578063ccf502e0146102ea578063cd5fecc314610313578063f2fde38b14610350578063f7746e3614610379578063f93968b6146103bb576100fe565b80638f32d59b14610251578063908c16961461027c578063aa7ac57d146102a5578063b300dacb146102ce576100fe565b8063574eea4c116100d1578063574eea4c146101a95780636a877b75146101e6578063715018a61461020f5780638da5cb5b14610226576100fe565b8063083896b81461010357806333ca504b1461012c5780633ccfd60b14610169578063432849c114610180575b600080fd5b34801561010f57600080fd5b5061012a6004803603810190610125919061158b565b6103e4565b005b34801561013857600080fd5b50610153600480360381019061014e91906115cb565b6104cc565b6040516101609190611639565b60405180910390f35b34801561017557600080fd5b5061017e6104ff565b005b34801561018c57600080fd5b506101a760048036038101906101a2919061179a565b610566565b005b3480156101b557600080fd5b506101d060048036038101906101cb919061180f565b6105cd565b6040516101dd91906118fa565b60405180910390f35b3480156101f257600080fd5b5061020d600480360381019061020891906115cb565b610720565b005b34801561021b57600080fd5b5061022461073b565b005b34801561023257600080fd5b5061023b61080a565b6040516102489190611639565b60405180910390f35b34801561025d57600080fd5b50610266610833565b6040516102739190611937565b60405180910390f35b34801561028857600080fd5b506102a3600480360381019061029e919061158b565b61088a565b005b3480156102b157600080fd5b506102cc60048036038101906102c7919061158b565b610ab5565b005b6102e860048036038101906102e391906115cb565b610b9d565b005b3480156102f657600080fd5b50610311600480360381019061030c919061180f565b610c12565b005b34801561031f57600080fd5b5061033a6004803603810190610335919061179a565b610c67565b6040516103479190611961565b60405180910390f35b34801561035c57600080fd5b506103776004803603810190610372919061180f565b610cac565b005b34801561038557600080fd5b506103a0600480360381019061039b91906115cb565b610cc9565b6040516103b296959493929190611a40565b60405180910390f35b3480156103c757600080fd5b506103e260048036038101906103dd9190611b08565b610dd9565b005b6000600760009054906101000a900473ffffffffffffffffffffffffffffffffffffffff1673ffffffffffffffffffffffffffffffffffffffff1663e98b7f4d836040518263ffffffff1660e01b81526004016104419190611961565b61014060405180830381865afa15801561045f573d6000803e3d6000fd5b505050506040513d601f19601f820116820180604052508101906104839190611ba9565b909192939495969798509091929394959697509091929394959650909192939495509091929394509091929350909192509091509050809150506104c78382610ecd565b505050565b60056020528060005260406000206000915054906101000a900473ffffffffffffffffffffffffffffffffffffffff1681565b610507610833565b61051057600080fd5b600061051a61080a565b90508073ffffffffffffffffffffffffffffffffffffffff166108fc479081150290604051600060405180830381858888f19350505050158015610562573d6000803e3d6000fd5b5050565b6000600660003373ffffffffffffffffffffffffffffffffffffffff1673ffffffffffffffffffffffffffffffffffffffff16815260200190815260200160002054146105b257600080fd5b60006105bd82610ff0565b90506105c98282611035565b5050565b60606000600660008473ffffffffffffffffffffffffffffffffffffffff1673ffffffffffffffffffffffffffffffffffffffff1681526020019081526020016000205467ffffffffffffffff81111561062a5761062961166f565b5b6040519080825280602002602001820160405280156106585781602001602082028036833780820191505090505b5090506000805b600480549050811015610715578473ffffffffffffffffffffffffffffffffffffffff166005600083815260200190815260200160002060009054906101000a900473ffffffffffffffffffffffffffffffffffffffff1673ffffffffffffffffffffffffffffffffffffffff16141561070257808383815181106106e7576106e6611c88565b5b60200260200101818152505081806106fe90611ce6565b9250505b808061070d90611ce6565b91505061065f565b508192505050919050565b610728610833565b61073157600080fd5b8060088190555050565b610743610833565b61074c57600080fd5b600073ffffffffffffffffffffffffffffffffffffffff1660008054906101000a900473ffffffffffffffffffffffffffffffffffffffff1673ffffffffffffffffffffffffffffffffffffffff167f8be0079c531659141344cd1fd0a4f28419497f9722a3daafe3b4186f6b6457e060405160405180910390a360008060006101000a81548173ffffffffffffffffffffffffffffffffffffffff021916908373ffffffffffffffffffffffffffffffffffffffff160217905550565b60008060009054906101000a900473ffffffffffffffffffffffffffffffffffffffff16905090565b60008060009054906101000a900473ffffffffffffffffffffffffffffffffffffffff1673ffffffffffffffffffffffffffffffffffffffff163373ffffffffffffffffffffffffffffffffffffffff1614905090565b816005600082815260200190815260200160002060009054906101000a900473ffffffffffffffffffffffffffffffffffffffff1673ffffffffffffffffffffffffffffffffffffffff163373ffffffffffffffffffffffffffffffffffffffff16146108f657600080fd5b60006004848154811061090c5761090b611c88565b5b9060005260206000209060030201905060006004848154811061093257610931611c88565b5b90600052602060002090600302019050600061094e606461126b565b9050600a548111610a295782600201600881819054906101000a900461ffff168092919061097b90611d2f565b91906101000a81548161ffff021916908361ffff1602179055505082600201600081819054906101000a900463ffffffff16809291906109ba90611d5a565b91906101000a81548163ffffffff021916908363ffffffff1602179055505081600201600a81819054906101000a900461ffff16809291906109fb90611d2f565b91906101000a81548161ffff021916908361ffff16021790555050610a24868360010154610ecd565b610aad565b82600201600a81819054906101000a900461ffff1680929190610a4b90611d2f565b91906101000a81548161ffff021916908361ffff1602179055505081600201600881819054906101000a900461ffff1680929190610a8890611d2f565b91906101000a81548161ffff021916908361ffff16021790555050610aac836112c7565b5b505050505050565b6014828160048281548110610acd57610acc611c88565b5b906000526020600020906003020160020160009054906101000a900463ffffffff1663ffffffff161015610b0057600080fd5b836005600082815260200190815260200160002060009054906101000a900473ffffffffffffffffffffffffffffffffffffffff1673ffffffffffffffffffffffffffffffffffffffff163373ffffffffffffffffffffffffffffffffffffffff1614610b6c57600080fd5b8360048681548110610b8157610b80611c88565b5b9060005260206000209060030201600101819055505050505050565b6008543414610bab57600080fd5b60048181548110610bbf57610bbe611c88565b5b9060005260206000209060030201600201600081819054906101000a900463ffffffff1680929190610bf090611d5a565b91906101000a81548163ffffffff021916908363ffffffff1602179055505050565b610c1a610833565b610c2357600080fd5b80600760006101000a81548173ffffffffffffffffffffffffffffffffffffffff021916908373ffffffffffffffffffffffffffffffffffffffff16021790555050565b60008082604051602001610c7b9190611dc3565b6040516020818303038152906040528051906020012060001c905060025481610ca49190611e09565b915050919050565b610cb4610833565b610cbd57600080fd5b610cc6816112fa565b50565b60048181548110610cd957600080fd5b9060005260206000209060030201600091509050806000018054610cfc90611e69565b80601f0160208091040260200160405190810160405280929190818152602001828054610d2890611e69565b8015610d755780601f10610d4a57610100808354040283529160200191610d75565b820191906000526020600020905b815481529060010190602001808311610d5857829003601f168201915b5050505050908060010154908060020160009054906101000a900463ffffffff16908060020160049054906101000a900463ffffffff16908060020160089054906101000a900461ffff169080600201600a9054906101000a900461ffff16905086565b6003838160048281548110610df157610df0611c88565b5b906000526020600020906003020160020160009054906101000a900463ffffffff1663ffffffff161015610e2457600080fd5b846005600082815260200190815260200160002060009054906101000a900473ffffffffffffffffffffffffffffffffffffffff1673ffffffffffffffffffffffffffffffffffffffff163373ffffffffffffffffffffffffffffffffffffffff1614610e9057600080fd5b848460048881548110610ea657610ea5611c88565b5b90600052602060002090600302016000019190610ec4929190611418565b50505050505050565b816005600082815260200190815260200160002060009054906101000a900473ffffffffffffffffffffffffffffffffffffffff1673ffffffffffffffffffffffffffffffffffffffff163373ffffffffffffffffffffffffffffffffffffffff1614610f3957600080fd5b600060048481548110610f4f57610f4e611c88565b5b90600052602060002090600302019050610f68816113f1565b610f7157600080fd5b60025483610f7f9190611e09565b925060006002848360010154610f959190611e9b565b610f9f9190611ef1565b9050610fe06040518060400160405280600681526020017f4e6f4e616d65000000000000000000000000000000000000000000000000000081525082611035565b610fe9826112c7565b5050505050565b600080826040516020016110049190611dc3565b6040516020818303038152906040528051906020012060001c90506002548161102d9190611e09565b915050919050565b60046040518060c00160405280848152602001838152602001600163ffffffff168152602001600354426110699190611e9b565b63ffffffff168152602001600061ffff168152602001600061ffff16815250908060018154018082558091505060019003906000526020600020906003020160009091909190915060008201518160000190805190602001906110cd92919061149e565b506020820151816001015560408201518160020160006101000a81548163ffffffff021916908363ffffffff16021790555060608201518160020160046101000a81548163ffffffff021916908363ffffffff16021790555060808201518160020160086101000a81548161ffff021916908361ffff16021790555060a082015181600201600a6101000a81548161ffff021916908361ffff1602179055505050600060016004805490506111829190611f22565b9050336005600083815260200190815260200160002060006101000a81548173ffffffffffffffffffffffffffffffffffffffff021916908373ffffffffffffffffffffffffffffffffffffffff160217905550600660003373ffffffffffffffffffffffffffffffffffffffff1673ffffffffffffffffffffffffffffffffffffffff168152602001908152602001600020600081548092919061122690611ce6565b91905055507ff815b0f555f1a0faf740ff42a7285835d1e31c8a266d8f0b5c0451049f833cdb81848460405161125e93929190611f56565b60405180910390a1505050565b60006009600081548092919061128090611ce6565b919050555081423360095460405160200161129d93929190611ffd565b6040516020818303038152906040528051906020012060001c6112c09190611e09565b9050919050565b600354426112d59190611e9b565b8160020160046101000a81548163ffffffff021916908363ffffffff16021790555050565b600073ffffffffffffffffffffffffffffffffffffffff168173ffffffffffffffffffffffffffffffffffffffff16141561133457600080fd5b8073ffffffffffffffffffffffffffffffffffffffff1660008054906101000a900473ffffffffffffffffffffffffffffffffffffffff1673ffffffffffffffffffffffffffffffffffffffff167f8be0079c531659141344cd1fd0a4f28419497f9722a3daafe3b4186f6b6457e060405160405180910390a3806000806101000a81548173ffffffffffffffffffffffffffffffffffffffff021916908373ffffffffffffffffffffffffffffffffffffffff16021790555050565b6000428260020160049054906101000a900463ffffffff1663ffffffff1611159050919050565b82805461142490611e69565b90600052602060002090601f016020900481019282611446576000855561148d565b82601f1061145f57803560ff191683800117855561148d565b8280016001018555821561148d579182015b8281111561148c578235825591602001919060010190611471565b5b50905061149a9190611524565b5090565b8280546114aa90611e69565b90600052602060002090601f0160209004810192826114cc5760008555611513565b82601f106114e557805160ff1916838001178555611513565b82800160010185558215611513579182015b828111156115125782518255916020019190600101906114f7565b5b5090506115209190611524565b5090565b5b8082111561153d576000816000905550600101611525565b5090565b6000604051905090565b600080fd5b600080fd5b6000819050919050565b61156881611555565b811461157357600080fd5b50565b6000813590506115858161155f565b92915050565b600080604083850312156115a2576115a161154b565b5b60006115b085828601611576565b92505060206115c185828601611576565b9150509250929050565b6000602082840312156115e1576115e061154b565b5b60006115ef84828501611576565b91505092915050565b600073ffffffffffffffffffffffffffffffffffffffff82169050919050565b6000611623826115f8565b9050919050565b61163381611618565b82525050565b600060208201905061164e600083018461162a565b92915050565b600080fd5b600080fd5b6000601f19601f8301169050919050565b7f4e487b7100000000000000000000000000000000000000000000000000000000600052604160045260246000fd5b6116a78261165e565b810181811067ffffffffffffffff821117156116c6576116c561166f565b5b80604052505050565b60006116d9611541565b90506116e5828261169e565b919050565b600067ffffffffffffffff8211156117055761170461166f565b5b61170e8261165e565b9050602081019050919050565b82818337600083830152505050565b600061173d611738846116ea565b6116cf565b90508281526020810184848401111561175957611758611659565b5b61176484828561171b565b509392505050565b600082601f83011261178157611780611654565b5b813561179184826020860161172a565b91505092915050565b6000602082840312156117b0576117af61154b565b5b600082013567ffffffffffffffff8111156117ce576117cd611550565b5b6117da8482850161176c565b91505092915050565b6117ec81611618565b81146117f757600080fd5b50565b600081359050611809816117e3565b92915050565b6000602082840312156118255761182461154b565b5b6000611833848285016117fa565b91505092915050565b600081519050919050565b600082825260208201905092915050565b6000819050602082019050919050565b61187181611555565b82525050565b60006118838383611868565b60208301905092915050565b6000602082019050919050565b60006118a78261183c565b6118b18185611847565b93506118bc83611858565b8060005b838110156118ed5781516118d48882611877565b97506118df8361188f565b9250506001810190506118c0565b5085935050505092915050565b60006020820190508181036000830152611914818461189c565b905092915050565b60008115159050919050565b6119318161191c565b82525050565b600060208201905061194c6000830184611928565b92915050565b61195b81611555565b82525050565b60006020820190506119766000830184611952565b92915050565b600081519050919050565b600082825260208201905092915050565b60005b838110156119b657808201518184015260208101905061199b565b838111156119c5576000848401525b50505050565b60006119d68261197c565b6119e08185611987565b93506119f0818560208601611998565b6119f98161165e565b840191505092915050565b600063ffffffff82169050919050565b611a1d81611a04565b82525050565b600061ffff82169050919050565b611a3a81611a23565b82525050565b600060c0820190508181036000830152611a5a81896119cb565b9050611a696020830188611952565b611a766040830187611a14565b611a836060830186611a14565b611a906080830185611a31565b611a9d60a0830184611a31565b979650505050505050565b600080fd5b600080fd5b60008083601f840112611ac857611ac7611654565b5b8235905067ffffffffffffffff811115611ae557611ae4611aa8565b5b602083019150836001820283011115611b0157611b00611aad565b5b9250929050565b600080600060408486031215611b2157611b2061154b565b5b6000611b2f86828701611576565b935050602084013567ffffffffffffffff811115611b5057611b4f611550565b5b611b5c86828701611ab2565b92509250509250925092565b611b718161191c565b8114611b7c57600080fd5b50565b600081519050611b8e81611b68565b92915050565b600081519050611ba38161155f565b92915050565b6000806000806000806000806000806101408b8d031215611bcd57611bcc61154b565b5b6000611bdb8d828e01611b7f565b9a50506020611bec8d828e01611b7f565b9950506040611bfd8d828e01611b94565b9850506060611c0e8d828e01611b94565b9750506080611c1f8d828e01611b94565b96505060a0611c308d828e01611b94565b95505060c0611c418d828e01611b94565b94505060e0611c528d828e01611b94565b935050610100611c648d828e01611b94565b925050610120611c768d828e01611b94565b9150509295989b9194979a5092959850565b7f4e487b7100000000000000000000000000000000000000000000000000000000600052603260045260246000fd5b7f4e487b7100000000000000000000000000000000000000000000000000000000600052601160045260246000fd5b6000611cf182611555565b91507fffffffffffffffffffffffffffffffffffffffffffffffffffffffffffffffff821415611d2457611d23611cb7565b5b600182019050919050565b6000611d3a82611a23565b915061ffff821415611d4f57611d4e611cb7565b5b600182019050919050565b6000611d6582611a04565b915063ffffffff821415611d7c57611d7b611cb7565b5b600182019050919050565b600081905092915050565b6000611d9d8261197c565b611da78185611d87565b9350611db7818560208601611998565b80840191505092915050565b6000611dcf8284611d92565b915081905092915050565b7f4e487b7100000000000000000000000000000000000000000000000000000000600052601260045260246000fd5b6000611e1482611555565b9150611e1f83611555565b925082611e2f57611e2e611dda565b5b828206905092915050565b7f4e487b7100000000000000000000000000000000000000000000000000000000600052602260045260246000fd5b60006002820490506001821680611e8157607f821691505b60208210811415611e9557611e94611e3a565b5b50919050565b6000611ea682611555565b9150611eb183611555565b9250827fffffffffffffffffffffffffffffffffffffffffffffffffffffffffffffffff03821115611ee657611ee5611cb7565b5b828201905092915050565b6000611efc82611555565b9150611f0783611555565b925082611f1757611f16611dda565b5b828204905092915050565b6000611f2d82611555565b9150611f3883611555565b925082821015611f4b57611f4a611cb7565b5b828203905092915050565b6000606082019050611f6b6000830186611952565b8181036020830152611f7d81856119cb565b9050611f8c6040830184611952565b949350505050565b6000819050919050565b611faf611faa82611555565b611f94565b82525050565b60008160601b9050919050565b6000611fcd82611fb5565b9050919050565b6000611fdf82611fc2565b9050919050565b611ff7611ff282611618565b611fd4565b82525050565b60006120098286611f9e565b6020820191506120198285611fe6565b6014820191506120298284611f9e565b60208201915081905094935050505056fea2646970667358221220463bb92054e3c885f10c5b7fca3e771a59d2f3958b5c8c00fda577f6ceb1f68264736f6c634300080a0033",
  "immutableReferences": {},
  "source": "pragma solidity ^0.8.0;\r\n\r\nimport \"./carhelper.sol\";\r\n\r\ncontract carRace is CarHelper{\r\n    // implementare fara standard de securitate\r\n    // folosire oracle -> in viitor\r\n    uint randNonce = 0;\r\n\r\n    uint raceWinProb = 59;    \r\n\r\n    function randMod(uint _modulus) internal returns(uint) {\r\n        randNonce ++;\r\n        return uint(keccak256(abi.encodePacked(block.timestamp, msg.sender, randNonce))) % _modulus;\r\n    }\r\n\r\n    function race(uint _id,uint _opponentId) external justOwnerOf(_id){\r\n        Car storage myCar = cars[_id];\r\n        Car storage opponentCar = cars[_opponentId];\r\n        uint rand = randMod(100);\r\n        if(rand<=raceWinProb){\r\n            myCar.winCnt ++;\r\n            myCar.rating ++;\r\n            opponentCar.lossCnt ++ ;\r\n            overtakeAndMultiply(_id, opponentCar.vin);\r\n        }else{\r\n            myCar.lossCnt ++;\r\n            opponentCar.winCnt ++;\r\n            _triggerPitStop(myCar);\r\n        }\r\n\r\n    }\r\n}",
  "sourcePath": "C:\\Users\\prafa\\Desktop\\cripto\\cars_project\\contracts\\carRace.sol",
  "compiler": {
    "name": "solc",
    "version": "0.8.10+commit.fc410830.Emscripten.clang"
  },
  "schemaVersion": "3.4.3",
  "updatedAt": "2022-04-19T09:52:30.090Z",
  "devdoc": {
    "kind": "dev",
    "methods": {
      "isOwner()": {
        "returns": {
          "_0": "true if `msg.sender` is the owner of the contract."
        }
      },
      "owner()": {
        "returns": {
          "_0": "the address of the owner."
        }
      },
      "renounceOwnership()": {
        "details": "Allows the current owner to relinquish control of the contract."
      },
      "transferOwnership(address)": {
        "details": "Allows the current owner to transfer control of the contract to a newOwner.",
        "params": {
          "newOwner": "The address to transfer ownership to."
        }
      }
    },
    "version": 1
  },
  "userdoc": {
    "kind": "user",
    "methods": {
      "renounceOwnership()": {
        "notice": "Renouncing to ownership will leave the contract without an owner. It will not be possible to call the functions with the `onlyOwner` modifier anymore."
      }
    },
    "version": 1
  }
}